{
  "contractName": "CryptoBoys",
  "abi": [
    {
      "inputs": [],
      "stateMutability": "nonpayable",
      "type": "constructor"
    },
    {
      "anonymous": false,
      "inputs": [
        {
          "indexed": true,
          "internalType": "address",
          "name": "owner",
          "type": "address"
        },
        {
          "indexed": true,
          "internalType": "address",
          "name": "approved",
          "type": "address"
        },
        {
          "indexed": true,
          "internalType": "uint256",
          "name": "tokenId",
          "type": "uint256"
        }
      ],
      "name": "Approval",
      "type": "event"
    },
    {
      "anonymous": false,
      "inputs": [
        {
          "indexed": true,
          "internalType": "address",
          "name": "owner",
          "type": "address"
        },
        {
          "indexed": true,
          "internalType": "address",
          "name": "operator",
          "type": "address"
        },
        {
          "indexed": false,
          "internalType": "bool",
          "name": "approved",
          "type": "bool"
        }
      ],
      "name": "ApprovalForAll",
      "type": "event"
    },
    {
      "anonymous": false,
      "inputs": [
        {
          "indexed": true,
          "internalType": "address",
          "name": "from",
          "type": "address"
        },
        {
          "indexed": true,
          "internalType": "address",
          "name": "to",
          "type": "address"
        },
        {
          "indexed": true,
          "internalType": "uint256",
          "name": "tokenId",
          "type": "uint256"
        }
      ],
      "name": "Transfer",
      "type": "event"
    },
    {
      "inputs": [
        {
          "internalType": "uint256",
          "name": "",
          "type": "uint256"
        }
      ],
      "name": "allCryptoBoys",
      "outputs": [
        {
          "internalType": "uint256",
          "name": "tokenId",
          "type": "uint256"
        },
        {
          "internalType": "string",
          "name": "tokenName",
          "type": "string"
        },
        {
          "internalType": "string",
          "name": "tokenURI",
          "type": "string"
        },
        {
          "internalType": "address payable",
          "name": "mintedBy",
          "type": "address"
        },
        {
          "internalType": "address payable",
          "name": "currentOwner",
          "type": "address"
        },
        {
          "internalType": "address payable",
          "name": "previousOwner",
          "type": "address"
        },
        {
          "internalType": "uint256",
          "name": "price",
          "type": "uint256"
        },
        {
          "internalType": "uint256",
          "name": "numberOfTransfers",
          "type": "uint256"
        },
        {
          "internalType": "bool",
          "name": "forSale",
          "type": "bool"
        }
      ],
      "stateMutability": "view",
      "type": "function"
    },
    {
      "inputs": [
        {
          "internalType": "address",
          "name": "to",
          "type": "address"
        },
        {
          "internalType": "uint256",
          "name": "tokenId",
          "type": "uint256"
        }
      ],
      "name": "approve",
      "outputs": [],
      "stateMutability": "nonpayable",
      "type": "function"
    },
    {
      "inputs": [
        {
          "internalType": "address",
          "name": "owner",
          "type": "address"
        }
      ],
      "name": "balanceOf",
      "outputs": [
        {
          "internalType": "uint256",
          "name": "",
          "type": "uint256"
        }
      ],
      "stateMutability": "view",
      "type": "function"
    },
    {
      "inputs": [],
      "name": "baseURI",
      "outputs": [
        {
          "internalType": "string",
          "name": "",
          "type": "string"
        }
      ],
      "stateMutability": "view",
      "type": "function"
    },
    {
      "inputs": [],
      "name": "collectionName",
      "outputs": [
        {
          "internalType": "string",
          "name": "",
          "type": "string"
        }
      ],
      "stateMutability": "view",
      "type": "function"
    },
    {
      "inputs": [],
      "name": "collectionNameSymbol",
      "outputs": [
        {
          "internalType": "string",
          "name": "",
          "type": "string"
        }
      ],
      "stateMutability": "view",
      "type": "function"
    },
    {
      "inputs": [
        {
          "internalType": "string",
          "name": "",
          "type": "string"
        }
      ],
      "name": "colorExists",
      "outputs": [
        {
          "internalType": "bool",
          "name": "",
          "type": "bool"
        }
      ],
      "stateMutability": "view",
      "type": "function"
    },
    {
      "inputs": [],
      "name": "cryptoBoyCounter",
      "outputs": [
        {
          "internalType": "uint256",
          "name": "",
          "type": "uint256"
        }
      ],
      "stateMutability": "view",
      "type": "function"
    },
    {
      "inputs": [
        {
          "internalType": "uint256",
          "name": "tokenId",
          "type": "uint256"
        }
      ],
      "name": "getApproved",
      "outputs": [
        {
          "internalType": "address",
          "name": "",
          "type": "address"
        }
      ],
      "stateMutability": "view",
      "type": "function"
    },
    {
      "inputs": [
        {
          "internalType": "address",
          "name": "owner",
          "type": "address"
        },
        {
          "internalType": "address",
          "name": "operator",
          "type": "address"
        }
      ],
      "name": "isApprovedForAll",
      "outputs": [
        {
          "internalType": "bool",
          "name": "",
          "type": "bool"
        }
      ],
      "stateMutability": "view",
      "type": "function"
    },
    {
      "inputs": [],
      "name": "name",
      "outputs": [
        {
          "internalType": "string",
          "name": "",
          "type": "string"
        }
      ],
      "stateMutability": "view",
      "type": "function"
    },
    {
      "inputs": [
        {
          "internalType": "uint256",
          "name": "tokenId",
          "type": "uint256"
        }
      ],
      "name": "ownerOf",
      "outputs": [
        {
          "internalType": "address",
          "name": "",
          "type": "address"
        }
      ],
      "stateMutability": "view",
      "type": "function"
    },
    {
      "inputs": [
        {
          "internalType": "address",
          "name": "from",
          "type": "address"
        },
        {
          "internalType": "address",
          "name": "to",
          "type": "address"
        },
        {
          "internalType": "uint256",
          "name": "tokenId",
          "type": "uint256"
        }
      ],
      "name": "safeTransferFrom",
      "outputs": [],
      "stateMutability": "nonpayable",
      "type": "function"
    },
    {
      "inputs": [
        {
          "internalType": "address",
          "name": "from",
          "type": "address"
        },
        {
          "internalType": "address",
          "name": "to",
          "type": "address"
        },
        {
          "internalType": "uint256",
          "name": "tokenId",
          "type": "uint256"
        },
        {
          "internalType": "bytes",
          "name": "_data",
          "type": "bytes"
        }
      ],
      "name": "safeTransferFrom",
      "outputs": [],
      "stateMutability": "nonpayable",
      "type": "function"
    },
    {
      "inputs": [
        {
          "internalType": "address",
          "name": "operator",
          "type": "address"
        },
        {
          "internalType": "bool",
          "name": "approved",
          "type": "bool"
        }
      ],
      "name": "setApprovalForAll",
      "outputs": [],
      "stateMutability": "nonpayable",
      "type": "function"
    },
    {
      "inputs": [
        {
          "internalType": "bytes4",
          "name": "interfaceId",
          "type": "bytes4"
        }
      ],
      "name": "supportsInterface",
      "outputs": [
        {
          "internalType": "bool",
          "name": "",
          "type": "bool"
        }
      ],
      "stateMutability": "view",
      "type": "function"
    },
    {
      "inputs": [],
      "name": "symbol",
      "outputs": [
        {
          "internalType": "string",
          "name": "",
          "type": "string"
        }
      ],
      "stateMutability": "view",
      "type": "function"
    },
    {
      "inputs": [
        {
          "internalType": "uint256",
          "name": "index",
          "type": "uint256"
        }
      ],
      "name": "tokenByIndex",
      "outputs": [
        {
          "internalType": "uint256",
          "name": "",
          "type": "uint256"
        }
      ],
      "stateMutability": "view",
      "type": "function"
    },
    {
      "inputs": [
        {
          "internalType": "string",
          "name": "",
          "type": "string"
        }
      ],
      "name": "tokenNameExists",
      "outputs": [
        {
          "internalType": "bool",
          "name": "",
          "type": "bool"
        }
      ],
      "stateMutability": "view",
      "type": "function"
    },
    {
      "inputs": [
        {
          "internalType": "address",
          "name": "owner",
          "type": "address"
        },
        {
          "internalType": "uint256",
          "name": "index",
          "type": "uint256"
        }
      ],
      "name": "tokenOfOwnerByIndex",
      "outputs": [
        {
          "internalType": "uint256",
          "name": "",
          "type": "uint256"
        }
      ],
      "stateMutability": "view",
      "type": "function"
    },
    {
      "inputs": [
        {
          "internalType": "uint256",
          "name": "tokenId",
          "type": "uint256"
        }
      ],
      "name": "tokenURI",
      "outputs": [
        {
          "internalType": "string",
          "name": "",
          "type": "string"
        }
      ],
      "stateMutability": "view",
      "type": "function"
    },
    {
      "inputs": [
        {
          "internalType": "string",
          "name": "",
          "type": "string"
        }
      ],
      "name": "tokenURIExists",
      "outputs": [
        {
          "internalType": "bool",
          "name": "",
          "type": "bool"
        }
      ],
      "stateMutability": "view",
      "type": "function"
    },
    {
      "inputs": [],
      "name": "totalSupply",
      "outputs": [
        {
          "internalType": "uint256",
          "name": "",
          "type": "uint256"
        }
      ],
      "stateMutability": "view",
      "type": "function"
    },
    {
      "inputs": [
        {
          "internalType": "address",
          "name": "from",
          "type": "address"
        },
        {
          "internalType": "address",
          "name": "to",
          "type": "address"
        },
        {
          "internalType": "uint256",
          "name": "tokenId",
          "type": "uint256"
        }
      ],
      "name": "transferFrom",
      "outputs": [],
      "stateMutability": "nonpayable",
      "type": "function"
    },
    {
      "inputs": [
        {
          "internalType": "string",
          "name": "_name",
          "type": "string"
        },
        {
          "internalType": "string",
          "name": "_tokenURI",
          "type": "string"
        },
        {
          "internalType": "uint256",
          "name": "_price",
          "type": "uint256"
        },
        {
          "internalType": "string[]",
          "name": "_colors",
          "type": "string[]"
        }
      ],
      "name": "mintCryptoBoy",
      "outputs": [],
      "stateMutability": "nonpayable",
      "type": "function"
    },
    {
      "inputs": [
        {
          "internalType": "uint256",
          "name": "_tokenId",
          "type": "uint256"
        }
      ],
      "name": "getTokenOwner",
      "outputs": [
        {
          "internalType": "address",
          "name": "",
          "type": "address"
        }
      ],
      "stateMutability": "view",
      "type": "function"
    },
    {
      "inputs": [
        {
          "internalType": "uint256",
          "name": "_tokenId",
          "type": "uint256"
        }
      ],
      "name": "getTokenMetaData",
      "outputs": [
        {
          "internalType": "string",
          "name": "",
          "type": "string"
        }
      ],
      "stateMutability": "view",
      "type": "function"
    },
    {
      "inputs": [],
      "name": "getNumberOfTokensMinted",
      "outputs": [
        {
          "internalType": "uint256",
          "name": "",
          "type": "uint256"
        }
      ],
      "stateMutability": "view",
      "type": "function"
    },
    {
      "inputs": [
        {
          "internalType": "address",
          "name": "_owner",
          "type": "address"
        }
      ],
      "name": "getTotalNumberOfTokensOwnedByAnAddress",
      "outputs": [
        {
          "internalType": "uint256",
          "name": "",
          "type": "uint256"
        }
      ],
      "stateMutability": "view",
      "type": "function"
    },
    {
      "inputs": [
        {
          "internalType": "uint256",
          "name": "_tokenId",
          "type": "uint256"
        }
      ],
      "name": "getTokenExists",
      "outputs": [
        {
          "internalType": "bool",
          "name": "",
          "type": "bool"
        }
      ],
      "stateMutability": "view",
      "type": "function"
    },
    {
      "inputs": [
        {
          "internalType": "uint256",
          "name": "_tokenId",
          "type": "uint256"
        }
      ],
      "name": "buyToken",
      "outputs": [],
      "stateMutability": "payable",
      "type": "function"
    },
    {
      "inputs": [
        {
          "internalType": "uint256",
          "name": "_tokenId",
          "type": "uint256"
        },
        {
          "internalType": "uint256",
          "name": "_newPrice",
          "type": "uint256"
        }
      ],
      "name": "changeTokenPrice",
      "outputs": [],
      "stateMutability": "nonpayable",
      "type": "function"
    },
    {
      "inputs": [
        {
          "internalType": "uint256",
          "name": "_tokenId",
          "type": "uint256"
        }
      ],
      "name": "toggleForSale",
      "outputs": [],
      "stateMutability": "nonpayable",
      "type": "function"
    }
  ],
  "bytecode": "0x60806040523480156200001157600080fd5b506040518060400160405280601681526020017f43727970746f20426f797320436f6c6c656374696f6e000000000000000000008152506040518060400160405280600281526020017f4342000000000000000000000000000000000000000000000000000000000000815250620000966301ffc9a760e01b6200014c60201b60201c565b8160069081620000a79190620005d1565b508060079081620000b99190620005d1565b50620000d26380ac58cd60e01b6200014c60201b60201c565b620000ea635b5e139f60e01b6200014c60201b60201c565b6200010263780e9d6360e01b6200014c60201b60201c565b5050620001146200022360201b60201c565b600a9081620001249190620005d1565b5062000135620002bd60201b60201c565b600b9081620001459190620005d1565b506200073b565b63ffffffff60e01b817bffffffffffffffffffffffffffffffffffffffffffffffffffffffff191603620001b7576040517f08c379a0000000000000000000000000000000000000000000000000000000008152600401620001ae9062000719565b60405180910390fd5b6001600080837bffffffffffffffffffffffffffffffffffffffffffffffffffffffff19167bffffffffffffffffffffffffffffffffffffffffffffffffffffffff1916815260200190815260200160002060006101000a81548160ff02191690831515021790555050565b6060600680546200023490620003c0565b80601f01602080910402602001604051908101604052809291908181526020018280546200026290620003c0565b8015620002b35780601f106200028757610100808354040283529160200191620002b3565b820191906000526020600020905b8154815290600101906020018083116200029557829003601f168201915b5050505050905090565b606060078054620002ce90620003c0565b80601f0160208091040260200160405190810160405280929190818152602001828054620002fc90620003c0565b80156200034d5780601f1062000321576101008083540402835291602001916200034d565b820191906000526020600020905b8154815290600101906020018083116200032f57829003601f168201915b5050505050905090565b600081519050919050565b7f4e487b7100000000000000000000000000000000000000000000000000000000600052604160045260246000fd5b7f4e487b7100000000000000000000000000000000000000000000000000000000600052602260045260246000fd5b60006002820490506001821680620003d957607f821691505b602082108103620003ef57620003ee62000391565b5b50919050565b60008190508160005260206000209050919050565b60006020601f8301049050919050565b600082821b905092915050565b600060088302620004597fffffffffffffffffffffffffffffffffffffffffffffffffffffffffffffffff826200041a565b6200046586836200041a565b95508019841693508086168417925050509392505050565b6000819050919050565b6000819050919050565b6000620004b2620004ac620004a6846200047d565b62000487565b6200047d565b9050919050565b6000819050919050565b620004ce8362000491565b620004e6620004dd82620004b9565b84845462000427565b825550505050565b600090565b620004fd620004ee565b6200050a818484620004c3565b505050565b5b81811015620005325762000526600082620004f3565b60018101905062000510565b5050565b601f82111562000581576200054b81620003f5565b62000556846200040a565b8101602085101562000566578190505b6200057e62000575856200040a565b8301826200050f565b50505b505050565b600082821c905092915050565b6000620005a66000198460080262000586565b1980831691505092915050565b6000620005c1838362000593565b9150826002028217905092915050565b620005dc8262000357565b67ffffffffffffffff811115620005f857620005f762000362565b5b620006048254620003c0565b6200061182828562000536565b600060209050601f83116001811462000649576000841562000634578287015190505b620006408582620005b3565b865550620006b0565b601f1984166200065986620003f5565b60005b8281101562000683578489015182556001820191506020850194506020810190506200065c565b86831015620006a357848901516200069f601f89168262000593565b8355505b6001600288020188555050505b505050505050565b600082825260208201905092915050565b7f4552433136353a20696e76616c696420696e7465726661636520696400000000600082015250565b600062000701601c83620006b8565b91506200070e82620006c9565b602082019050919050565b600060208201905081810360008301526200073481620006f2565b9050919050565b6153c9806200074b6000396000f3fe6080604052600436106101ee5760003560e01c806367c623cf1161010d578063a32018b9116100a0578063bffec2021161006f578063bffec2021461078c578063c87b56dd146107b7578063cc151f3a146107f4578063e5326ab11461081f578063e985e9c51461084a576101ee565b8063a32018b9146106c0578063a46b1fac146106e9578063a5cd761f14610726578063b88d4fde14610763576101ee565b80638d44807c116100dc5780638d44807c1461060657806395d89b41146106435780639bfc5a591461066e578063a22cb46514610697576101ee565b806367c623cf146105365780636c0360eb146105735780636f9507f91461059e57806370a08231146105c9576101ee565b80632f745c591161018557806344c0d7eb1161015457806344c0d7eb1461044e5780634f6ccce71461049357806362e8e8ac146104d05780636352211e146104f9576101ee565b80632f745c591461036e57806342842e0e146103ab57806343902850146103d457806343d32ae714610411576101ee565b8063142687f3116101c1578063142687f3146102c157806318160ddd146102fe57806323b872dd146103295780632d296bf114610352576101ee565b806301ffc9a7146101f357806306fdde0314610230578063081812fc1461025b578063095ea7b314610298575b600080fd5b3480156101ff57600080fd5b5061021a600480360381019061021591906139db565b610887565b6040516102279190613a23565b60405180910390f35b34801561023c57600080fd5b506102456108ee565b6040516102529190613ad7565b60405180910390f35b34801561026757600080fd5b50610282600480360381019061027d9190613b2f565b610980565b60405161028f9190613b9d565b60405180910390f35b3480156102a457600080fd5b506102bf60048036038101906102ba9190613be4565b610a05565b005b3480156102cd57600080fd5b506102e860048036038101906102e39190613b2f565b610b1c565b6040516102f59190613a23565b60405180910390f35b34801561030a57600080fd5b50610313610b33565b6040516103209190613c33565b60405180910390f35b34801561033557600080fd5b50610350600480360381019061034b9190613c4e565b610b44565b005b61036c60048036038101906103679190613b2f565b610ba4565b005b34801561037a57600080fd5b5061039560048036038101906103909190613be4565b611155565b6040516103a29190613c33565b60405180910390f35b3480156103b757600080fd5b506103d260048036038101906103cd9190613c4e565b6111b0565b005b3480156103e057600080fd5b506103fb60048036038101906103f69190613ca1565b6111d0565b6040516104089190613c33565b60405180910390f35b34801561041d57600080fd5b5061043860048036038101906104339190613e03565b6111e7565b6040516104459190613a23565b60405180910390f35b34801561045a57600080fd5b5061047560048036038101906104709190613b2f565b61121d565b60405161048a99989796959493929190613e6d565b60405180910390f35b34801561049f57600080fd5b506104ba60048036038101906104b59190613b2f565b6113e8565b6040516104c79190613c33565b60405180910390f35b3480156104dc57600080fd5b506104f760048036038101906104f29190613f08565b61140b565b005b34801561050557600080fd5b50610520600480360381019061051b9190613b2f565b611884565b60405161052d9190613b9d565b60405180910390f35b34801561054257600080fd5b5061055d60048036038101906105589190613b2f565b6118bb565b60405161056a9190613ad7565b60405180910390f35b34801561057f57600080fd5b506105886118d3565b6040516105959190613ad7565b60405180910390f35b3480156105aa57600080fd5b506105b3611965565b6040516105c09190613ad7565b60405180910390f35b3480156105d557600080fd5b506105f060048036038101906105eb9190613ca1565b6119f3565b6040516105fd9190613c33565b60405180910390f35b34801561061257600080fd5b5061062d60048036038101906106289190613e03565b611ab1565b60405161063a9190613a23565b60405180910390f35b34801561064f57600080fd5b50610658611ae7565b6040516106659190613ad7565b60405180910390f35b34801561067a57600080fd5b5061069560048036038101906106909190613fa8565b611b79565b005b3480156106a357600080fd5b506106be60048036038101906106b99190614094565b611fba565b005b3480156106cc57600080fd5b506106e760048036038101906106e29190613b2f565b61213a565b005b3480156106f557600080fd5b50610710600480360381019061070b9190613e03565b6125dd565b60405161071d9190613a23565b60405180910390f35b34801561073257600080fd5b5061074d60048036038101906107489190613b2f565b612613565b60405161075a9190613b9d565b60405180910390f35b34801561076f57600080fd5b5061078a60048036038101906107859190614175565b61262a565b005b34801561079857600080fd5b506107a161268c565b6040516107ae9190613c33565b60405180910390f35b3480156107c357600080fd5b506107de60048036038101906107d99190613b2f565b612692565b6040516107eb9190613ad7565b60405180910390f35b34801561080057600080fd5b50610809612804565b6040516108169190613c33565b60405180910390f35b34801561082b57600080fd5b50610834612818565b6040516108419190613ad7565b60405180910390f35b34801561085657600080fd5b50610871600480360381019061086c91906141f8565b6128a6565b60405161087e9190613a23565b60405180910390f35b6000806000837bffffffffffffffffffffffffffffffffffffffffffffffffffffffff19167bffffffffffffffffffffffffffffffffffffffffffffffffffffffff1916815260200190815260200160002060009054906101000a900460ff169050919050565b6060600680546108fd90614267565b80601f016020809104026020016040519081016040528092919081815260200182805461092990614267565b80156109765780601f1061094b57610100808354040283529160200191610976565b820191906000526020600020905b81548152906001019060200180831161095957829003601f168201915b5050505050905090565b600061098b8261293a565b6109ca576040517f08c379a00000000000000000000000000000000000000000000000000000000081526004016109c19061430a565b60405180910390fd5b6004600083815260200190815260200160002060009054906101000a900473ffffffffffffffffffffffffffffffffffffffff169050919050565b6000610a1082611884565b90508073ffffffffffffffffffffffffffffffffffffffff168373ffffffffffffffffffffffffffffffffffffffff1603610a80576040517f08c379a0000000000000000000000000000000000000000000000000000000008152600401610a779061439c565b60405180910390fd5b8073ffffffffffffffffffffffffffffffffffffffff16610a9f612957565b73ffffffffffffffffffffffffffffffffffffffff161480610ace5750610acd81610ac8612957565b6128a6565b5b610b0d576040517f08c379a0000000000000000000000000000000000000000000000000000000008152600401610b049061442e565b60405180910390fd5b610b17838361295f565b505050565b600080610b288361293a565b905080915050919050565b6000610b3f6002612a18565b905090565b610b55610b4f612957565b82612a2d565b610b94576040517f08c379a0000000000000000000000000000000000000000000000000000000008152600401610b8b906144c0565b60405180910390fd5b610b9f838383612b0b565b505050565b600073ffffffffffffffffffffffffffffffffffffffff163373ffffffffffffffffffffffffffffffffffffffff1603610bdd57600080fd5b610be68161293a565b610bef57600080fd5b6000610bfa82611884565b9050600073ffffffffffffffffffffffffffffffffffffffff168173ffffffffffffffffffffffffffffffffffffffff1603610c3557600080fd5b3373ffffffffffffffffffffffffffffffffffffffff168173ffffffffffffffffffffffffffffffffffffffff1603610c6d57600080fd5b6000600d60008481526020019081526020016000206040518061012001604052908160008201548152602001600182018054610ca890614267565b80601f0160208091040260200160405190810160405280929190818152602001828054610cd490614267565b8015610d215780601f10610cf657610100808354040283529160200191610d21565b820191906000526020600020905b815481529060010190602001808311610d0457829003601f168201915b50505050508152602001600282018054610d3a90614267565b80601f0160208091040260200160405190810160405280929190818152602001828054610d6690614267565b8015610db35780601f10610d8857610100808354040283529160200191610db3565b820191906000526020600020905b815481529060010190602001808311610d9657829003601f168201915b505050505081526020016003820160009054906101000a900473ffffffffffffffffffffffffffffffffffffffff1673ffffffffffffffffffffffffffffffffffffffff1673ffffffffffffffffffffffffffffffffffffffff1681526020016004820160009054906101000a900473ffffffffffffffffffffffffffffffffffffffff1673ffffffffffffffffffffffffffffffffffffffff1673ffffffffffffffffffffffffffffffffffffffff1681526020016005820160009054906101000a900473ffffffffffffffffffffffffffffffffffffffff1673ffffffffffffffffffffffffffffffffffffffff1673ffffffffffffffffffffffffffffffffffffffff16815260200160068201548152602001600782015481526020016008820160009054906101000a900460ff16151515158152505090508060c00151341015610f0057600080fd5b806101000151610f0f57600080fd5b610f1a823385612b0b565b6000816080015190508073ffffffffffffffffffffffffffffffffffffffff166108fc349081150290604051600060405180830381858888f19350505050158015610f69573d6000803e3d6000fd5b5081608001518260a0019073ffffffffffffffffffffffffffffffffffffffff16908173ffffffffffffffffffffffffffffffffffffffff168152505033826080019073ffffffffffffffffffffffffffffffffffffffff16908173ffffffffffffffffffffffffffffffffffffffff168152505060018260e001818151610ff1919061450f565b9150818152505081600d600086815260200190815260200160002060008201518160000155602082015181600101908161102b9190614711565b5060408201518160020190816110419190614711565b5060608201518160030160006101000a81548173ffffffffffffffffffffffffffffffffffffffff021916908373ffffffffffffffffffffffffffffffffffffffff16021790555060808201518160040160006101000a81548173ffffffffffffffffffffffffffffffffffffffff021916908373ffffffffffffffffffffffffffffffffffffffff16021790555060a08201518160050160006101000a81548173ffffffffffffffffffffffffffffffffffffffff021916908373ffffffffffffffffffffffffffffffffffffffff16021790555060c0820151816006015560e082015181600701556101008201518160080160006101000a81548160ff02191690831515021790555090505050505050565b60006111a882600160008673ffffffffffffffffffffffffffffffffffffffff1673ffffffffffffffffffffffffffffffffffffffff168152602001908152602001600020612d2190919063ffffffff16565b905092915050565b6111cb8383836040518060200160405280600081525061262a565b505050565b6000806111dc836119f3565b905080915050919050565b6010818051602081018201805184825260208301602085012081835280955050505050506000915054906101000a900460ff1681565b600d60205280600052604060002060009150905080600001549080600101805461124690614267565b80601f016020809104026020016040519081016040528092919081815260200182805461127290614267565b80156112bf5780601f10611294576101008083540402835291602001916112bf565b820191906000526020600020905b8154815290600101906020018083116112a257829003601f168201915b5050505050908060020180546112d490614267565b80601f016020809104026020016040519081016040528092919081815260200182805461130090614267565b801561134d5780601f106113225761010080835404028352916020019161134d565b820191906000526020600020905b81548152906001019060200180831161133057829003601f168201915b5050505050908060030160009054906101000a900473ffffffffffffffffffffffffffffffffffffffff16908060040160009054906101000a900473ffffffffffffffffffffffffffffffffffffffff16908060050160009054906101000a900473ffffffffffffffffffffffffffffffffffffffff16908060060154908060070154908060080160009054906101000a900460ff16905089565b6000806113ff836002612d3b90919063ffffffff16565b50905080915050919050565b600073ffffffffffffffffffffffffffffffffffffffff163373ffffffffffffffffffffffffffffffffffffffff160361144457600080fd5b61144d8261293a565b61145657600080fd5b600061146183611884565b90503373ffffffffffffffffffffffffffffffffffffffff168173ffffffffffffffffffffffffffffffffffffffff161461149b57600080fd5b6000600d600085815260200190815260200160002060405180610120016040529081600082015481526020016001820180546114d690614267565b80601f016020809104026020016040519081016040528092919081815260200182805461150290614267565b801561154f5780601f106115245761010080835404028352916020019161154f565b820191906000526020600020905b81548152906001019060200180831161153257829003601f168201915b5050505050815260200160028201805461156890614267565b80601f016020809104026020016040519081016040528092919081815260200182805461159490614267565b80156115e15780601f106115b6576101008083540402835291602001916115e1565b820191906000526020600020905b8154815290600101906020018083116115c457829003601f168201915b505050505081526020016003820160009054906101000a900473ffffffffffffffffffffffffffffffffffffffff1673ffffffffffffffffffffffffffffffffffffffff1673ffffffffffffffffffffffffffffffffffffffff1681526020016004820160009054906101000a900473ffffffffffffffffffffffffffffffffffffffff1673ffffffffffffffffffffffffffffffffffffffff1673ffffffffffffffffffffffffffffffffffffffff1681526020016005820160009054906101000a900473ffffffffffffffffffffffffffffffffffffffff1673ffffffffffffffffffffffffffffffffffffffff1673ffffffffffffffffffffffffffffffffffffffff16815260200160068201548152602001600782015481526020016008820160009054906101000a900460ff1615151515815250509050828160c001818152505080600d600086815260200190815260200160002060008201518160000155602082015181600101908161175a9190614711565b5060408201518160020190816117709190614711565b5060608201518160030160006101000a81548173ffffffffffffffffffffffffffffffffffffffff021916908373ffffffffffffffffffffffffffffffffffffffff16021790555060808201518160040160006101000a81548173ffffffffffffffffffffffffffffffffffffffff021916908373ffffffffffffffffffffffffffffffffffffffff16021790555060a08201518160050160006101000a81548173ffffffffffffffffffffffffffffffffffffffff021916908373ffffffffffffffffffffffffffffffffffffffff16021790555060c0820151816006015560e082015181600701556101008201518160080160006101000a81548160ff02191690831515021790555090505050505050565b60006118b48260405180606001604052806029815260200161536b602991396002612d679092919063ffffffff16565b9050919050565b606060006118c883612692565b905080915050919050565b6060600980546118e290614267565b80601f016020809104026020016040519081016040528092919081815260200182805461190e90614267565b801561195b5780601f106119305761010080835404028352916020019161195b565b820191906000526020600020905b81548152906001019060200180831161193e57829003601f168201915b5050505050905090565b600b805461197290614267565b80601f016020809104026020016040519081016040528092919081815260200182805461199e90614267565b80156119eb5780601f106119c0576101008083540402835291602001916119eb565b820191906000526020600020905b8154815290600101906020018083116119ce57829003601f168201915b505050505081565b60008073ffffffffffffffffffffffffffffffffffffffff168273ffffffffffffffffffffffffffffffffffffffff1603611a63576040517f08c379a0000000000000000000000000000000000000000000000000000000008152600401611a5a90614855565b60405180910390fd5b611aaa600160008473ffffffffffffffffffffffffffffffffffffffff1673ffffffffffffffffffffffffffffffffffffffff168152602001908152602001600020612d86565b9050919050565b600f818051602081018201805184825260208301602085012081835280955050505050506000915054906101000a900460ff1681565b606060078054611af690614267565b80601f0160208091040260200160405190810160405280929190818152602001828054611b2290614267565b8015611b6f5780601f10611b4457610100808354040283529160200191611b6f565b820191906000526020600020905b815481529060010190602001808311611b5257829003601f168201915b5050505050905090565b600073ffffffffffffffffffffffffffffffffffffffff163373ffffffffffffffffffffffffffffffffffffffff1603611bb257600080fd5b600c6000815480929190611bc590614875565b9190505550611bd5600c5461293a565b15611bdf57600080fd5b60005b82829050811015611c5b57600f838383818110611c0257611c016148bd565b5b9050602002810190611c1491906148fb565b604051611c2292919061498e565b908152602001604051809103902060009054906101000a900460ff1615611c4857600080fd5b8080611c5390614875565b915050611be2565b50601084604051611c6c91906149d8565b908152602001604051809103902060009054906101000a900460ff1615611c9257600080fd5b600e85604051611ca291906149d8565b908152602001604051809103902060009054906101000a900460ff1615611cc857600080fd5b611cd433600c54612d9b565b611ce0600c5485612f28565b60005b82829050811015611d5d576001600f848484818110611d0557611d046148bd565b5b9050602002810190611d1791906148fb565b604051611d2592919061498e565b908152602001604051809103902060006101000a81548160ff0219169083151502179055508080611d5590614875565b915050611ce3565b506001601085604051611d7091906149d8565b908152602001604051809103902060006101000a81548160ff0219169083151502179055506001600e86604051611da791906149d8565b908152602001604051809103902060006101000a81548160ff0219169083151502179055506000604051806101200160405280600c5481526020018781526020018681526020013373ffffffffffffffffffffffffffffffffffffffff1681526020013373ffffffffffffffffffffffffffffffffffffffff168152602001600073ffffffffffffffffffffffffffffffffffffffff1681526020018581526020016000815260200160011515815250905080600d6000600c548152602001908152602001600020600082015181600001556020820151816001019081611e8e9190614711565b506040820151816002019081611ea49190614711565b5060608201518160030160006101000a81548173ffffffffffffffffffffffffffffffffffffffff021916908373ffffffffffffffffffffffffffffffffffffffff16021790555060808201518160040160006101000a81548173ffffffffffffffffffffffffffffffffffffffff021916908373ffffffffffffffffffffffffffffffffffffffff16021790555060a08201518160050160006101000a81548173ffffffffffffffffffffffffffffffffffffffff021916908373ffffffffffffffffffffffffffffffffffffffff16021790555060c0820151816006015560e082015181600701556101008201518160080160006101000a81548160ff021916908315150217905550905050505050505050565b611fc2612957565b73ffffffffffffffffffffffffffffffffffffffff168273ffffffffffffffffffffffffffffffffffffffff160361202f576040517f08c379a000000000000000000000000000000000000000000000000000000000815260040161202690614a3b565b60405180910390fd5b806005600061203c612957565b73ffffffffffffffffffffffffffffffffffffffff1673ffffffffffffffffffffffffffffffffffffffff16815260200190815260200160002060008473ffffffffffffffffffffffffffffffffffffffff1673ffffffffffffffffffffffffffffffffffffffff16815260200190815260200160002060006101000a81548160ff0219169083151502179055508173ffffffffffffffffffffffffffffffffffffffff166120e9612957565b73ffffffffffffffffffffffffffffffffffffffff167f17307eab39ab6107e8899845ad3d59bd9653f200f220920489ca2b5937696c318360405161212e9190613a23565b60405180910390a35050565b600073ffffffffffffffffffffffffffffffffffffffff163373ffffffffffffffffffffffffffffffffffffffff160361217357600080fd5b61217c8161293a565b61218557600080fd5b600061219082611884565b90503373ffffffffffffffffffffffffffffffffffffffff168173ffffffffffffffffffffffffffffffffffffffff16146121ca57600080fd5b6000600d6000848152602001908152602001600020604051806101200160405290816000820154815260200160018201805461220590614267565b80601f016020809104026020016040519081016040528092919081815260200182805461223190614267565b801561227e5780601f106122535761010080835404028352916020019161227e565b820191906000526020600020905b81548152906001019060200180831161226157829003601f168201915b5050505050815260200160028201805461229790614267565b80601f01602080910402602001604051908101604052809291908181526020018280546122c390614267565b80156123105780601f106122e557610100808354040283529160200191612310565b820191906000526020600020905b8154815290600101906020018083116122f357829003601f168201915b505050505081526020016003820160009054906101000a900473ffffffffffffffffffffffffffffffffffffffff1673ffffffffffffffffffffffffffffffffffffffff1673ffffffffffffffffffffffffffffffffffffffff1681526020016004820160009054906101000a900473ffffffffffffffffffffffffffffffffffffffff1673ffffffffffffffffffffffffffffffffffffffff1673ffffffffffffffffffffffffffffffffffffffff1681526020016005820160009054906101000a900473ffffffffffffffffffffffffffffffffffffffff1673ffffffffffffffffffffffffffffffffffffffff1673ffffffffffffffffffffffffffffffffffffffff16815260200160068201548152602001600782015481526020016008820160009054906101000a900460ff16151515158152505090508061010001511561246e57600081610100019015159081151581525050612481565b6001816101000190151590811515815250505b80600d60008581526020019081526020016000206000820151816000015560208201518160010190816124b49190614711565b5060408201518160020190816124ca9190614711565b5060608201518160030160006101000a81548173ffffffffffffffffffffffffffffffffffffffff021916908373ffffffffffffffffffffffffffffffffffffffff16021790555060808201518160040160006101000a81548173ffffffffffffffffffffffffffffffffffffffff021916908373ffffffffffffffffffffffffffffffffffffffff16021790555060a08201518160050160006101000a81548173ffffffffffffffffffffffffffffffffffffffff021916908373ffffffffffffffffffffffffffffffffffffffff16021790555060c0820151816006015560e082015181600701556101008201518160080160006101000a81548160ff021916908315150217905550905050505050565b600e818051602081018201805184825260208301602085012081835280955050505050506000915054906101000a900460ff1681565b60008061261f83611884565b905080915050919050565b61263b612635612957565b83612a2d565b61267a576040517f08c379a0000000000000000000000000000000000000000000000000000000008152600401612671906144c0565b60405180910390fd5b61268684848484612f95565b50505050565b600c5481565b606061269d8261293a565b6126dc576040517f08c379a00000000000000000000000000000000000000000000000000000000081526004016126d390614acd565b60405180910390fd5b60006008600084815260200190815260200160002080546126fc90614267565b80601f016020809104026020016040519081016040528092919081815260200182805461272890614267565b80156127755780601f1061274a57610100808354040283529160200191612775565b820191906000526020600020905b81548152906001019060200180831161275857829003601f168201915b5050505050905060006127866118d3565b9050600081510361279b5781925050506127ff565b6000825111156127d05780826040516020016127b8929190614aed565b604051602081830303815290604052925050506127ff565b806127da85612ff1565b6040516020016127eb929190614aed565b604051602081830303815290604052925050505b919050565b60008061280f610b33565b90508091505090565b600a805461282590614267565b80601f016020809104026020016040519081016040528092919081815260200182805461285190614267565b801561289e5780601f106128735761010080835404028352916020019161289e565b820191906000526020600020905b81548152906001019060200180831161288157829003601f168201915b505050505081565b6000600560008473ffffffffffffffffffffffffffffffffffffffff1673ffffffffffffffffffffffffffffffffffffffff16815260200190815260200160002060008373ffffffffffffffffffffffffffffffffffffffff1673ffffffffffffffffffffffffffffffffffffffff16815260200190815260200160002060009054906101000a900460ff16905092915050565b600061295082600261316390919063ffffffff16565b9050919050565b600033905090565b816004600083815260200190815260200160002060006101000a81548173ffffffffffffffffffffffffffffffffffffffff021916908373ffffffffffffffffffffffffffffffffffffffff160217905550808273ffffffffffffffffffffffffffffffffffffffff166129d283611884565b73ffffffffffffffffffffffffffffffffffffffff167f8c5be1e5ebec7d5bd14f71427d1e84f3dd0314c0f7b2291e5b200ac8c7c3b92560405160405180910390a45050565b6000612a268260000161317d565b9050919050565b6000612a388261293a565b612a77576040517f08c379a0000000000000000000000000000000000000000000000000000000008152600401612a6e90614b83565b60405180910390fd5b6000612a8283611884565b90508073ffffffffffffffffffffffffffffffffffffffff168473ffffffffffffffffffffffffffffffffffffffff161480612af157508373ffffffffffffffffffffffffffffffffffffffff16612ad984610980565b73ffffffffffffffffffffffffffffffffffffffff16145b80612b025750612b0181856128a6565b5b91505092915050565b8273ffffffffffffffffffffffffffffffffffffffff16612b2b82611884565b73ffffffffffffffffffffffffffffffffffffffff1614612b81576040517f08c379a0000000000000000000000000000000000000000000000000000000008152600401612b7890614c15565b60405180910390fd5b600073ffffffffffffffffffffffffffffffffffffffff168273ffffffffffffffffffffffffffffffffffffffff1603612bf0576040517f08c379a0000000000000000000000000000000000000000000000000000000008152600401612be790614ca7565b60405180910390fd5b612bfb83838361318e565b612c0660008261295f565b612c5781600160008673ffffffffffffffffffffffffffffffffffffffff1673ffffffffffffffffffffffffffffffffffffffff16815260200190815260200160002061319390919063ffffffff16565b50612ca981600160008573ffffffffffffffffffffffffffffffffffffffff1673ffffffffffffffffffffffffffffffffffffffff1681526020019081526020016000206131ad90919063ffffffff16565b50612cc0818360026131c79092919063ffffffff16565b50808273ffffffffffffffffffffffffffffffffffffffff168473ffffffffffffffffffffffffffffffffffffffff167fddf252ad1be2c89b69c2b068fc378daa952ba7f163c4a11628f55a4df523b3ef60405160405180910390a4505050565b6000612d3083600001836131fc565b60001c905092915050565b600080600080612d4e8660000186613270565b915091508160001c8160001c9350935050509250929050565b6000612d7a846000018460001b846132fa565b60001c90509392505050565b6000612d948260000161339b565b9050919050565b600073ffffffffffffffffffffffffffffffffffffffff168273ffffffffffffffffffffffffffffffffffffffff1603612e0a576040517f08c379a0000000000000000000000000000000000000000000000000000000008152600401612e0190614d13565b60405180910390fd5b612e138161293a565b15612e53576040517f08c379a0000000000000000000000000000000000000000000000000000000008152600401612e4a90614d7f565b60405180910390fd5b612e5f6000838361318e565b612eb081600160008573ffffffffffffffffffffffffffffffffffffffff1673ffffffffffffffffffffffffffffffffffffffff1681526020019081526020016000206131ad90919063ffffffff16565b50612ec7818360026131c79092919063ffffffff16565b50808273ffffffffffffffffffffffffffffffffffffffff16600073ffffffffffffffffffffffffffffffffffffffff167fddf252ad1be2c89b69c2b068fc378daa952ba7f163c4a11628f55a4df523b3ef60405160405180910390a45050565b612f318261293a565b612f70576040517f08c379a0000000000000000000000000000000000000000000000000000000008152600401612f6790614e11565b60405180910390fd5b80600860008481526020019081526020016000209081612f909190614711565b505050565b612fa0848484612b0b565b612fac848484846133ac565b612feb576040517f08c379a0000000000000000000000000000000000000000000000000000000008152600401612fe290614ea3565b60405180910390fd5b50505050565b606060008203613038576040518060400160405280600181526020017f3000000000000000000000000000000000000000000000000000000000000000815250905061315e565b600082905060005b6000821461306a57808061305390614875565b915050600a826130639190614ef2565b9150613040565b60008167ffffffffffffffff81111561308657613085613cd8565b5b6040519080825280601f01601f1916602001820160405280156130b85781602001600182028036833780820191505090505b50905060006001836130ca9190614f23565b90508593505b6000841461315657600a846130e59190614f57565b60306130f1919061450f565b60f81b82828061310090614f88565b935081518110613113576131126148bd565b5b60200101907effffffffffffffffffffffffffffffffffffffffffffffffffffffffffffff1916908160001a905350600a8461314f9190614ef2565b93506130d0565b819450505050505b919050565b6000613175836000018360001b613510565b905092915050565b600081600001805490509050919050565b505050565b60006131a5836000018360001b613533565b905092915050565b60006131bf836000018360001b61364b565b905092915050565b60006131f3846000018460001b8473ffffffffffffffffffffffffffffffffffffffff1660001b6136bb565b90509392505050565b600081836000018054905011613247576040517f08c379a000000000000000000000000000000000000000000000000000000000815260040161323e90615023565b60405180910390fd5b82600001828154811061325d5761325c6148bd565b5b9060005260206000200154905092915050565b600080828460000180549050116132bc576040517f08c379a00000000000000000000000000000000000000000000000000000000081526004016132b3906150b5565b60405180910390fd5b60008460000184815481106132d4576132d36148bd565b5b906000526020600020906002020190508060000154816001015492509250509250929050565b6000808460010160008581526020019081526020016000205490506000811415839061335c576040517f08c379a00000000000000000000000000000000000000000000000000000000081526004016133539190613ad7565b60405180910390fd5b508460000160018261336e9190614f23565b8154811061337f5761337e6148bd565b5b9060005260206000209060020201600101549150509392505050565b600081600001805490509050919050565b60006133cd8473ffffffffffffffffffffffffffffffffffffffff166137a6565b6133da5760019050613508565b60006134a163150b7a0260e01b6133ef612957565b888787604051602401613405949392919061512a565b604051602081830303815290604052907bffffffffffffffffffffffffffffffffffffffffffffffffffffffff19166020820180517bffffffffffffffffffffffffffffffffffffffffffffffffffffffff8381831617835250505050604051806060016040528060328152602001615339603291398773ffffffffffffffffffffffffffffffffffffffff166137b99092919063ffffffff16565b90506000818060200190518101906134b9919061518b565b905063150b7a0260e01b7bffffffffffffffffffffffffffffffffffffffffffffffffffffffff1916817bffffffffffffffffffffffffffffffffffffffffffffffffffffffff191614925050505b949350505050565b600080836001016000848152602001908152602001600020541415905092915050565b6000808360010160008481526020019081526020016000205490506000811461363f5760006001826135659190614f23565b905060006001866000018054905061357d9190614f23565b90506000866000018281548110613597576135966148bd565b5b90600052602060002001549050808760000184815481106135bb576135ba6148bd565b5b90600052602060002001819055506001836135d6919061450f565b8760010160008381526020019081526020016000208190555086600001805480613603576136026151b8565b5b60019003818190600052602060002001600090559055866001016000878152602001908152602001600020600090556001945050505050613645565b60009150505b92915050565b600061365783836137d1565b6136b05782600001829080600181540180825580915050600190039060005260206000200160009091909190915055826000018054905083600101600084815260200190815260200160002081905550600190506136b5565b600090505b92915050565b600080846001016000858152602001908152602001600020549050600081036137615784600001604051806040016040528086815260200185815250908060018154018082558091505060019003906000526020600020906002020160009091909190915060008201518160000155602082015181600101555050846000018054905085600101600086815260200190815260200160002081905550600191505061379f565b82856000016001836137739190614f23565b81548110613784576137836148bd565b5b90600052602060002090600202016001018190555060009150505b9392505050565b600080823b905060008111915050919050565b60606137c884846000856137f4565b90509392505050565b600080836001016000848152602001908152602001600020541415905092915050565b606082471015613839576040517f08c379a000000000000000000000000000000000000000000000000000000000815260040161383090615259565b60405180910390fd5b613842856137a6565b613881576040517f08c379a0000000000000000000000000000000000000000000000000000000008152600401613878906152c5565b60405180910390fd5b6000808673ffffffffffffffffffffffffffffffffffffffff1685876040516138aa9190615321565b60006040518083038185875af1925050503d80600081146138e7576040519150601f19603f3d011682016040523d82523d6000602084013e6138ec565b606091505b50915091506138fc828286613908565b92505050949350505050565b6060831561391857829050613968565b60008351111561392b5782518084602001fd5b816040517f08c379a000000000000000000000000000000000000000000000000000000000815260040161395f9190613ad7565b60405180910390fd5b9392505050565b6000604051905090565b600080fd5b600080fd5b60007fffffffff0000000000000000000000000000000000000000000000000000000082169050919050565b6139b881613983565b81146139c357600080fd5b50565b6000813590506139d5816139af565b92915050565b6000602082840312156139f1576139f0613979565b5b60006139ff848285016139c6565b91505092915050565b60008115159050919050565b613a1d81613a08565b82525050565b6000602082019050613a386000830184613a14565b92915050565b600081519050919050565b600082825260208201905092915050565b60005b83811015613a78578082015181840152602081019050613a5d565b83811115613a87576000848401525b50505050565b6000601f19601f8301169050919050565b6000613aa982613a3e565b613ab38185613a49565b9350613ac3818560208601613a5a565b613acc81613a8d565b840191505092915050565b60006020820190508181036000830152613af18184613a9e565b905092915050565b6000819050919050565b613b0c81613af9565b8114613b1757600080fd5b50565b600081359050613b2981613b03565b92915050565b600060208284031215613b4557613b44613979565b5b6000613b5384828501613b1a565b91505092915050565b600073ffffffffffffffffffffffffffffffffffffffff82169050919050565b6000613b8782613b5c565b9050919050565b613b9781613b7c565b82525050565b6000602082019050613bb26000830184613b8e565b92915050565b613bc181613b7c565b8114613bcc57600080fd5b50565b600081359050613bde81613bb8565b92915050565b60008060408385031215613bfb57613bfa613979565b5b6000613c0985828601613bcf565b9250506020613c1a85828601613b1a565b9150509250929050565b613c2d81613af9565b82525050565b6000602082019050613c486000830184613c24565b92915050565b600080600060608486031215613c6757613c66613979565b5b6000613c7586828701613bcf565b9350506020613c8686828701613bcf565b9250506040613c9786828701613b1a565b9150509250925092565b600060208284031215613cb757613cb6613979565b5b6000613cc584828501613bcf565b91505092915050565b600080fd5b600080fd5b7f4e487b7100000000000000000000000000000000000000000000000000000000600052604160045260246000fd5b613d1082613a8d565b810181811067ffffffffffffffff82111715613d2f57613d2e613cd8565b5b80604052505050565b6000613d4261396f565b9050613d4e8282613d07565b919050565b600067ffffffffffffffff821115613d6e57613d6d613cd8565b5b613d7782613a8d565b9050602081019050919050565b82818337600083830152505050565b6000613da6613da184613d53565b613d38565b905082815260208101848484011115613dc257613dc1613cd3565b5b613dcd848285613d84565b509392505050565b600082601f830112613dea57613de9613cce565b5b8135613dfa848260208601613d93565b91505092915050565b600060208284031215613e1957613e18613979565b5b600082013567ffffffffffffffff811115613e3757613e3661397e565b5b613e4384828501613dd5565b91505092915050565b6000613e5782613b5c565b9050919050565b613e6781613e4c565b82525050565b600061012082019050613e83600083018c613c24565b8181036020830152613e95818b613a9e565b90508181036040830152613ea9818a613a9e565b9050613eb86060830189613e5e565b613ec56080830188613e5e565b613ed260a0830187613e5e565b613edf60c0830186613c24565b613eec60e0830185613c24565b613efa610100830184613a14565b9a9950505050505050505050565b60008060408385031215613f1f57613f1e613979565b5b6000613f2d85828601613b1a565b9250506020613f3e85828601613b1a565b9150509250929050565b600080fd5b600080fd5b60008083601f840112613f6857613f67613cce565b5b8235905067ffffffffffffffff811115613f8557613f84613f48565b5b602083019150836020820283011115613fa157613fa0613f4d565b5b9250929050565b600080600080600060808688031215613fc457613fc3613979565b5b600086013567ffffffffffffffff811115613fe257613fe161397e565b5b613fee88828901613dd5565b955050602086013567ffffffffffffffff81111561400f5761400e61397e565b5b61401b88828901613dd5565b945050604061402c88828901613b1a565b935050606086013567ffffffffffffffff81111561404d5761404c61397e565b5b61405988828901613f52565b92509250509295509295909350565b61407181613a08565b811461407c57600080fd5b50565b60008135905061408e81614068565b92915050565b600080604083850312156140ab576140aa613979565b5b60006140b985828601613bcf565b92505060206140ca8582860161407f565b9150509250929050565b600067ffffffffffffffff8211156140ef576140ee613cd8565b5b6140f882613a8d565b9050602081019050919050565b6000614118614113846140d4565b613d38565b90508281526020810184848401111561413457614133613cd3565b5b61413f848285613d84565b509392505050565b600082601f83011261415c5761415b613cce565b5b813561416c848260208601614105565b91505092915050565b6000806000806080858703121561418f5761418e613979565b5b600061419d87828801613bcf565b94505060206141ae87828801613bcf565b93505060406141bf87828801613b1a565b925050606085013567ffffffffffffffff8111156141e0576141df61397e565b5b6141ec87828801614147565b91505092959194509250565b6000806040838503121561420f5761420e613979565b5b600061421d85828601613bcf565b925050602061422e85828601613bcf565b9150509250929050565b7f4e487b7100000000000000000000000000000000000000000000000000000000600052602260045260246000fd5b6000600282049050600182168061427f57607f821691505b60208210810361429257614291614238565b5b50919050565b7f4552433732313a20617070726f76656420717565727920666f72206e6f6e657860008201527f697374656e7420746f6b656e0000000000000000000000000000000000000000602082015250565b60006142f4602c83613a49565b91506142ff82614298565b604082019050919050565b60006020820190508181036000830152614323816142e7565b9050919050565b7f4552433732313a20617070726f76616c20746f2063757272656e74206f776e6560008201527f7200000000000000000000000000000000000000000000000000000000000000602082015250565b6000614386602183613a49565b91506143918261432a565b604082019050919050565b600060208201905081810360008301526143b581614379565b9050919050565b7f4552433732313a20617070726f76652063616c6c6572206973206e6f74206f7760008201527f6e6572206e6f7220617070726f76656420666f7220616c6c0000000000000000602082015250565b6000614418603883613a49565b9150614423826143bc565b604082019050919050565b600060208201905081810360008301526144478161440b565b9050919050565b7f4552433732313a207472616e736665722063616c6c6572206973206e6f74206f60008201527f776e6572206e6f7220617070726f766564000000000000000000000000000000602082015250565b60006144aa603183613a49565b91506144b58261444e565b604082019050919050565b600060208201905081810360008301526144d98161449d565b9050919050565b7f4e487b7100000000000000000000000000000000000000000000000000000000600052601160045260246000fd5b600061451a82613af9565b915061452583613af9565b9250827fffffffffffffffffffffffffffffffffffffffffffffffffffffffffffffffff0382111561455a576145596144e0565b5b828201905092915050565b60008190508160005260206000209050919050565b60006020601f8301049050919050565b600082821b905092915050565b6000600883026145c77fffffffffffffffffffffffffffffffffffffffffffffffffffffffffffffffff8261458a565b6145d1868361458a565b95508019841693508086168417925050509392505050565b6000819050919050565b600061460e61460961460484613af9565b6145e9565b613af9565b9050919050565b6000819050919050565b614628836145f3565b61463c61463482614615565b848454614597565b825550505050565b600090565b614651614644565b61465c81848461461f565b505050565b5b8181101561468057614675600082614649565b600181019050614662565b5050565b601f8211156146c55761469681614565565b61469f8461457a565b810160208510156146ae578190505b6146c26146ba8561457a565b830182614661565b50505b505050565b600082821c905092915050565b60006146e8600019846008026146ca565b1980831691505092915050565b600061470183836146d7565b9150826002028217905092915050565b61471a82613a3e565b67ffffffffffffffff81111561473357614732613cd8565b5b61473d8254614267565b614748828285614684565b600060209050601f83116001811461477b5760008415614769578287015190505b61477385826146f5565b8655506147db565b601f19841661478986614565565b60005b828110156147b15784890151825560018201915060208501945060208101905061478c565b868310156147ce57848901516147ca601f8916826146d7565b8355505b6001600288020188555050505b505050505050565b7f4552433732313a2062616c616e636520717565727920666f7220746865207a6560008201527f726f206164647265737300000000000000000000000000000000000000000000602082015250565b600061483f602a83613a49565b915061484a826147e3565b604082019050919050565b6000602082019050818103600083015261486e81614832565b9050919050565b600061488082613af9565b91507fffffffffffffffffffffffffffffffffffffffffffffffffffffffffffffffff82036148b2576148b16144e0565b5b600182019050919050565b7f4e487b7100000000000000000000000000000000000000000000000000000000600052603260045260246000fd5b600080fd5b600080fd5b600080fd5b60008083356001602003843603038112614918576149176148ec565b5b80840192508235915067ffffffffffffffff82111561493a576149396148f1565b5b602083019250600182023603831315614956576149556148f6565b5b509250929050565b600081905092915050565b6000614975838561495e565b9350614982838584613d84565b82840190509392505050565b600061499b828486614969565b91508190509392505050565b60006149b282613a3e565b6149bc818561495e565b93506149cc818560208601613a5a565b80840191505092915050565b60006149e482846149a7565b915081905092915050565b7f4552433732313a20617070726f766520746f2063616c6c657200000000000000600082015250565b6000614a25601983613a49565b9150614a30826149ef565b602082019050919050565b60006020820190508181036000830152614a5481614a18565b9050919050565b7f4552433732314d657461646174613a2055524920717565727920666f72206e6f60008201527f6e6578697374656e7420746f6b656e0000000000000000000000000000000000602082015250565b6000614ab7602f83613a49565b9150614ac282614a5b565b604082019050919050565b60006020820190508181036000830152614ae681614aaa565b9050919050565b6000614af982856149a7565b9150614b0582846149a7565b91508190509392505050565b7f4552433732313a206f70657261746f7220717565727920666f72206e6f6e657860008201527f697374656e7420746f6b656e0000000000000000000000000000000000000000602082015250565b6000614b6d602c83613a49565b9150614b7882614b11565b604082019050919050565b60006020820190508181036000830152614b9c81614b60565b9050919050565b7f4552433732313a207472616e73666572206f6620746f6b656e2074686174206960008201527f73206e6f74206f776e0000000000000000000000000000000000000000000000602082015250565b6000614bff602983613a49565b9150614c0a82614ba3565b604082019050919050565b60006020820190508181036000830152614c2e81614bf2565b9050919050565b7f4552433732313a207472616e7366657220746f20746865207a65726f2061646460008201527f7265737300000000000000000000000000000000000000000000000000000000602082015250565b6000614c91602483613a49565b9150614c9c82614c35565b604082019050919050565b60006020820190508181036000830152614cc081614c84565b9050919050565b7f4552433732313a206d696e7420746f20746865207a65726f2061646472657373600082015250565b6000614cfd602083613a49565b9150614d0882614cc7565b602082019050919050565b60006020820190508181036000830152614d2c81614cf0565b9050919050565b7f4552433732313a20746f6b656e20616c7265616479206d696e74656400000000600082015250565b6000614d69601c83613a49565b9150614d7482614d33565b602082019050919050565b60006020820190508181036000830152614d9881614d5c565b9050919050565b7f4552433732314d657461646174613a2055524920736574206f66206e6f6e657860008201527f697374656e7420746f6b656e0000000000000000000000000000000000000000602082015250565b6000614dfb602c83613a49565b9150614e0682614d9f565b604082019050919050565b60006020820190508181036000830152614e2a81614dee565b9050919050565b7f4552433732313a207472616e7366657220746f206e6f6e20455243373231526560008201527f63656976657220696d706c656d656e7465720000000000000000000000000000602082015250565b6000614e8d603283613a49565b9150614e9882614e31565b604082019050919050565b60006020820190508181036000830152614ebc81614e80565b9050919050565b7f4e487b7100000000000000000000000000000000000000000000000000000000600052601260045260246000fd5b6000614efd82613af9565b9150614f0883613af9565b925082614f1857614f17614ec3565b5b828204905092915050565b6000614f2e82613af9565b9150614f3983613af9565b925082821015614f4c57614f4b6144e0565b5b828203905092915050565b6000614f6282613af9565b9150614f6d83613af9565b925082614f7d57614f7c614ec3565b5b828206905092915050565b6000614f9382613af9565b915060008203614fa657614fa56144e0565b5b600182039050919050565b7f456e756d657261626c655365743a20696e646578206f7574206f6620626f756e60008201527f6473000000000000000000000000000000000000000000000000000000000000602082015250565b600061500d602283613a49565b915061501882614fb1565b604082019050919050565b6000602082019050818103600083015261503c81615000565b9050919050565b7f456e756d657261626c654d61703a20696e646578206f7574206f6620626f756e60008201527f6473000000000000000000000000000000000000000000000000000000000000602082015250565b600061509f602283613a49565b91506150aa82615043565b604082019050919050565b600060208201905081810360008301526150ce81615092565b9050919050565b600081519050919050565b600082825260208201905092915050565b60006150fc826150d5565b61510681856150e0565b9350615116818560208601613a5a565b61511f81613a8d565b840191505092915050565b600060808201905061513f6000830187613e5e565b61514c6020830186613b8e565b6151596040830185613c24565b818103606083015261516b81846150f1565b905095945050505050565b600081519050615185816139af565b92915050565b6000602082840312156151a1576151a0613979565b5b60006151af84828501615176565b91505092915050565b7f4e487b7100000000000000000000000000000000000000000000000000000000600052603160045260246000fd5b7f416464726573733a20696e73756666696369656e742062616c616e636520666f60008201527f722063616c6c0000000000000000000000000000000000000000000000000000602082015250565b6000615243602683613a49565b915061524e826151e7565b604082019050919050565b6000602082019050818103600083015261527281615236565b9050919050565b7f416464726573733a2063616c6c20746f206e6f6e2d636f6e7472616374000000600082015250565b60006152af601d83613a49565b91506152ba82615279565b602082019050919050565b600060208201905081810360008301526152de816152a2565b9050919050565b600081905092915050565b60006152fb826150d5565b61530581856152e5565b9350615315818560208601613a5a565b80840191505092915050565b600061532d82846152f0565b91508190509291505056fe4552433732313a207472616e7366657220746f206e6f6e20455243373231526563656976657220696d706c656d656e7465724552433732313a206f776e657220717565727920666f72206e6f6e6578697374656e7420746f6b656ea2646970667358221220bb0c3d50944528e03c3e237c6ca70e44f2a1c51b5b5e29c411cf2f5ae786356264736f6c634300080f0033",
  "immutableReferences": {},
  "source": "// SPDX-License-Identifier: MIT\r\npragma solidity ^0.8.0;\r\n// pragma abicoder v2;\r\npragma experimental ABIEncoderV2;\r\n\r\n// import ERC721 iterface\r\nimport \"./ERC721.sol\";\r\n\r\n// CryptoBoys smart contract inherits ERC721 interface\r\ncontract CryptoBoys is ERC721 {\r\n\r\n  // this contract's token collection name\r\n  string public collectionName;\r\n  // this contract's token symbol\r\n  string public collectionNameSymbol;\r\n  // total number of crypto boys minted\r\n  uint256 public cryptoBoyCounter;\r\n\r\n  // define crypto boy struct\r\n   struct CryptoBoy {\r\n    uint256 tokenId;\r\n    string tokenName;\r\n    string tokenURI;\r\n    address payable mintedBy;\r\n    address payable currentOwner;\r\n    address payable previousOwner;\r\n    uint256 price;\r\n    uint256 numberOfTransfers;\r\n    bool forSale;\r\n  }\r\n\r\n  // map cryptoboy's token id to crypto boy\r\n  mapping(uint256 => CryptoBoy) public allCryptoBoys;\r\n  // check if token name exists\r\n  mapping(string => bool) public tokenNameExists;\r\n  // check if color exists\r\n  mapping(string => bool) public colorExists;\r\n  // check if token URI exists\r\n  mapping(string => bool) public tokenURIExists;\r\n\r\n  // initialize contract while deployment with contract's collection name and token\r\n  constructor() ERC721(\"Crypto Boys Collection\", \"CB\") {\r\n    collectionName = name();\r\n    collectionNameSymbol = symbol();\r\n  }\r\n\r\n  // mint a new crypto boy\r\n  function mintCryptoBoy(string memory _name, string memory _tokenURI, uint256 _price, string[] calldata _colors) external {\r\n    // check if thic fucntion caller is not an zero address account\r\n    require(msg.sender != address(0));\r\n    // increment counter\r\n    cryptoBoyCounter ++;\r\n    // check if a token exists with the above token id => incremented counter\r\n    require(!_exists(cryptoBoyCounter));\r\n\r\n    // loop through the colors passed and check if each colors already exists or not\r\n    for(uint i=0; i<_colors.length; i++) {\r\n      require(!colorExists[_colors[i]]);\r\n    }\r\n    // check if the token URI already exists or not\r\n    require(!tokenURIExists[_tokenURI]);\r\n    // check if the token name already exists or not\r\n    require(!tokenNameExists[_name]);\r\n\r\n    // mint the token\r\n    _mint(msg.sender, cryptoBoyCounter);\r\n    // set token URI (bind token id with the passed in token URI)\r\n    _setTokenURI(cryptoBoyCounter, _tokenURI);\r\n\r\n    // loop through the colors passed and make each of the colors as exists since the token is already minted\r\n    for (uint i=0; i<_colors.length; i++) {\r\n      colorExists[_colors[i]] = true;\r\n    }\r\n    // make passed token URI as exists\r\n    tokenURIExists[_tokenURI] = true;\r\n    // make token name passed as exists\r\n    tokenNameExists[_name] = true;\r\n\r\n    // creat a new crypto boy (struct) and pass in new values\r\n    CryptoBoy memory newCryptoBoy = CryptoBoy(\r\n    cryptoBoyCounter,\r\n    _name,\r\n    _tokenURI,\r\n    payable(msg.sender),\r\n    payable(msg.sender),\r\n    payable(address(0)),\r\n    _price,\r\n    0,\r\n    true);\r\n    // add the token id and it's crypto boy to all crypto boys mapping\r\n    allCryptoBoys[cryptoBoyCounter] = newCryptoBoy;\r\n  }\r\n\r\n  // get owner of the token\r\n  function getTokenOwner(uint256 _tokenId) public view returns(address) {\r\n    address _tokenOwner = ownerOf(_tokenId);\r\n    return _tokenOwner;\r\n  }\r\n\r\n  // get metadata of the token\r\n  function getTokenMetaData(uint _tokenId) public view returns(string memory) {\r\n    string memory tokenMetaData = tokenURI(_tokenId);\r\n    return tokenMetaData;\r\n  }\r\n\r\n  // get total number of tokens minted so far\r\n  function getNumberOfTokensMinted() public view returns(uint256) {\r\n    uint256 totalNumberOfTokensMinted = totalSupply();\r\n    return totalNumberOfTokensMinted;\r\n  }\r\n\r\n  // get total number of tokens owned by an address\r\n  function getTotalNumberOfTokensOwnedByAnAddress(address _owner) public view returns(uint256) {\r\n    uint256 totalNumberOfTokensOwned = balanceOf(_owner);\r\n    return totalNumberOfTokensOwned;\r\n  }\r\n\r\n  // check if the token already exists\r\n  function getTokenExists(uint256 _tokenId) public view returns(bool) {\r\n    bool tokenExists = _exists(_tokenId);\r\n    return tokenExists;\r\n  }\r\n\r\n  // by a token by passing in the token's id\r\n  function buyToken(uint256 _tokenId) public payable {\r\n    // check if the function caller is not an zero account address\r\n    require(msg.sender != address(0));\r\n    // check if the token id of the token being bought exists or not\r\n    require(_exists(_tokenId));\r\n    // get the token's owner\r\n    address tokenOwner = ownerOf(_tokenId);\r\n    // token's owner should not be an zero address account\r\n    require(tokenOwner != address(0));\r\n    // the one who wants to buy the token should not be the token's owner\r\n    require(tokenOwner != msg.sender);\r\n    // get that token from all crypto boys mapping and create a memory of it defined as (struct => CryptoBoy)\r\n    CryptoBoy memory cryptoboy = allCryptoBoys[_tokenId];\r\n    // price sent in to buy should be equal to or more than the token's price\r\n    require(msg.value >= cryptoboy.price);\r\n    // token should be for sale\r\n    require(cryptoboy.forSale);\r\n    // transfer the token from owner to the caller of the function (buyer)\r\n    _transfer(tokenOwner, msg.sender, _tokenId);\r\n    // get owner of the token\r\n    address payable sendTo = cryptoboy.currentOwner;\r\n    // send token's worth of ethers to the owner\r\n    sendTo.transfer(msg.value);\r\n    // update the token's previous owner\r\n    cryptoboy.previousOwner = cryptoboy.currentOwner;\r\n    // update the token's current owner\r\n    cryptoboy.currentOwner = payable(msg.sender);\r\n    // update the how many times this token was transfered\r\n    cryptoboy.numberOfTransfers += 1;\r\n    // set and update that token in the mapping\r\n    allCryptoBoys[_tokenId] = cryptoboy;\r\n  }\r\n\r\n  function changeTokenPrice(uint256 _tokenId, uint256 _newPrice) public {\r\n    // require caller of the function is not an empty address\r\n    require(msg.sender != address(0));\r\n    // require that token should exist\r\n    require(_exists(_tokenId));\r\n    // get the token's owner\r\n    address tokenOwner = ownerOf(_tokenId);\r\n    // check that token's owner should be equal to the caller of the function\r\n    require(tokenOwner == msg.sender);\r\n    // get that token from all crypto boys mapping and create a memory of it defined as (struct => CryptoBoy)\r\n    CryptoBoy memory cryptoboy = allCryptoBoys[_tokenId];\r\n    // update token's price with new price\r\n    cryptoboy.price = _newPrice;\r\n    // set and update that token in the mapping\r\n    allCryptoBoys[_tokenId] = cryptoboy;\r\n  }\r\n\r\n  // switch between set for sale and set not for sale\r\n  function toggleForSale(uint256 _tokenId) public {\r\n    // require caller of the function is not an empty address\r\n    require(msg.sender != address(0));\r\n    // require that token should exist\r\n    require(_exists(_tokenId));\r\n    // get the token's owner\r\n    address tokenOwner = ownerOf(_tokenId);\r\n    // check that token's owner should be equal to the caller of the function\r\n    require(tokenOwner == msg.sender);\r\n    // get that token from all crypto boys mapping and create a memory of it defined as (struct => CryptoBoy)\r\n    CryptoBoy memory cryptoboy = allCryptoBoys[_tokenId];\r\n    // if token's forSale is false make it true and vice versa\r\n    if(cryptoboy.forSale) {\r\n      cryptoboy.forSale = false;\r\n    } else {\r\n      cryptoboy.forSale = true;\r\n    }\r\n    // set and update that token in the mapping\r\n    allCryptoBoys[_tokenId] = cryptoboy;\r\n  }\r\n}",
  "sourcePath": "C:\\Users\\Matebook X\\Desktop\\CrytoBoi\\cryptoboys-NFT-marketplace\\src\\contracts\\CryptoBoys.sol",
  "compiler": {
    "name": "solc",
    "version": "0.8.15+commit.e14f2714.Emscripten.clang"
  },
  "schemaVersion": "3.4.4",
  "updatedAt": "2022-06-26T11:00:25.529Z",
  "devdoc": {
    "kind": "dev",
    "methods": {
      "approve(address,uint256)": {
        "details": "See {IERC721-approve}."
      },
      "balanceOf(address)": {
        "details": "See {IERC721-balanceOf}."
      },
      "baseURI()": {
        "details": "Returns the base URI set via {_setBaseURI}. This will be automatically added as a prefix in {tokenURI} to each token's URI, or to the token ID if no specific URI is set for that token ID."
      },
      "getApproved(uint256)": {
        "details": "See {IERC721-getApproved}."
      },
      "isApprovedForAll(address,address)": {
        "details": "See {IERC721-isApprovedForAll}."
      },
      "name()": {
        "details": "See {IERC721Metadata-name}."
      },
      "ownerOf(uint256)": {
        "details": "See {IERC721-ownerOf}."
      },
      "safeTransferFrom(address,address,uint256)": {
        "details": "See {IERC721-safeTransferFrom}."
      },
      "safeTransferFrom(address,address,uint256,bytes)": {
        "details": "See {IERC721-safeTransferFrom}."
      },
      "setApprovalForAll(address,bool)": {
        "details": "See {IERC721-setApprovalForAll}."
      },
      "supportsInterface(bytes4)": {
        "details": "See {IERC165-supportsInterface}. Time complexity O(1), guaranteed to always use less than 30 000 gas."
      },
      "symbol()": {
        "details": "See {IERC721Metadata-symbol}."
      },
      "tokenByIndex(uint256)": {
        "details": "See {IERC721Enumerable-tokenByIndex}."
      },
      "tokenOfOwnerByIndex(address,uint256)": {
        "details": "See {IERC721Enumerable-tokenOfOwnerByIndex}."
      },
      "tokenURI(uint256)": {
        "details": "See {IERC721Metadata-tokenURI}."
      },
      "totalSupply()": {
        "details": "See {IERC721Enumerable-totalSupply}."
      },
      "transferFrom(address,address,uint256)": {
        "details": "See {IERC721-transferFrom}."
      }
    },
    "version": 1
  },
  "userdoc": {
    "kind": "user",
    "methods": {},
    "version": 1
  }
}