{
  "contractName": "NFT",
  "abi": [
    {
      "inputs": [
        {
          "internalType": "address",
          "name": "marketplaceAddress",
          "type": "address"
        },
        {
          "internalType": "address",
          "name": "auctionAdd",
          "type": "address"
        }
      ],
      "stateMutability": "nonpayable",
      "type": "constructor"
    },
    {
      "anonymous": false,
      "inputs": [
        {
          "indexed": true,
          "internalType": "address",
          "name": "owner",
          "type": "address"
        },
        {
          "indexed": true,
          "internalType": "address",
          "name": "approved",
          "type": "address"
        },
        {
          "indexed": true,
          "internalType": "uint256",
          "name": "tokenId",
          "type": "uint256"
        }
      ],
      "name": "Approval",
      "type": "event"
    },
    {
      "anonymous": false,
      "inputs": [
        {
          "indexed": true,
          "internalType": "address",
          "name": "owner",
          "type": "address"
        },
        {
          "indexed": true,
          "internalType": "address",
          "name": "operator",
          "type": "address"
        },
        {
          "indexed": false,
          "internalType": "bool",
          "name": "approved",
          "type": "bool"
        }
      ],
      "name": "ApprovalForAll",
      "type": "event"
    },
    {
      "anonymous": false,
      "inputs": [
        {
          "indexed": false,
          "internalType": "uint256",
          "name": "tokenId",
          "type": "uint256"
        }
      ],
      "name": "Mint",
      "type": "event"
    },
    {
      "anonymous": false,
      "inputs": [
        {
          "indexed": true,
          "internalType": "address",
          "name": "from",
          "type": "address"
        },
        {
          "indexed": true,
          "internalType": "address",
          "name": "to",
          "type": "address"
        },
        {
          "indexed": true,
          "internalType": "uint256",
          "name": "tokenId",
          "type": "uint256"
        }
      ],
      "name": "Transfer",
      "type": "event"
    },
    {
      "inputs": [
        {
          "internalType": "address",
          "name": "to",
          "type": "address"
        },
        {
          "internalType": "uint256",
          "name": "tokenId",
          "type": "uint256"
        }
      ],
      "name": "approve",
      "outputs": [],
      "stateMutability": "nonpayable",
      "type": "function"
    },
    {
      "inputs": [
        {
          "internalType": "address",
          "name": "owner",
          "type": "address"
        }
      ],
      "name": "balanceOf",
      "outputs": [
        {
          "internalType": "uint256",
          "name": "",
          "type": "uint256"
        }
      ],
      "stateMutability": "view",
      "type": "function",
      "constant": true
    },
    {
      "inputs": [
        {
          "internalType": "uint256",
          "name": "tokenId",
          "type": "uint256"
        }
      ],
      "name": "getApproved",
      "outputs": [
        {
          "internalType": "address",
          "name": "",
          "type": "address"
        }
      ],
      "stateMutability": "view",
      "type": "function",
      "constant": true
    },
    {
      "inputs": [
        {
          "internalType": "address",
          "name": "owner",
          "type": "address"
        },
        {
          "internalType": "address",
          "name": "operator",
          "type": "address"
        }
      ],
      "name": "isApprovedForAll",
      "outputs": [
        {
          "internalType": "bool",
          "name": "",
          "type": "bool"
        }
      ],
      "stateMutability": "view",
      "type": "function",
      "constant": true
    },
    {
      "inputs": [],
      "name": "name",
      "outputs": [
        {
          "internalType": "string",
          "name": "",
          "type": "string"
        }
      ],
      "stateMutability": "view",
      "type": "function",
      "constant": true
    },
    {
      "inputs": [
        {
          "internalType": "uint256",
          "name": "tokenId",
          "type": "uint256"
        }
      ],
      "name": "ownerOf",
      "outputs": [
        {
          "internalType": "address",
          "name": "",
          "type": "address"
        }
      ],
      "stateMutability": "view",
      "type": "function",
      "constant": true
    },
    {
      "inputs": [
        {
          "internalType": "address",
          "name": "from",
          "type": "address"
        },
        {
          "internalType": "address",
          "name": "to",
          "type": "address"
        },
        {
          "internalType": "uint256",
          "name": "tokenId",
          "type": "uint256"
        }
      ],
      "name": "safeTransferFrom",
      "outputs": [],
      "stateMutability": "nonpayable",
      "type": "function"
    },
    {
      "inputs": [
        {
          "internalType": "address",
          "name": "from",
          "type": "address"
        },
        {
          "internalType": "address",
          "name": "to",
          "type": "address"
        },
        {
          "internalType": "uint256",
          "name": "tokenId",
          "type": "uint256"
        },
        {
          "internalType": "bytes",
          "name": "_data",
          "type": "bytes"
        }
      ],
      "name": "safeTransferFrom",
      "outputs": [],
      "stateMutability": "nonpayable",
      "type": "function"
    },
    {
      "inputs": [
        {
          "internalType": "address",
          "name": "operator",
          "type": "address"
        },
        {
          "internalType": "bool",
          "name": "approved",
          "type": "bool"
        }
      ],
      "name": "setApprovalForAll",
      "outputs": [],
      "stateMutability": "nonpayable",
      "type": "function"
    },
    {
      "inputs": [
        {
          "internalType": "bytes4",
          "name": "interfaceId",
          "type": "bytes4"
        }
      ],
      "name": "supportsInterface",
      "outputs": [
        {
          "internalType": "bool",
          "name": "",
          "type": "bool"
        }
      ],
      "stateMutability": "view",
      "type": "function",
      "constant": true
    },
    {
      "inputs": [],
      "name": "symbol",
      "outputs": [
        {
          "internalType": "string",
          "name": "",
          "type": "string"
        }
      ],
      "stateMutability": "view",
      "type": "function",
      "constant": true
    },
    {
      "inputs": [
        {
          "internalType": "uint256",
          "name": "tokenId",
          "type": "uint256"
        }
      ],
      "name": "tokenURI",
      "outputs": [
        {
          "internalType": "string",
          "name": "",
          "type": "string"
        }
      ],
      "stateMutability": "view",
      "type": "function",
      "constant": true
    },
    {
      "inputs": [
        {
          "internalType": "address",
          "name": "from",
          "type": "address"
        },
        {
          "internalType": "address",
          "name": "to",
          "type": "address"
        },
        {
          "internalType": "uint256",
          "name": "tokenId",
          "type": "uint256"
        }
      ],
      "name": "transferFrom",
      "outputs": [],
      "stateMutability": "nonpayable",
      "type": "function"
    },
    {
      "inputs": [
        {
          "internalType": "string",
          "name": "tokenURI",
          "type": "string"
        }
      ],
      "name": "createToken",
      "outputs": [
        {
          "internalType": "uint256",
          "name": "",
          "type": "uint256"
        }
      ],
      "stateMutability": "nonpayable",
      "type": "function"
    },
    {
      "inputs": [
        {
          "internalType": "uint256",
          "name": "tokenId",
          "type": "uint256"
        }
      ],
      "name": "giveResaleApproval",
      "outputs": [],
      "stateMutability": "nonpayable",
      "type": "function"
    }
  ],
  "bytecode": "0x60806040523480156200001157600080fd5b5060405162003509380380620035098339818101604052810190620000379190620001bd565b6040518060400160405280600c81526020017f4875666c697420546f6b656e00000000000000000000000000000000000000008152506040518060400160405280600481526020017f48554654000000000000000000000000000000000000000000000000000000008152508160009081620000b491906200047e565b508060019081620000c691906200047e565b50505081600860006101000a81548173ffffffffffffffffffffffffffffffffffffffff021916908373ffffffffffffffffffffffffffffffffffffffff16021790555080600960006101000a81548173ffffffffffffffffffffffffffffffffffffffff021916908373ffffffffffffffffffffffffffffffffffffffff160217905550505062000565565b600080fd5b600073ffffffffffffffffffffffffffffffffffffffff82169050919050565b6000620001858262000158565b9050919050565b620001978162000178565b8114620001a357600080fd5b50565b600081519050620001b7816200018c565b92915050565b60008060408385031215620001d757620001d662000153565b5b6000620001e785828601620001a6565b9250506020620001fa85828601620001a6565b9150509250929050565b600081519050919050565b7f4e487b7100000000000000000000000000000000000000000000000000000000600052604160045260246000fd5b7f4e487b7100000000000000000000000000000000000000000000000000000000600052602260045260246000fd5b600060028204905060018216806200028657607f821691505b6020821081036200029c576200029b6200023e565b5b50919050565b60008190508160005260206000209050919050565b60006020601f8301049050919050565b600082821b905092915050565b600060088302620003067fffffffffffffffffffffffffffffffffffffffffffffffffffffffffffffffff82620002c7565b620003128683620002c7565b95508019841693508086168417925050509392505050565b6000819050919050565b6000819050919050565b60006200035f6200035962000353846200032a565b62000334565b6200032a565b9050919050565b6000819050919050565b6200037b836200033e565b620003936200038a8262000366565b848454620002d4565b825550505050565b600090565b620003aa6200039b565b620003b781848462000370565b505050565b5b81811015620003df57620003d3600082620003a0565b600181019050620003bd565b5050565b601f8211156200042e57620003f881620002a2565b6200040384620002b7565b8101602085101562000413578190505b6200042b6200042285620002b7565b830182620003bc565b50505b505050565b600082821c905092915050565b6000620004536000198460080262000433565b1980831691505092915050565b60006200046e838362000440565b9150826002028217905092915050565b620004898262000204565b67ffffffffffffffff811115620004a557620004a46200020f565b5b620004b182546200026d565b620004be828285620003e3565b600060209050601f831160018114620004f65760008415620004e1578287015190505b620004ed858262000460565b8655506200055d565b601f1984166200050686620002a2565b60005b82811015620005305784890151825560018201915060208501945060208101905062000509565b868310156200055057848901516200054c601f89168262000440565b8355505b6001600288020188555050505b505050505050565b612f9480620005756000396000f3fe608060405234801561001057600080fd5b50600436106100f55760003560e01c80636352211e11610097578063a22cb46511610066578063a22cb46514610296578063b88d4fde146102b2578063c87b56dd146102ce578063e985e9c5146102fe576100f5565b80636352211e146101fc57806370a082311461022c5780637e78146c1461025c57806395d89b4114610278576100f5565b8063095ea7b3116100d3578063095ea7b31461017857806323b872dd1461019457806342842e0e146101b057806345576f94146101cc576100f5565b806301ffc9a7146100fa57806306fdde031461012a578063081812fc14610148575b600080fd5b610114600480360381019061010f91906119fb565b61032e565b6040516101219190611a43565b60405180910390f35b610132610410565b60405161013f9190611af7565b60405180910390f35b610162600480360381019061015d9190611b4f565b6104a2565b60405161016f9190611bbd565b60405180910390f35b610192600480360381019061018d9190611c04565b610527565b005b6101ae60048036038101906101a99190611c44565b61063e565b005b6101ca60048036038101906101c59190611c44565b61069e565b005b6101e660048036038101906101e19190611dcc565b6106be565b6040516101f39190611e24565b60405180910390f35b61021660048036038101906102119190611b4f565b610786565b6040516102239190611bbd565b60405180910390f35b61024660048036038101906102419190611e3f565b610837565b6040516102539190611e24565b60405180910390f35b61027660048036038101906102719190611b4f565b6108ee565b005b6102806109c1565b60405161028d9190611af7565b60405180910390f35b6102b060048036038101906102ab9190611e98565b610a53565b005b6102cc60048036038101906102c79190611f79565b610a69565b005b6102e860048036038101906102e39190611b4f565b610acb565b6040516102f59190611af7565b60405180910390f35b61031860048036038101906103139190611ffc565b610c1c565b6040516103259190611a43565b60405180910390f35b60007f80ac58cd000000000000000000000000000000000000000000000000000000007bffffffffffffffffffffffffffffffffffffffffffffffffffffffff1916827bffffffffffffffffffffffffffffffffffffffffffffffffffffffff191614806103f957507f5b5e139f000000000000000000000000000000000000000000000000000000007bffffffffffffffffffffffffffffffffffffffffffffffffffffffff1916827bffffffffffffffffffffffffffffffffffffffffffffffffffffffff1916145b80610409575061040882610cb0565b5b9050919050565b60606000805461041f9061206b565b80601f016020809104026020016040519081016040528092919081815260200182805461044b9061206b565b80156104985780601f1061046d57610100808354040283529160200191610498565b820191906000526020600020905b81548152906001019060200180831161047b57829003601f168201915b5050505050905090565b60006104ad82610d1a565b6104ec576040517f08c379a00000000000000000000000000000000000000000000000000000000081526004016104e39061210e565b60405180910390fd5b6004600083815260200190815260200160002060009054906101000a900473ffffffffffffffffffffffffffffffffffffffff169050919050565b600061053282610786565b90508073ffffffffffffffffffffffffffffffffffffffff168373ffffffffffffffffffffffffffffffffffffffff16036105a2576040517f08c379a0000000000000000000000000000000000000000000000000000000008152600401610599906121a0565b60405180910390fd5b8073ffffffffffffffffffffffffffffffffffffffff166105c1610d86565b73ffffffffffffffffffffffffffffffffffffffff1614806105f057506105ef816105ea610d86565b610c1c565b5b61062f576040517f08c379a000000000000000000000000000000000000000000000000000000000815260040161062690612232565b60405180910390fd5b6106398383610d8e565b505050565b61064f610649610d86565b82610e47565b61068e576040517f08c379a0000000000000000000000000000000000000000000000000000000008152600401610685906122c4565b60405180910390fd5b610699838383610f25565b505050565b6106b983838360405180602001604052806000815250610a69565b505050565b60006106ca600761118b565b60006106d660076111a1565b90506106e233826111af565b6106ec8184611388565b610719600860009054906101000a900473ffffffffffffffffffffffffffffffffffffffff166001610a53565b610746600960009054906101000a900473ffffffffffffffffffffffffffffffffffffffff166001610a53565b7f07883703ed0e86588a40d76551c92f8a4b329e3bf19765e0e6749473c1a84665816040516107759190611e24565b60405180910390a180915050919050565b6000806002600084815260200190815260200160002060009054906101000a900473ffffffffffffffffffffffffffffffffffffffff169050600073ffffffffffffffffffffffffffffffffffffffff168173ffffffffffffffffffffffffffffffffffffffff160361082e576040517f08c379a000000000000000000000000000000000000000000000000000000000815260040161082590612356565b60405180910390fd5b80915050919050565b60008073ffffffffffffffffffffffffffffffffffffffff168273ffffffffffffffffffffffffffffffffffffffff16036108a7576040517f08c379a000000000000000000000000000000000000000000000000000000000815260040161089e906123e8565b60405180910390fd5b600360008373ffffffffffffffffffffffffffffffffffffffff1673ffffffffffffffffffffffffffffffffffffffff168152602001908152602001600020549050919050565b3373ffffffffffffffffffffffffffffffffffffffff1661090e82610786565b73ffffffffffffffffffffffffffffffffffffffff1614610964576040517f08c379a000000000000000000000000000000000000000000000000000000000815260040161095b9061247a565b60405180910390fd5b610991600860009054906101000a900473ffffffffffffffffffffffffffffffffffffffff166001610a53565b6109be600960009054906101000a900473ffffffffffffffffffffffffffffffffffffffff166001610a53565b50565b6060600180546109d09061206b565b80601f01602080910402602001604051908101604052809291908181526020018280546109fc9061206b565b8015610a495780601f10610a1e57610100808354040283529160200191610a49565b820191906000526020600020905b815481529060010190602001808311610a2c57829003601f168201915b5050505050905090565b610a65610a5e610d86565b83836113f5565b5050565b610a7a610a74610d86565b83610e47565b610ab9576040517f08c379a0000000000000000000000000000000000000000000000000000000008152600401610ab0906122c4565b60405180910390fd5b610ac584848484611561565b50505050565b6060610ad682610d1a565b610b15576040517f08c379a0000000000000000000000000000000000000000000000000000000008152600401610b0c9061250c565b60405180910390fd5b6000600660008481526020019081526020016000208054610b359061206b565b80601f0160208091040260200160405190810160405280929190818152602001828054610b619061206b565b8015610bae5780601f10610b8357610100808354040283529160200191610bae565b820191906000526020600020905b815481529060010190602001808311610b9157829003601f168201915b505050505090506000610bbf6115bd565b90506000815103610bd4578192505050610c17565b600082511115610c09578082604051602001610bf1929190612568565b60405160208183030381529060405292505050610c17565b610c12846115d4565b925050505b919050565b6000600560008473ffffffffffffffffffffffffffffffffffffffff1673ffffffffffffffffffffffffffffffffffffffff16815260200190815260200160002060008373ffffffffffffffffffffffffffffffffffffffff1673ffffffffffffffffffffffffffffffffffffffff16815260200190815260200160002060009054906101000a900460ff16905092915050565b60007f01ffc9a7000000000000000000000000000000000000000000000000000000007bffffffffffffffffffffffffffffffffffffffffffffffffffffffff1916827bffffffffffffffffffffffffffffffffffffffffffffffffffffffff1916149050919050565b60008073ffffffffffffffffffffffffffffffffffffffff166002600084815260200190815260200160002060009054906101000a900473ffffffffffffffffffffffffffffffffffffffff1673ffffffffffffffffffffffffffffffffffffffff1614159050919050565b600033905090565b816004600083815260200190815260200160002060006101000a81548173ffffffffffffffffffffffffffffffffffffffff021916908373ffffffffffffffffffffffffffffffffffffffff160217905550808273ffffffffffffffffffffffffffffffffffffffff16610e0183610786565b73ffffffffffffffffffffffffffffffffffffffff167f8c5be1e5ebec7d5bd14f71427d1e84f3dd0314c0f7b2291e5b200ac8c7c3b92560405160405180910390a45050565b6000610e5282610d1a565b610e91576040517f08c379a0000000000000000000000000000000000000000000000000000000008152600401610e88906125fe565b60405180910390fd5b6000610e9c83610786565b90508073ffffffffffffffffffffffffffffffffffffffff168473ffffffffffffffffffffffffffffffffffffffff161480610f0b57508373ffffffffffffffffffffffffffffffffffffffff16610ef3846104a2565b73ffffffffffffffffffffffffffffffffffffffff16145b80610f1c5750610f1b8185610c1c565b5b91505092915050565b8273ffffffffffffffffffffffffffffffffffffffff16610f4582610786565b73ffffffffffffffffffffffffffffffffffffffff1614610f9b576040517f08c379a0000000000000000000000000000000000000000000000000000000008152600401610f9290612690565b60405180910390fd5b600073ffffffffffffffffffffffffffffffffffffffff168273ffffffffffffffffffffffffffffffffffffffff160361100a576040517f08c379a000000000000000000000000000000000000000000000000000000000815260040161100190612722565b60405180910390fd5b61101583838361167b565b611020600082610d8e565b6001600360008573ffffffffffffffffffffffffffffffffffffffff1673ffffffffffffffffffffffffffffffffffffffff16815260200190815260200160002060008282546110709190612771565b925050819055506001600360008473ffffffffffffffffffffffffffffffffffffffff1673ffffffffffffffffffffffffffffffffffffffff16815260200190815260200160002060008282546110c791906127a5565b92505081905550816002600083815260200190815260200160002060006101000a81548173ffffffffffffffffffffffffffffffffffffffff021916908373ffffffffffffffffffffffffffffffffffffffff160217905550808273ffffffffffffffffffffffffffffffffffffffff168473ffffffffffffffffffffffffffffffffffffffff167fddf252ad1be2c89b69c2b068fc378daa952ba7f163c4a11628f55a4df523b3ef60405160405180910390a4611186838383611680565b505050565b6001816000016000828254019250508190555050565b600081600001549050919050565b600073ffffffffffffffffffffffffffffffffffffffff168273ffffffffffffffffffffffffffffffffffffffff160361121e576040517f08c379a000000000000000000000000000000000000000000000000000000000815260040161121590612847565b60405180910390fd5b61122781610d1a565b15611267576040517f08c379a000000000000000000000000000000000000000000000000000000000815260040161125e906128b3565b60405180910390fd5b6112736000838361167b565b6001600360008473ffffffffffffffffffffffffffffffffffffffff1673ffffffffffffffffffffffffffffffffffffffff16815260200190815260200160002060008282546112c391906127a5565b92505081905550816002600083815260200190815260200160002060006101000a81548173ffffffffffffffffffffffffffffffffffffffff021916908373ffffffffffffffffffffffffffffffffffffffff160217905550808273ffffffffffffffffffffffffffffffffffffffff16600073ffffffffffffffffffffffffffffffffffffffff167fddf252ad1be2c89b69c2b068fc378daa952ba7f163c4a11628f55a4df523b3ef60405160405180910390a461138460008383611680565b5050565b61139182610d1a565b6113d0576040517f08c379a00000000000000000000000000000000000000000000000000000000081526004016113c790612945565b60405180910390fd5b806006600084815260200190815260200160002090816113f09190612b11565b505050565b8173ffffffffffffffffffffffffffffffffffffffff168373ffffffffffffffffffffffffffffffffffffffff1603611463576040517f08c379a000000000000000000000000000000000000000000000000000000000815260040161145a90612c2f565b60405180910390fd5b80600560008573ffffffffffffffffffffffffffffffffffffffff1673ffffffffffffffffffffffffffffffffffffffff16815260200190815260200160002060008473ffffffffffffffffffffffffffffffffffffffff1673ffffffffffffffffffffffffffffffffffffffff16815260200190815260200160002060006101000a81548160ff0219169083151502179055508173ffffffffffffffffffffffffffffffffffffffff168373ffffffffffffffffffffffffffffffffffffffff167f17307eab39ab6107e8899845ad3d59bd9653f200f220920489ca2b5937696c31836040516115549190611a43565b60405180910390a3505050565b61156c848484610f25565b61157884848484611685565b6115b7576040517f08c379a00000000000000000000000000000000000000000000000000000000081526004016115ae90612cc1565b60405180910390fd5b50505050565b606060405180602001604052806000815250905090565b60606115df82610d1a565b61161e576040517f08c379a000000000000000000000000000000000000000000000000000000000815260040161161590612d53565b60405180910390fd5b60006116286115bd565b905060008151116116485760405180602001604052806000815250611673565b806116528461180c565b604051602001611663929190612568565b6040516020818303038152906040525b915050919050565b505050565b505050565b60006116a68473ffffffffffffffffffffffffffffffffffffffff1661196c565b156117ff578373ffffffffffffffffffffffffffffffffffffffff1663150b7a026116cf610d86565b8786866040518563ffffffff1660e01b81526004016116f19493929190612dc8565b6020604051808303816000875af192505050801561172d57506040513d601f19601f8201168201806040525081019061172a9190612e29565b60015b6117af573d806000811461175d576040519150601f19603f3d011682016040523d82523d6000602084013e611762565b606091505b5060008151036117a7576040517f08c379a000000000000000000000000000000000000000000000000000000000815260040161179e90612cc1565b60405180910390fd5b805181602001fd5b63150b7a0260e01b7bffffffffffffffffffffffffffffffffffffffffffffffffffffffff1916817bffffffffffffffffffffffffffffffffffffffffffffffffffffffff191614915050611804565b600190505b949350505050565b606060008203611853576040518060400160405280600181526020017f30000000000000000000000000000000000000000000000000000000000000008152509050611967565b600082905060005b6000821461188557808061186e90612e56565b915050600a8261187e9190612ecd565b915061185b565b60008167ffffffffffffffff8111156118a1576118a0611ca1565b5b6040519080825280601f01601f1916602001820160405280156118d35781602001600182028036833780820191505090505b5090505b60008514611960576001826118ec9190612771565b9150600a856118fb9190612efe565b603061190791906127a5565b60f81b81838151811061191d5761191c612f2f565b5b60200101907effffffffffffffffffffffffffffffffffffffffffffffffffffffffffffff1916908160001a905350600a856119599190612ecd565b94506118d7565b8093505050505b919050565b6000808273ffffffffffffffffffffffffffffffffffffffff163b119050919050565b6000604051905090565b600080fd5b600080fd5b60007fffffffff0000000000000000000000000000000000000000000000000000000082169050919050565b6119d8816119a3565b81146119e357600080fd5b50565b6000813590506119f5816119cf565b92915050565b600060208284031215611a1157611a10611999565b5b6000611a1f848285016119e6565b91505092915050565b60008115159050919050565b611a3d81611a28565b82525050565b6000602082019050611a586000830184611a34565b92915050565b600081519050919050565b600082825260208201905092915050565b60005b83811015611a98578082015181840152602081019050611a7d565b83811115611aa7576000848401525b50505050565b6000601f19601f8301169050919050565b6000611ac982611a5e565b611ad38185611a69565b9350611ae3818560208601611a7a565b611aec81611aad565b840191505092915050565b60006020820190508181036000830152611b118184611abe565b905092915050565b6000819050919050565b611b2c81611b19565b8114611b3757600080fd5b50565b600081359050611b4981611b23565b92915050565b600060208284031215611b6557611b64611999565b5b6000611b7384828501611b3a565b91505092915050565b600073ffffffffffffffffffffffffffffffffffffffff82169050919050565b6000611ba782611b7c565b9050919050565b611bb781611b9c565b82525050565b6000602082019050611bd26000830184611bae565b92915050565b611be181611b9c565b8114611bec57600080fd5b50565b600081359050611bfe81611bd8565b92915050565b60008060408385031215611c1b57611c1a611999565b5b6000611c2985828601611bef565b9250506020611c3a85828601611b3a565b9150509250929050565b600080600060608486031215611c5d57611c5c611999565b5b6000611c6b86828701611bef565b9350506020611c7c86828701611bef565b9250506040611c8d86828701611b3a565b9150509250925092565b600080fd5b600080fd5b7f4e487b7100000000000000000000000000000000000000000000000000000000600052604160045260246000fd5b611cd982611aad565b810181811067ffffffffffffffff82111715611cf857611cf7611ca1565b5b80604052505050565b6000611d0b61198f565b9050611d178282611cd0565b919050565b600067ffffffffffffffff821115611d3757611d36611ca1565b5b611d4082611aad565b9050602081019050919050565b82818337600083830152505050565b6000611d6f611d6a84611d1c565b611d01565b905082815260208101848484011115611d8b57611d8a611c9c565b5b611d96848285611d4d565b509392505050565b600082601f830112611db357611db2611c97565b5b8135611dc3848260208601611d5c565b91505092915050565b600060208284031215611de257611de1611999565b5b600082013567ffffffffffffffff811115611e0057611dff61199e565b5b611e0c84828501611d9e565b91505092915050565b611e1e81611b19565b82525050565b6000602082019050611e396000830184611e15565b92915050565b600060208284031215611e5557611e54611999565b5b6000611e6384828501611bef565b91505092915050565b611e7581611a28565b8114611e8057600080fd5b50565b600081359050611e9281611e6c565b92915050565b60008060408385031215611eaf57611eae611999565b5b6000611ebd85828601611bef565b9250506020611ece85828601611e83565b9150509250929050565b600067ffffffffffffffff821115611ef357611ef2611ca1565b5b611efc82611aad565b9050602081019050919050565b6000611f1c611f1784611ed8565b611d01565b905082815260208101848484011115611f3857611f37611c9c565b5b611f43848285611d4d565b509392505050565b600082601f830112611f6057611f5f611c97565b5b8135611f70848260208601611f09565b91505092915050565b60008060008060808587031215611f9357611f92611999565b5b6000611fa187828801611bef565b9450506020611fb287828801611bef565b9350506040611fc387828801611b3a565b925050606085013567ffffffffffffffff811115611fe457611fe361199e565b5b611ff087828801611f4b565b91505092959194509250565b6000806040838503121561201357612012611999565b5b600061202185828601611bef565b925050602061203285828601611bef565b9150509250929050565b7f4e487b7100000000000000000000000000000000000000000000000000000000600052602260045260246000fd5b6000600282049050600182168061208357607f821691505b6020821081036120965761209561203c565b5b50919050565b7f4552433732313a20617070726f76656420717565727920666f72206e6f6e657860008201527f697374656e7420746f6b656e0000000000000000000000000000000000000000602082015250565b60006120f8602c83611a69565b91506121038261209c565b604082019050919050565b60006020820190508181036000830152612127816120eb565b9050919050565b7f4552433732313a20617070726f76616c20746f2063757272656e74206f776e6560008201527f7200000000000000000000000000000000000000000000000000000000000000602082015250565b600061218a602183611a69565b91506121958261212e565b604082019050919050565b600060208201905081810360008301526121b98161217d565b9050919050565b7f4552433732313a20617070726f76652063616c6c6572206973206e6f74206f7760008201527f6e6572206e6f7220617070726f76656420666f7220616c6c0000000000000000602082015250565b600061221c603883611a69565b9150612227826121c0565b604082019050919050565b6000602082019050818103600083015261224b8161220f565b9050919050565b7f4552433732313a207472616e736665722063616c6c6572206973206e6f74206f60008201527f776e6572206e6f7220617070726f766564000000000000000000000000000000602082015250565b60006122ae603183611a69565b91506122b982612252565b604082019050919050565b600060208201905081810360008301526122dd816122a1565b9050919050565b7f4552433732313a206f776e657220717565727920666f72206e6f6e657869737460008201527f656e7420746f6b656e0000000000000000000000000000000000000000000000602082015250565b6000612340602983611a69565b915061234b826122e4565b604082019050919050565b6000602082019050818103600083015261236f81612333565b9050919050565b7f4552433732313a2062616c616e636520717565727920666f7220746865207a6560008201527f726f206164647265737300000000000000000000000000000000000000000000602082015250565b60006123d2602a83611a69565b91506123dd82612376565b604082019050919050565b60006020820190508181036000830152612401816123c5565b9050919050565b7f596f75206d757374206f776e2074686973204e465420696e206f72646572207460008201527f6f20726573656c6c206974000000000000000000000000000000000000000000602082015250565b6000612464602b83611a69565b915061246f82612408565b604082019050919050565b6000602082019050818103600083015261249381612457565b9050919050565b7f45524337323155524953746f726167653a2055524920717565727920666f722060008201527f6e6f6e6578697374656e7420746f6b656e000000000000000000000000000000602082015250565b60006124f6603183611a69565b91506125018261249a565b604082019050919050565b60006020820190508181036000830152612525816124e9565b9050919050565b600081905092915050565b600061254282611a5e565b61254c818561252c565b935061255c818560208601611a7a565b80840191505092915050565b60006125748285612537565b91506125808284612537565b91508190509392505050565b7f4552433732313a206f70657261746f7220717565727920666f72206e6f6e657860008201527f697374656e7420746f6b656e0000000000000000000000000000000000000000602082015250565b60006125e8602c83611a69565b91506125f38261258c565b604082019050919050565b60006020820190508181036000830152612617816125db565b9050919050565b7f4552433732313a207472616e736665722066726f6d20696e636f72726563742060008201527f6f776e6572000000000000000000000000000000000000000000000000000000602082015250565b600061267a602583611a69565b91506126858261261e565b604082019050919050565b600060208201905081810360008301526126a98161266d565b9050919050565b7f4552433732313a207472616e7366657220746f20746865207a65726f2061646460008201527f7265737300000000000000000000000000000000000000000000000000000000602082015250565b600061270c602483611a69565b9150612717826126b0565b604082019050919050565b6000602082019050818103600083015261273b816126ff565b9050919050565b7f4e487b7100000000000000000000000000000000000000000000000000000000600052601160045260246000fd5b600061277c82611b19565b915061278783611b19565b92508282101561279a57612799612742565b5b828203905092915050565b60006127b082611b19565b91506127bb83611b19565b9250827fffffffffffffffffffffffffffffffffffffffffffffffffffffffffffffffff038211156127f0576127ef612742565b5b828201905092915050565b7f4552433732313a206d696e7420746f20746865207a65726f2061646472657373600082015250565b6000612831602083611a69565b915061283c826127fb565b602082019050919050565b6000602082019050818103600083015261286081612824565b9050919050565b7f4552433732313a20746f6b656e20616c7265616479206d696e74656400000000600082015250565b600061289d601c83611a69565b91506128a882612867565b602082019050919050565b600060208201905081810360008301526128cc81612890565b9050919050565b7f45524337323155524953746f726167653a2055524920736574206f66206e6f6e60008201527f6578697374656e7420746f6b656e000000000000000000000000000000000000602082015250565b600061292f602e83611a69565b915061293a826128d3565b604082019050919050565b6000602082019050818103600083015261295e81612922565b9050919050565b60008190508160005260206000209050919050565b60006020601f8301049050919050565b600082821b905092915050565b6000600883026129c77fffffffffffffffffffffffffffffffffffffffffffffffffffffffffffffffff8261298a565b6129d1868361298a565b95508019841693508086168417925050509392505050565b6000819050919050565b6000612a0e612a09612a0484611b19565b6129e9565b611b19565b9050919050565b6000819050919050565b612a28836129f3565b612a3c612a3482612a15565b848454612997565b825550505050565b600090565b612a51612a44565b612a5c818484612a1f565b505050565b5b81811015612a8057612a75600082612a49565b600181019050612a62565b5050565b601f821115612ac557612a9681612965565b612a9f8461297a565b81016020851015612aae578190505b612ac2612aba8561297a565b830182612a61565b50505b505050565b600082821c905092915050565b6000612ae860001984600802612aca565b1980831691505092915050565b6000612b018383612ad7565b9150826002028217905092915050565b612b1a82611a5e565b67ffffffffffffffff811115612b3357612b32611ca1565b5b612b3d825461206b565b612b48828285612a84565b600060209050601f831160018114612b7b5760008415612b69578287015190505b612b738582612af5565b865550612bdb565b601f198416612b8986612965565b60005b82811015612bb157848901518255600182019150602085019450602081019050612b8c565b86831015612bce5784890151612bca601f891682612ad7565b8355505b6001600288020188555050505b505050505050565b7f4552433732313a20617070726f766520746f2063616c6c657200000000000000600082015250565b6000612c19601983611a69565b9150612c2482612be3565b602082019050919050565b60006020820190508181036000830152612c4881612c0c565b9050919050565b7f4552433732313a207472616e7366657220746f206e6f6e20455243373231526560008201527f63656976657220696d706c656d656e7465720000000000000000000000000000602082015250565b6000612cab603283611a69565b9150612cb682612c4f565b604082019050919050565b60006020820190508181036000830152612cda81612c9e565b9050919050565b7f4552433732314d657461646174613a2055524920717565727920666f72206e6f60008201527f6e6578697374656e7420746f6b656e0000000000000000000000000000000000602082015250565b6000612d3d602f83611a69565b9150612d4882612ce1565b604082019050919050565b60006020820190508181036000830152612d6c81612d30565b9050919050565b600081519050919050565b600082825260208201905092915050565b6000612d9a82612d73565b612da48185612d7e565b9350612db4818560208601611a7a565b612dbd81611aad565b840191505092915050565b6000608082019050612ddd6000830187611bae565b612dea6020830186611bae565b612df76040830185611e15565b8181036060830152612e098184612d8f565b905095945050505050565b600081519050612e23816119cf565b92915050565b600060208284031215612e3f57612e3e611999565b5b6000612e4d84828501612e14565b91505092915050565b6000612e6182611b19565b91507fffffffffffffffffffffffffffffffffffffffffffffffffffffffffffffffff8203612e9357612e92612742565b5b600182019050919050565b7f4e487b7100000000000000000000000000000000000000000000000000000000600052601260045260246000fd5b6000612ed882611b19565b9150612ee383611b19565b925082612ef357612ef2612e9e565b5b828204905092915050565b6000612f0982611b19565b9150612f1483611b19565b925082612f2457612f23612e9e565b5b828206905092915050565b7f4e487b7100000000000000000000000000000000000000000000000000000000600052603260045260246000fdfea264697066735822122071d42a579f35e0d4ca93996fe520af172f992bc90ec9549934f090296b43c4ab64736f6c634300080f0033",
  "immutableReferences": {},
  "source": "// SPDX-License-Identifier: MIT\r\npragma solidity ^0.8.0;\r\n\r\nimport \"@openzeppelin/contracts/utils/Counters.sol\";\r\nimport \"@openzeppelin/contracts/token/ERC721/extensions/ERC721URIStorage.sol\";\r\nimport \"@openzeppelin/contracts/security/ReentrancyGuard.sol\";\r\nimport \"@openzeppelin/contracts/token/ERC721/ERC721.sol\";\r\n\r\ncontract NFT is ERC721URIStorage {\r\n    using Counters for Counters.Counter;\r\n    Counters.Counter private _tokenIds;\r\n    address contractAddress;\r\n    address auctionAddress;\r\n\r\n    event Mint(uint256 tokenId);\r\n\r\n    constructor(address marketplaceAddress, address auctionAdd) ERC721(\"Huflit Token\", \"HUFT\") {\r\n        contractAddress = marketplaceAddress;\r\n        auctionAddress = auctionAdd;\r\n    }\r\n\r\n    function createToken(string memory tokenURI) public returns (uint) {\r\n        _tokenIds.increment();\r\n        uint256 newItemId = _tokenIds.current();\r\n\r\n        _mint(msg.sender, newItemId);\r\n        _setTokenURI(newItemId, tokenURI);\r\n        setApprovalForAll(contractAddress, true);\r\n        setApprovalForAll(auctionAddress, true);\r\n        emit Mint(newItemId);\r\n        return newItemId;\r\n    }\r\n\r\n    // giveResaleApproval to a marketplace contract\r\n    function giveResaleApproval(uint256 tokenId) public {\r\n        require(ownerOf(tokenId) == msg.sender, \"You must own this NFT in order to resell it\" );\r\n        setApprovalForAll(contractAddress, true);\r\n        setApprovalForAll(auctionAddress, true);\r\n    }\r\n}\r\n",
  "sourcePath": "C:\\Users\\Matebook X\\Desktop\\CrytoBoi\\cryptoboys-NFT-marketplace\\src\\contracts\\NFT.sol",
  "compiler": {
    "name": "solc",
    "version": "0.8.15+commit.e14f2714.Emscripten.clang"
  },
  "schemaVersion": "3.4.4",
  "updatedAt": "2022-06-26T11:00:30.726Z",
  "networkType": "ethereum",
  "devdoc": {
    "kind": "dev",
    "methods": {
      "approve(address,uint256)": {
        "details": "See {IERC721-approve}."
      },
      "balanceOf(address)": {
        "details": "See {IERC721-balanceOf}."
      },
      "getApproved(uint256)": {
        "details": "See {IERC721-getApproved}."
      },
      "isApprovedForAll(address,address)": {
        "details": "See {IERC721-isApprovedForAll}."
      },
      "name()": {
        "details": "See {IERC721Metadata-name}."
      },
      "ownerOf(uint256)": {
        "details": "See {IERC721-ownerOf}."
      },
      "safeTransferFrom(address,address,uint256)": {
        "details": "See {IERC721-safeTransferFrom}."
      },
      "safeTransferFrom(address,address,uint256,bytes)": {
        "details": "See {IERC721-safeTransferFrom}."
      },
      "setApprovalForAll(address,bool)": {
        "details": "See {IERC721-setApprovalForAll}."
      },
      "supportsInterface(bytes4)": {
        "details": "See {IERC165-supportsInterface}."
      },
      "symbol()": {
        "details": "See {IERC721Metadata-symbol}."
      },
      "tokenURI(uint256)": {
        "details": "See {IERC721Metadata-tokenURI}."
      },
      "transferFrom(address,address,uint256)": {
        "details": "See {IERC721-transferFrom}."
      }
    },
    "version": 1
  },
  "userdoc": {
    "kind": "user",
    "methods": {},
    "version": 1
  }
}