{
  "contractName": "NFTAuction",
  "abi": [
    {
      "anonymous": false,
      "inputs": [
        {
          "indexed": false,
          "internalType": "address",
          "name": "nftContractAddress",
          "type": "address"
        },
        {
          "indexed": false,
          "internalType": "uint256",
          "name": "tokenId",
          "type": "uint256"
        },
        {
          "indexed": false,
          "internalType": "address",
          "name": "owner",
          "type": "address"
        }
      ],
      "name": "AuctionCancelled",
      "type": "event"
    },
    {
      "anonymous": false,
      "inputs": [
        {
          "indexed": false,
          "internalType": "address",
          "name": "nftContractAddress",
          "type": "address"
        },
        {
          "indexed": false,
          "internalType": "uint256",
          "name": "tokenId",
          "type": "uint256"
        },
        {
          "indexed": false,
          "internalType": "address",
          "name": "maxBidUser",
          "type": "address"
        },
        {
          "indexed": false,
          "internalType": "uint256",
          "name": "timeStamp",
          "type": "uint256"
        }
      ],
      "name": "AuctionSettled",
      "type": "event"
    },
    {
      "anonymous": false,
      "inputs": [
        {
          "indexed": false,
          "internalType": "address",
          "name": "nftContractAddress",
          "type": "address"
        },
        {
          "indexed": false,
          "internalType": "uint256",
          "name": "tokenId",
          "type": "uint256"
        },
        {
          "indexed": false,
          "internalType": "address",
          "name": "bidder",
          "type": "address"
        },
        {
          "indexed": false,
          "internalType": "uint256",
          "name": "ethAmount",
          "type": "uint256"
        },
        {
          "indexed": false,
          "internalType": "uint256",
          "name": "timeStamp",
          "type": "uint256"
        }
      ],
      "name": "BidMade",
      "type": "event"
    },
    {
      "inputs": [
        {
          "internalType": "address",
          "name": "",
          "type": "address"
        },
        {
          "internalType": "uint256",
          "name": "",
          "type": "uint256"
        },
        {
          "internalType": "address",
          "name": "",
          "type": "address"
        }
      ],
      "name": "bids",
      "outputs": [
        {
          "internalType": "uint256",
          "name": "",
          "type": "uint256"
        }
      ],
      "stateMutability": "view",
      "type": "function",
      "constant": true
    },
    {
      "inputs": [
        {
          "internalType": "address",
          "name": "",
          "type": "address"
        },
        {
          "internalType": "uint256",
          "name": "",
          "type": "uint256"
        }
      ],
      "name": "tokenToAuction",
      "outputs": [
        {
          "internalType": "address",
          "name": "seller",
          "type": "address"
        },
        {
          "internalType": "uint128",
          "name": "price",
          "type": "uint128"
        },
        {
          "internalType": "uint256",
          "name": "duration",
          "type": "uint256"
        },
        {
          "internalType": "uint256",
          "name": "maxBid",
          "type": "uint256"
        },
        {
          "internalType": "address",
          "name": "maxBidUser",
          "type": "address"
        },
        {
          "internalType": "bool",
          "name": "isActive",
          "type": "bool"
        }
      ],
      "stateMutability": "view",
      "type": "function",
      "constant": true
    },
    {
      "inputs": [
        {
          "internalType": "address",
          "name": "_nft",
          "type": "address"
        },
        {
          "internalType": "uint256",
          "name": "_tokenId",
          "type": "uint256"
        },
        {
          "internalType": "uint128",
          "name": "_price",
          "type": "uint128"
        },
        {
          "internalType": "uint256",
          "name": "_duration",
          "type": "uint256"
        }
      ],
      "name": "createTokenAuction",
      "outputs": [],
      "stateMutability": "nonpayable",
      "type": "function"
    },
    {
      "inputs": [
        {
          "internalType": "address",
          "name": "_nft",
          "type": "address"
        },
        {
          "internalType": "uint256",
          "name": "_tokenId",
          "type": "uint256"
        }
      ],
      "name": "bid",
      "outputs": [],
      "stateMutability": "payable",
      "type": "function",
      "payable": true
    },
    {
      "inputs": [
        {
          "internalType": "address",
          "name": "_nft",
          "type": "address"
        },
        {
          "internalType": "uint256",
          "name": "_tokenId",
          "type": "uint256"
        }
      ],
      "name": "executeSale",
      "outputs": [],
      "stateMutability": "payable",
      "type": "function",
      "payable": true
    },
    {
      "inputs": [
        {
          "internalType": "address",
          "name": "_nft",
          "type": "address"
        },
        {
          "internalType": "uint256",
          "name": "_tokenId",
          "type": "uint256"
        }
      ],
      "name": "getTokenAuctionDetails",
      "outputs": [
        {
          "components": [
            {
              "internalType": "address",
              "name": "seller",
              "type": "address"
            },
            {
              "internalType": "uint128",
              "name": "price",
              "type": "uint128"
            },
            {
              "internalType": "uint256",
              "name": "duration",
              "type": "uint256"
            },
            {
              "internalType": "uint256",
              "name": "maxBid",
              "type": "uint256"
            },
            {
              "internalType": "address",
              "name": "maxBidUser",
              "type": "address"
            },
            {
              "internalType": "bool",
              "name": "isActive",
              "type": "bool"
            },
            {
              "internalType": "uint256[]",
              "name": "bidAmounts",
              "type": "uint256[]"
            },
            {
              "internalType": "address[]",
              "name": "users",
              "type": "address[]"
            }
          ],
          "internalType": "struct NFTAuction.tokenDetails",
          "name": "",
          "type": "tuple"
        }
      ],
      "stateMutability": "view",
      "type": "function",
      "constant": true
    },
    {
      "inputs": [
        {
          "internalType": "address",
          "name": "_nft",
          "type": "address"
        },
        {
          "internalType": "uint256",
          "name": "_tokenId",
          "type": "uint256"
        },
        {
          "internalType": "uint128",
          "name": "_price",
          "type": "uint128"
        },
        {
          "internalType": "uint256",
          "name": "_duration",
          "type": "uint256"
        }
      ],
      "name": "recreateTokenAuction",
      "outputs": [],
      "stateMutability": "nonpayable",
      "type": "function"
    },
    {
      "inputs": [
        {
          "internalType": "address",
          "name": "",
          "type": "address"
        },
        {
          "internalType": "address",
          "name": "",
          "type": "address"
        },
        {
          "internalType": "uint256",
          "name": "",
          "type": "uint256"
        },
        {
          "internalType": "bytes",
          "name": "",
          "type": "bytes"
        }
      ],
      "name": "onERC721Received",
      "outputs": [
        {
          "internalType": "bytes4",
          "name": "",
          "type": "bytes4"
        }
      ],
      "stateMutability": "nonpayable",
      "type": "function"
    }
  ],
  "bytecode": "0x608060405234801561001057600080fd5b5061265f806100206000396000f3fe60806040526004361061007b5760003560e01c80637bed72321161004e5780637bed723214610158578063c538dd5f14610174578063cf680c691461019d578063dd768922146101c65761007b565b8063150b7a021461008057806359d667a5146100bd578063722565c5146100d95780637792ba5f14610116575b600080fd5b34801561008c57600080fd5b506100a760048036038101906100a29190611af7565b610203565b6040516100b49190611bba565b60405180910390f35b6100d760048036038101906100d29190611bd5565b610231565b005b3480156100e557600080fd5b5061010060048036038101906100fb9190611bd5565b6107b9565b60405161010d9190611e8e565b60405180910390f35b34801561012257600080fd5b5061013d60048036038101906101389190611bd5565b610a35565b60405161014f96959493929190611eec565b60405180910390f35b610172600480360381019061016d9190611bd5565b610ae7565b005b34801561018057600080fd5b5061019b60048036038101906101969190611f79565b611073565b005b3480156101a957600080fd5b506101c460048036038101906101bf9190611f79565b6113b6565b005b3480156101d257600080fd5b506101ed60048036038101906101e89190611fe0565b611849565b6040516101fa9190612033565b60405180910390f35b60007f150b7a023d4804d13e8c85fb27262cb750cf6ba9f9dd3bb30d90f482ceeb4b1f905095945050505050565b60008060008473ffffffffffffffffffffffffffffffffffffffff1673ffffffffffffffffffffffffffffffffffffffff168152602001908152602001600020600083815260200190815260200160002090508060010160009054906101000a90046fffffffffffffffffffffffffffffffff166fffffffffffffffffffffffffffffffff163410156102f9576040517f08c379a00000000000000000000000000000000000000000000000000000000081526004016102f0906120d1565b60405180910390fd5b8060040160149054906101000a900460ff1661034a576040517f08c379a00000000000000000000000000000000000000000000000000000000081526004016103419061213d565b60405180910390fd5b42816002015411610390576040517f08c379a0000000000000000000000000000000000000000000000000000000008152600401610387906121a9565b60405180910390fd5b6000600160008573ffffffffffffffffffffffffffffffffffffffff1673ffffffffffffffffffffffffffffffffffffffff168152602001908152602001600020600084815260200190815260200160002060003373ffffffffffffffffffffffffffffffffffffffff1673ffffffffffffffffffffffffffffffffffffffff16815260200190815260200160002054111561052b5760003373ffffffffffffffffffffffffffffffffffffffff16600160008673ffffffffffffffffffffffffffffffffffffffff1673ffffffffffffffffffffffffffffffffffffffff168152602001908152602001600020600085815260200190815260200160002060003373ffffffffffffffffffffffffffffffffffffffff1673ffffffffffffffffffffffffffffffffffffffff168152602001908152602001600020546040516104d9906121fa565b60006040518083038185875af1925050503d8060008114610516576040519150601f19603f3d011682016040523d82523d6000602084013e61051b565b606091505b505090508061052957600080fd5b505b34600160008573ffffffffffffffffffffffffffffffffffffffff1673ffffffffffffffffffffffffffffffffffffffff168152602001908152602001600020600084815260200190815260200160002060003373ffffffffffffffffffffffffffffffffffffffff1673ffffffffffffffffffffffffffffffffffffffff16815260200190815260200160002081905550600081600501805490500361061d57348160030181905550338160040160006101000a81548173ffffffffffffffffffffffffffffffffffffffff021916908373ffffffffffffffffffffffffffffffffffffffff1602179055506106e5565b600060018260050180549050610633919061223e565b90503482600501828154811061064c5761064b612272565b5b906000526020600020015410610697576040517f08c379a000000000000000000000000000000000000000000000000000000000815260040161068e90612313565b60405180910390fd5b348260030181905550338260040160006101000a81548173ffffffffffffffffffffffffffffffffffffffff021916908373ffffffffffffffffffffffffffffffffffffffff160217905550505b80600601339080600181540180825580915050600190039060005260206000200160009091909190916101000a81548173ffffffffffffffffffffffffffffffffffffffff021916908373ffffffffffffffffffffffffffffffffffffffff160217905550806005013490806001815401808255809150506001900390600052602060002001600090919091909150557fa65f0194dcdd5b8159745e76591d7e4b2e26b6f7df9727f0f93129011351031983833334426040516107ac959493929190612333565b60405180910390a1505050565b6107c161187b565b60008060008573ffffffffffffffffffffffffffffffffffffffff1673ffffffffffffffffffffffffffffffffffffffff1681526020019081526020016000206000848152602001908152602001600020604051806101000160405290816000820160009054906101000a900473ffffffffffffffffffffffffffffffffffffffff1673ffffffffffffffffffffffffffffffffffffffff1673ffffffffffffffffffffffffffffffffffffffff1681526020016001820160009054906101000a90046fffffffffffffffffffffffffffffffff166fffffffffffffffffffffffffffffffff166fffffffffffffffffffffffffffffffff16815260200160028201548152602001600382015481526020016004820160009054906101000a900473ffffffffffffffffffffffffffffffffffffffff1673ffffffffffffffffffffffffffffffffffffffff1673ffffffffffffffffffffffffffffffffffffffff1681526020016004820160149054906101000a900460ff161515151581526020016005820180548060200260200160405190810160405280929190818152602001828054801561099257602002820191906000526020600020905b81548152602001906001019080831161097e575b5050505050815260200160068201805480602002602001604051908101604052809291908181526020018280548015610a2057602002820191906000526020600020905b8160009054906101000a900473ffffffffffffffffffffffffffffffffffffffff1673ffffffffffffffffffffffffffffffffffffffff16815260200190600101908083116109d6575b50505050508152505090508091505092915050565b6000602052816000526040600020602052806000526040600020600091509150508060000160009054906101000a900473ffffffffffffffffffffffffffffffffffffffff16908060010160009054906101000a90046fffffffffffffffffffffffffffffffff16908060020154908060030154908060040160009054906101000a900473ffffffffffffffffffffffffffffffffffffffff16908060040160149054906101000a900460ff16905086565b60008060008473ffffffffffffffffffffffffffffffffffffffff1673ffffffffffffffffffffffffffffffffffffffff1681526020019081526020016000206000838152602001908152602001600020905060008160040160146101000a81548160ff0219169083151502179055506000816005018054905003610c5f578273ffffffffffffffffffffffffffffffffffffffff166342842e0e308360000160009054906101000a900473ffffffffffffffffffffffffffffffffffffffff16856040518463ffffffff1660e01b8152600401610bc793929190612386565b600060405180830381600087803b158015610be157600080fd5b505af1158015610bf5573d6000803e3d6000fd5b505050507f9af6d97b361e7a9fb2831b01b64c355a9e8ccde63002f427e48a9ac03c6a19a283838360000160009054906101000a900473ffffffffffffffffffffffffffffffffffffffff1642604051610c5294939291906123bd565b60405180910390a161106e565b60008160000160009054906101000a900473ffffffffffffffffffffffffffffffffffffffff1673ffffffffffffffffffffffffffffffffffffffff166108fc83600301549081150290604051600060405180830381858888f19350505050158015610ccf573d6000803e3d6000fd5b5060005b8260060180549050811015610f10578260040160009054906101000a900473ffffffffffffffffffffffffffffffffffffffff1673ffffffffffffffffffffffffffffffffffffffff16836006018281548110610d3357610d32612272565b5b9060005260206000200160009054906101000a900473ffffffffffffffffffffffffffffffffffffffff1673ffffffffffffffffffffffffffffffffffffffff1614610efd57826006018181548110610d8f57610d8e612272565b5b9060005260206000200160009054906101000a900473ffffffffffffffffffffffffffffffffffffffff1673ffffffffffffffffffffffffffffffffffffffff16600160008773ffffffffffffffffffffffffffffffffffffffff1673ffffffffffffffffffffffffffffffffffffffff16815260200190815260200160002060008681526020019081526020016000206000856006018481548110610e3857610e37612272565b5b9060005260206000200160009054906101000a900473ffffffffffffffffffffffffffffffffffffffff1673ffffffffffffffffffffffffffffffffffffffff1673ffffffffffffffffffffffffffffffffffffffff16815260200190815260200160002054604051610eaa906121fa565b60006040518083038185875af1925050503d8060008114610ee7576040519150601f19603f3d011682016040523d82523d6000602084013e610eec565b606091505b50508092505081610efc57600080fd5b5b8080610f0890612402565b915050610cd3565b508160040160009054906101000a900473ffffffffffffffffffffffffffffffffffffffff168260000160006101000a81548173ffffffffffffffffffffffffffffffffffffffff021916908373ffffffffffffffffffffffffffffffffffffffff1602179055508373ffffffffffffffffffffffffffffffffffffffff166342842e0e308460040160009054906101000a900473ffffffffffffffffffffffffffffffffffffffff16866040518463ffffffff1660e01b8152600401610fd993929190612386565b600060405180830381600087803b158015610ff357600080fd5b505af1158015611007573d6000803e3d6000fd5b505050507f9af6d97b361e7a9fb2831b01b64c355a9e8ccde63002f427e48a9ac03c6a19a284848460040160009054906101000a900473ffffffffffffffffffffffffffffffffffffffff164260405161106494939291906123bd565b60405180910390a1505b505050565b60008060008673ffffffffffffffffffffffffffffffffffffffff1673ffffffffffffffffffffffffffffffffffffffff16815260200190815260200160002060008581526020019081526020016000209050600073ffffffffffffffffffffffffffffffffffffffff168573ffffffffffffffffffffffffffffffffffffffff1603611135576040517f08c379a000000000000000000000000000000000000000000000000000000000815260040161112c90612496565b60405180910390fd5b6000836fffffffffffffffffffffffffffffffff161161118a576040517f08c379a000000000000000000000000000000000000000000000000000000000815260040161118190612502565b60405180910390fd5b600082116111cd576040517f08c379a00000000000000000000000000000000000000000000000000000000081526004016111c49061256e565b60405180910390fd5b828160010160006101000a8154816fffffffffffffffffffffffffffffffff02191690836fffffffffffffffffffffffffffffffff16021790555081816002018190555060018160040160146101000a81548160ff021916908315150217905550600067ffffffffffffffff8111156112495761124861258e565b5b6040519080825280602002602001820160405280156112775781602001602082028036833780820191505090505b5081600501908051906020019061128f929190611900565b50600067ffffffffffffffff8111156112ab576112aa61258e565b5b6040519080825280602002602001820160405280156112d95781602001602082028036833780820191505090505b508160060190805190602001906112f192919061194d565b506000816003018190555060008160040160006101000a81548173ffffffffffffffffffffffffffffffffffffffff021916908373ffffffffffffffffffffffffffffffffffffffff1602179055508473ffffffffffffffffffffffffffffffffffffffff166342842e0e3330876040518463ffffffff1660e01b815260040161137d93929190612386565b600060405180830381600087803b15801561139757600080fd5b505af11580156113ab573d6000803e3d6000fd5b505050505050505050565b600073ffffffffffffffffffffffffffffffffffffffff163373ffffffffffffffffffffffffffffffffffffffff1603611425576040517f08c379a000000000000000000000000000000000000000000000000000000000815260040161141c90612496565b60405180910390fd5b600073ffffffffffffffffffffffffffffffffffffffff168473ffffffffffffffffffffffffffffffffffffffff1603611494576040517f08c379a000000000000000000000000000000000000000000000000000000000815260040161148b90612609565b60405180910390fd5b6000826fffffffffffffffffffffffffffffffff16116114e9576040517f08c379a00000000000000000000000000000000000000000000000000000000081526004016114e090612502565b60405180910390fd5b6000811161152c576040517f08c379a00000000000000000000000000000000000000000000000000000000081526004016115239061256e565b60405180910390fd5b60006040518061010001604052803373ffffffffffffffffffffffffffffffffffffffff168152602001846fffffffffffffffffffffffffffffffff16815260200183815260200160008152602001600073ffffffffffffffffffffffffffffffffffffffff168152602001600115158152602001600067ffffffffffffffff8111156115bc576115bb61258e565b5b6040519080825280602002602001820160405280156115ea5781602001602082028036833780820191505090505b508152602001600067ffffffffffffffff81111561160b5761160a61258e565b5b6040519080825280602002602001820160405280156116395781602001602082028036833780820191505090505b50815250905060003390508573ffffffffffffffffffffffffffffffffffffffff166342842e0e8230886040518463ffffffff1660e01b815260040161168193929190612386565b600060405180830381600087803b15801561169b57600080fd5b505af11580156116af573d6000803e3d6000fd5b50505050816000808873ffffffffffffffffffffffffffffffffffffffff1673ffffffffffffffffffffffffffffffffffffffff168152602001908152602001600020600087815260200190815260200160002060008201518160000160006101000a81548173ffffffffffffffffffffffffffffffffffffffff021916908373ffffffffffffffffffffffffffffffffffffffff16021790555060208201518160010160006101000a8154816fffffffffffffffffffffffffffffffff02191690836fffffffffffffffffffffffffffffffff160217905550604082015181600201556060820151816003015560808201518160040160006101000a81548173ffffffffffffffffffffffffffffffffffffffff021916908373ffffffffffffffffffffffffffffffffffffffff16021790555060a08201518160040160146101000a81548160ff02191690831515021790555060c0820151816005019080519060200190611820929190611900565b5060e082015181600601908051906020019061183d92919061194d565b50905050505050505050565b600160205282600052604060002060205281600052604060002060205280600052604060002060009250925050505481565b604051806101000160405280600073ffffffffffffffffffffffffffffffffffffffff16815260200160006fffffffffffffffffffffffffffffffff1681526020016000815260200160008152602001600073ffffffffffffffffffffffffffffffffffffffff16815260200160001515815260200160608152602001606081525090565b82805482825590600052602060002090810192821561193c579160200282015b8281111561193b578251825591602001919060010190611920565b5b50905061194991906119d7565b5090565b8280548282559060005260206000209081019282156119c6579160200282015b828111156119c55782518260006101000a81548173ffffffffffffffffffffffffffffffffffffffff021916908373ffffffffffffffffffffffffffffffffffffffff1602179055509160200191906001019061196d565b5b5090506119d391906119d7565b5090565b5b808211156119f05760008160009055506001016119d8565b5090565b600080fd5b600080fd5b600073ffffffffffffffffffffffffffffffffffffffff82169050919050565b6000611a29826119fe565b9050919050565b611a3981611a1e565b8114611a4457600080fd5b50565b600081359050611a5681611a30565b92915050565b6000819050919050565b611a6f81611a5c565b8114611a7a57600080fd5b50565b600081359050611a8c81611a66565b92915050565b600080fd5b600080fd5b600080fd5b60008083601f840112611ab757611ab6611a92565b5b8235905067ffffffffffffffff811115611ad457611ad3611a97565b5b602083019150836001820283011115611af057611aef611a9c565b5b9250929050565b600080600080600060808688031215611b1357611b126119f4565b5b6000611b2188828901611a47565b9550506020611b3288828901611a47565b9450506040611b4388828901611a7d565b935050606086013567ffffffffffffffff811115611b6457611b636119f9565b5b611b7088828901611aa1565b92509250509295509295909350565b60007fffffffff0000000000000000000000000000000000000000000000000000000082169050919050565b611bb481611b7f565b82525050565b6000602082019050611bcf6000830184611bab565b92915050565b60008060408385031215611bec57611beb6119f4565b5b6000611bfa85828601611a47565b9250506020611c0b85828601611a7d565b9150509250929050565b611c1e81611a1e565b82525050565b60006fffffffffffffffffffffffffffffffff82169050919050565b611c4981611c24565b82525050565b611c5881611a5c565b82525050565b60008115159050919050565b611c7381611c5e565b82525050565b600081519050919050565b600082825260208201905092915050565b6000819050602082019050919050565b6000611cb18383611c4f565b60208301905092915050565b6000602082019050919050565b6000611cd582611c79565b611cdf8185611c84565b9350611cea83611c95565b8060005b83811015611d1b578151611d028882611ca5565b9750611d0d83611cbd565b925050600181019050611cee565b5085935050505092915050565b600081519050919050565b600082825260208201905092915050565b6000819050602082019050919050565b6000611d608383611c15565b60208301905092915050565b6000602082019050919050565b6000611d8482611d28565b611d8e8185611d33565b9350611d9983611d44565b8060005b83811015611dca578151611db18882611d54565b9750611dbc83611d6c565b925050600181019050611d9d565b5085935050505092915050565b600061010083016000830151611df06000860182611c15565b506020830151611e036020860182611c40565b506040830151611e166040860182611c4f565b506060830151611e296060860182611c4f565b506080830151611e3c6080860182611c15565b5060a0830151611e4f60a0860182611c6a565b5060c083015184820360c0860152611e678282611cca565b91505060e083015184820360e0860152611e818282611d79565b9150508091505092915050565b60006020820190508181036000830152611ea88184611dd7565b905092915050565b611eb981611a1e565b82525050565b611ec881611c24565b82525050565b611ed781611a5c565b82525050565b611ee681611c5e565b82525050565b600060c082019050611f016000830189611eb0565b611f0e6020830188611ebf565b611f1b6040830187611ece565b611f286060830186611ece565b611f356080830185611eb0565b611f4260a0830184611edd565b979650505050505050565b611f5681611c24565b8114611f6157600080fd5b50565b600081359050611f7381611f4d565b92915050565b60008060008060808587031215611f9357611f926119f4565b5b6000611fa187828801611a47565b9450506020611fb287828801611a7d565b9350506040611fc387828801611f64565b9250506060611fd487828801611a7d565b91505092959194509250565b600080600060608486031215611ff957611ff86119f4565b5b600061200786828701611a47565b935050602061201886828701611a7d565b925050604061202986828701611a47565b9150509250925092565b60006020820190506120486000830184611ece565b92915050565b600082825260208201905092915050565b7f626964207072696365206973206c657373207468616e2063757272656e74207060008201527f7269636500000000000000000000000000000000000000000000000000000000602082015250565b60006120bb60248361204e565b91506120c68261205f565b604082019050919050565b600060208201905081810360008301526120ea816120ae565b9050919050565b7f61756374696f6e206e6f74206163746976650000000000000000000000000000600082015250565b600061212760128361204e565b9150612132826120f1565b602082019050919050565b600060208201905081810360008301526121568161211a565b9050919050565b7f446561646c696e6520616c726561647920706173736564000000000000000000600082015250565b600061219360178361204e565b915061219e8261215d565b602082019050919050565b600060208201905081810360008301526121c281612186565b9050919050565b600081905092915050565b50565b60006121e46000836121c9565b91506121ef826121d4565b600082019050919050565b6000612205826121d7565b9150819050919050565b7f4e487b7100000000000000000000000000000000000000000000000000000000600052601160045260246000fd5b600061224982611a5c565b915061225483611a5c565b9250828210156122675761226661220f565b5b828203905092915050565b7f4e487b7100000000000000000000000000000000000000000000000000000000600052603260045260246000fd5b7f43757272656e74206d61782062696420697320686967686572207468616e207960008201527f6f75722062696400000000000000000000000000000000000000000000000000602082015250565b60006122fd60278361204e565b9150612308826122a1565b604082019050919050565b6000602082019050818103600083015261232c816122f0565b9050919050565b600060a0820190506123486000830188611eb0565b6123556020830187611ece565b6123626040830186611eb0565b61236f6060830185611ece565b61237c6080830184611ece565b9695505050505050565b600060608201905061239b6000830186611eb0565b6123a86020830185611eb0565b6123b56040830184611ece565b949350505050565b60006080820190506123d26000830187611eb0565b6123df6020830186611ece565b6123ec6040830185611eb0565b6123f96060830184611ece565b95945050505050565b600061240d82611a5c565b91507fffffffffffffffffffffffffffffffffffffffffffffffffffffffffffffffff820361243f5761243e61220f565b5b600182019050919050565b7f496e76616c696420416464726573730000000000000000000000000000000000600082015250565b6000612480600f8361204e565b915061248b8261244a565b602082019050919050565b600060208201905081810360008301526124af81612473565b9050919050565b7f50726963652073686f756c64206265206d6f7265207468616e20300000000000600082015250565b60006124ec601b8361204e565b91506124f7826124b6565b602082019050919050565b6000602082019050818103600083015261251b816124df565b9050919050565b7f496e76616c6964206475726174696f6e2076616c756500000000000000000000600082015250565b600061255860168361204e565b915061256382612522565b602082019050919050565b600060208201905081810360008301526125878161254b565b9050919050565b7f4e487b7100000000000000000000000000000000000000000000000000000000600052604160045260246000fd5b7f496e76616c6964204163636f756e740000000000000000000000000000000000600082015250565b60006125f3600f8361204e565b91506125fe826125bd565b602082019050919050565b60006020820190508181036000830152612622816125e6565b905091905056fea2646970667358221220662a95c6f362e3701aa0ef4a85690ed19f0e9400c6ca1fb925881a141d47041a64736f6c634300080f0033",
  "immutableReferences": {},
  "source": "// SPDX-License-Identifier: MIT\r\npragma solidity ^0.8.0;\r\n\r\nimport \"@openzeppelin/contracts/token/ERC721/ERC721.sol\";\r\nimport \"@openzeppelin/contracts/token/ERC721/IERC721Receiver.sol\";\r\n\r\n\r\ncontract NFTAuction is IERC721Receiver {\r\n    struct tokenDetails {\r\n        address seller;\r\n        uint128 price;\r\n        uint256 duration;\r\n        uint256 maxBid;\r\n        address maxBidUser;\r\n        bool isActive;\r\n        uint256[] bidAmounts;\r\n        address[] users;\r\n    }\r\n\r\n    mapping(address => mapping(uint256 => tokenDetails)) public tokenToAuction;\r\n\r\n    mapping(address => mapping(uint256 => mapping(address => uint256))) public bids;\r\n    \r\n    event BidMade(\r\n        address nftContractAddress,\r\n        uint256 tokenId,\r\n        address bidder,\r\n        uint256 ethAmount,\r\n        uint256 timeStamp\r\n    );\r\n\r\n    event AuctionSettled(\r\n        address nftContractAddress,\r\n        uint256 tokenId,\r\n        address maxBidUser,\r\n        uint256 timeStamp\r\n    );\r\n\r\n    event AuctionCancelled(\r\n        address nftContractAddress,\r\n        uint256 tokenId,\r\n        address owner\r\n    );\r\n\r\n    /**\r\n       Seller puts the item on auction\r\n    */\r\n    function createTokenAuction(\r\n        address _nft,\r\n        uint256 _tokenId,\r\n        uint128 _price,\r\n        uint256 _duration\r\n    ) external {\r\n        require(msg.sender != address(0), \"Invalid Address\");\r\n        require(_nft != address(0), \"Invalid Account\");\r\n        require(_price > 0, \"Price should be more than 0\");\r\n        require(_duration > 0, \"Invalid duration value\");\r\n        tokenDetails memory _auction = tokenDetails({\r\n            seller: msg.sender,\r\n            price: uint128(_price),\r\n            duration: _duration,\r\n            maxBid: 0,\r\n            maxBidUser: address(0),\r\n            isActive: true,\r\n            bidAmounts: new uint256[](0),\r\n            users: new address[](0)\r\n        });\r\n        address owner = msg.sender;\r\n        ERC721(_nft).safeTransferFrom(owner, address(this), _tokenId);\r\n        tokenToAuction[_nft][_tokenId] = _auction;\r\n    }\r\n    /**\r\n       Users bid for a particular nft, the max bid is compared and set if the current bid id highest\r\n    */\r\n    function bid(address _nft, uint256 _tokenId) external payable {\r\n        tokenDetails storage auction = tokenToAuction[_nft][_tokenId];\r\n        require(msg.value >= auction.price, \"bid price is less than current price\");\r\n        require(auction.isActive, \"auction not active\");\r\n        require(auction.duration > block.timestamp, \"Deadline already passed\");\r\n        if (bids[_nft][_tokenId][msg.sender] > 0) {\r\n            (bool success, ) = msg.sender.call{value: bids[_nft][_tokenId][msg.sender]}(\"\");\r\n            require(success);\r\n        }\r\n        bids[_nft][_tokenId][msg.sender] = msg.value;\r\n        if (auction.bidAmounts.length == 0) {\r\n            auction.maxBid = msg.value;\r\n            auction.maxBidUser = msg.sender;\r\n        } else {\r\n            uint256 lastIndex = auction.bidAmounts.length - 1;\r\n            require(auction.bidAmounts[lastIndex] < msg.value, \"Current max bid is higher than your bid\");\r\n            auction.maxBid = msg.value;\r\n            auction.maxBidUser = msg.sender;\r\n        }\r\n        auction.users.push(msg.sender);\r\n        auction.bidAmounts.push(msg.value);\r\n\r\n        emit BidMade(_nft, _tokenId, msg.sender, msg.value, block.timestamp);\r\n    }\r\n    /**\r\n       Called by the seller when the auction duration is over the hightest bid user get's the nft and other bidders get eth back\r\n    */\r\n    function executeSale(address _nft, uint256 _tokenId) external payable {\r\n        tokenDetails storage auction = tokenToAuction[_nft][_tokenId];\r\n        // require(auction.duration <= block.timestamp, \"Deadline did not pass yet\");\r\n        // require(auction.seller == msg.sender, \"Not seller\");\r\n        // require(auction.isActive, \"auction not active\");\r\n        auction.isActive = false;\r\n        if (auction.bidAmounts.length == 0) {\r\n            ERC721(_nft).safeTransferFrom(\r\n                address(this),\r\n                auction.seller,\r\n                _tokenId\r\n            );\r\n\r\n            emit AuctionSettled(_nft, _tokenId, auction.seller,block.timestamp);\r\n        } else {\r\n            bool success;\r\n            // (bool success, ) = auction.seller.call{value: auction.maxBid}(\"\");\r\n            // require(success);\r\n            payable(auction.seller).transfer(auction.maxBid);\r\n            for (uint256 i = 0; i < auction.users.length; i++) {\r\n                if (auction.users[i] != auction.maxBidUser) {\r\n                    (success, ) = auction.users[i].call{\r\n                        value: bids[_nft][_tokenId][auction.users[i]]\r\n                    }(\"\");\r\n                    require(success);\r\n                }\r\n            }\r\n            auction.seller = auction.maxBidUser;\r\n            ERC721(_nft).safeTransferFrom(\r\n                address(this),\r\n                auction.maxBidUser,\r\n                _tokenId\r\n            );\r\n\r\n            emit AuctionSettled(_nft, _tokenId, auction.maxBidUser,block.timestamp);\r\n        }\r\n    }\r\n\r\n    function getTokenAuctionDetails(address _nft, uint256 _tokenId) public view returns (tokenDetails memory) {\r\n        tokenDetails memory auction = tokenToAuction[_nft][_tokenId];\r\n        return auction;\r\n    }\r\n\r\n    function recreateTokenAuction(\r\n        address _nft,\r\n        uint256 _tokenId,\r\n        uint128 _price,\r\n        uint256 _duration\r\n    ) external {\r\n        tokenDetails storage auction = tokenToAuction[_nft][_tokenId];\r\n        require(_nft != address(0), \"Invalid Address\");\r\n        require(_price > 0, \"Price should be more than 0\");\r\n        require(_duration > 0, \"Invalid duration value\");\r\n        auction.price = uint128(_price);\r\n        auction.duration = _duration;\r\n        auction.isActive = true;\r\n        auction.bidAmounts = new uint256[](0);\r\n        auction.users = new address[](0);\r\n        auction.maxBid = 0;\r\n        auction.maxBidUser = address(0);\r\n        ERC721(_nft).safeTransferFrom(msg.sender, address(this), _tokenId);\r\n    }\r\n\r\n    function onERC721Received(\r\n        address,\r\n        address,\r\n        uint256,\r\n        bytes calldata\r\n    )external override returns(bytes4) {\r\n        return bytes4(keccak256(\"onERC721Received(address,address,uint256,bytes)\"));\r\n    }\r\n\r\n}",
  "sourcePath": "C:\\Users\\Matebook X\\Desktop\\CrytoBoi\\cryptoboys-NFT-marketplace\\src\\contracts\\NFTAuction.sol",
  "compiler": {
    "name": "solc",
    "version": "0.8.15+commit.e14f2714.Emscripten.clang"
  },
  "schemaVersion": "3.4.4",
  "updatedAt": "2022-06-26T11:00:30.800Z",
  "networkType": "ethereum",
  "devdoc": {
    "kind": "dev",
    "methods": {},
    "version": 1
  },
  "userdoc": {
    "kind": "user",
    "methods": {
      "bid(address,uint256)": {
        "notice": "Users bid for a particular nft, the max bid is compared and set if the current bid id highest"
      },
      "createTokenAuction(address,uint256,uint128,uint256)": {
        "notice": "Seller puts the item on auction"
      },
      "executeSale(address,uint256)": {
        "notice": "Called by the seller when the auction duration is over the hightest bid user get's the nft and other bidders get eth back"
      }
    },
    "version": 1
  }
}