{
  "contractName": "NFTMarketplace",
  "abi": [
    {
      "inputs": [],
      "stateMutability": "nonpayable",
      "type": "constructor"
    },
    {
      "anonymous": false,
      "inputs": [
        {
          "indexed": true,
          "internalType": "uint256",
          "name": "itemId",
          "type": "uint256"
        },
        {
          "indexed": true,
          "internalType": "address",
          "name": "nftContract",
          "type": "address"
        },
        {
          "indexed": true,
          "internalType": "uint256",
          "name": "tokenId",
          "type": "uint256"
        },
        {
          "indexed": false,
          "internalType": "address",
          "name": "seller",
          "type": "address"
        },
        {
          "indexed": false,
          "internalType": "address",
          "name": "owner",
          "type": "address"
        },
        {
          "indexed": false,
          "internalType": "uint256",
          "name": "price",
          "type": "uint256"
        },
        {
          "indexed": false,
          "internalType": "bool",
          "name": "sold",
          "type": "bool"
        }
      ],
      "name": "MarketplaceItemCreated",
      "type": "event"
    },
    {
      "inputs": [],
      "name": "getListingPrice",
      "outputs": [
        {
          "internalType": "uint256",
          "name": "",
          "type": "uint256"
        }
      ],
      "stateMutability": "view",
      "type": "function",
      "constant": true
    },
    {
      "inputs": [
        {
          "internalType": "address",
          "name": "nftContract",
          "type": "address"
        },
        {
          "internalType": "uint256",
          "name": "tokenId",
          "type": "uint256"
        },
        {
          "internalType": "uint256",
          "name": "price",
          "type": "uint256"
        }
      ],
      "name": "createMarketplaceItem",
      "outputs": [],
      "stateMutability": "payable",
      "type": "function",
      "payable": true
    },
    {
      "inputs": [
        {
          "internalType": "address",
          "name": "nftContract",
          "type": "address"
        },
        {
          "internalType": "uint256",
          "name": "itemId",
          "type": "uint256"
        }
      ],
      "name": "createMarketplaceSale",
      "outputs": [],
      "stateMutability": "payable",
      "type": "function",
      "payable": true
    },
    {
      "inputs": [
        {
          "internalType": "uint256",
          "name": "itemId",
          "type": "uint256"
        }
      ],
      "name": "getMarketplaceItem",
      "outputs": [
        {
          "components": [
            {
              "internalType": "uint256",
              "name": "itemId",
              "type": "uint256"
            },
            {
              "internalType": "address",
              "name": "nftContract",
              "type": "address"
            },
            {
              "internalType": "uint256",
              "name": "tokenId",
              "type": "uint256"
            },
            {
              "internalType": "address payable",
              "name": "seller",
              "type": "address"
            },
            {
              "internalType": "address payable",
              "name": "owner",
              "type": "address"
            },
            {
              "internalType": "uint256",
              "name": "price",
              "type": "uint256"
            },
            {
              "internalType": "bool",
              "name": "sold",
              "type": "bool"
            }
          ],
          "internalType": "struct NFTMarketplace.MarketplaceItem",
          "name": "",
          "type": "tuple"
        }
      ],
      "stateMutability": "view",
      "type": "function",
      "constant": true
    },
    {
      "inputs": [],
      "name": "fetchMarketplaceItems",
      "outputs": [
        {
          "components": [
            {
              "internalType": "uint256",
              "name": "itemId",
              "type": "uint256"
            },
            {
              "internalType": "address",
              "name": "nftContract",
              "type": "address"
            },
            {
              "internalType": "uint256",
              "name": "tokenId",
              "type": "uint256"
            },
            {
              "internalType": "address payable",
              "name": "seller",
              "type": "address"
            },
            {
              "internalType": "address payable",
              "name": "owner",
              "type": "address"
            },
            {
              "internalType": "uint256",
              "name": "price",
              "type": "uint256"
            },
            {
              "internalType": "bool",
              "name": "sold",
              "type": "bool"
            }
          ],
          "internalType": "struct NFTMarketplace.MarketplaceItem[]",
          "name": "",
          "type": "tuple[]"
        }
      ],
      "stateMutability": "view",
      "type": "function",
      "constant": true
    },
    {
      "inputs": [],
      "name": "fetchMyNFTs",
      "outputs": [
        {
          "components": [
            {
              "internalType": "uint256",
              "name": "itemId",
              "type": "uint256"
            },
            {
              "internalType": "address",
              "name": "nftContract",
              "type": "address"
            },
            {
              "internalType": "uint256",
              "name": "tokenId",
              "type": "uint256"
            },
            {
              "internalType": "address payable",
              "name": "seller",
              "type": "address"
            },
            {
              "internalType": "address payable",
              "name": "owner",
              "type": "address"
            },
            {
              "internalType": "uint256",
              "name": "price",
              "type": "uint256"
            },
            {
              "internalType": "bool",
              "name": "sold",
              "type": "bool"
            }
          ],
          "internalType": "struct NFTMarketplace.MarketplaceItem[]",
          "name": "",
          "type": "tuple[]"
        }
      ],
      "stateMutability": "view",
      "type": "function",
      "constant": true
    },
    {
      "inputs": [],
      "name": "fetchItemsCreated",
      "outputs": [
        {
          "components": [
            {
              "internalType": "uint256",
              "name": "itemId",
              "type": "uint256"
            },
            {
              "internalType": "address",
              "name": "nftContract",
              "type": "address"
            },
            {
              "internalType": "uint256",
              "name": "tokenId",
              "type": "uint256"
            },
            {
              "internalType": "address payable",
              "name": "seller",
              "type": "address"
            },
            {
              "internalType": "address payable",
              "name": "owner",
              "type": "address"
            },
            {
              "internalType": "uint256",
              "name": "price",
              "type": "uint256"
            },
            {
              "internalType": "bool",
              "name": "sold",
              "type": "bool"
            }
          ],
          "internalType": "struct NFTMarketplace.MarketplaceItem[]",
          "name": "",
          "type": "tuple[]"
        }
      ],
      "stateMutability": "view",
      "type": "function",
      "constant": true
    },
    {
      "inputs": [
        {
          "internalType": "uint256",
          "name": "itemId",
          "type": "uint256"
        },
        {
          "internalType": "uint256",
          "name": "price",
          "type": "uint256"
        }
      ],
      "name": "updateMarketplaceItemPrice",
      "outputs": [],
      "stateMutability": "payable",
      "type": "function",
      "payable": true
    },
    {
      "inputs": [
        {
          "internalType": "address",
          "name": "nftContract",
          "type": "address"
        },
        {
          "internalType": "uint256",
          "name": "tokenId",
          "type": "uint256"
        },
        {
          "internalType": "uint256",
          "name": "price",
          "type": "uint256"
        }
      ],
      "name": "resellToken",
      "outputs": [],
      "stateMutability": "payable",
      "type": "function",
      "payable": true
    }
  ],
  "bytecode": "0x60806040526658d15e1762800060045534801561001b57600080fd5b50600160008190555033600360006101000a81548173ffffffffffffffffffffffffffffffffffffffff021916908373ffffffffffffffffffffffffffffffffffffffff160217905550611f13806100746000396000f3fe6080604052600436106100865760003560e01c80636c767db2116100595780636c767db214610128578063b23e1ad914610165578063bf4892bb14610181578063f064c32e1461019d578063fbdd6cb8146101c857610086565b806301ae591a1461008b57806305ae31e4146100b657806312e85585146100d2578063202e3740146100fd575b600080fd5b34801561009757600080fd5b506100a06101e4565b6040516100ad9190611819565b60405180910390f35b6100d060048036038101906100cb9190611898565b6104ad565b005b3480156100de57600080fd5b506100e7610810565b6040516100f491906118fa565b60405180910390f35b34801561010957600080fd5b5061011261081a565b60405161011f9190611819565b60405180910390f35b34801561013457600080fd5b5061014f600480360381019061014a9190611915565b610b66565b60405161015c91906119d0565b60405180910390f35b61017f600480360381019061017a9190611898565b610cd4565b005b61019b600480360381019061019691906119eb565b610e8a565b005b3480156101a957600080fd5b506101b2611142565b6040516101bf9190611819565b60405180910390f35b6101e260048036038101906101dd9190611a2b565b61148e565b005b606060006101f26001611545565b905060006102006002611545565b61020a6001611545565b6102149190611a9a565b90506000808267ffffffffffffffff81111561023357610232611ace565b5b60405190808252806020026020018201604052801561026c57816020015b6102596115c5565b8152602001906001900390816102515790505b50905060005b848110156104a257600073ffffffffffffffffffffffffffffffffffffffff16600560006001846102a39190611afd565b815260200190815260200160002060040160009054906101000a900473ffffffffffffffffffffffffffffffffffffffff1673ffffffffffffffffffffffffffffffffffffffff160361048f5760006001826102ff9190611afd565b90506000600560008381526020019081526020016000209050806040518060e0016040529081600082015481526020016001820160009054906101000a900473ffffffffffffffffffffffffffffffffffffffff1673ffffffffffffffffffffffffffffffffffffffff1673ffffffffffffffffffffffffffffffffffffffff168152602001600282015481526020016003820160009054906101000a900473ffffffffffffffffffffffffffffffffffffffff1673ffffffffffffffffffffffffffffffffffffffff1673ffffffffffffffffffffffffffffffffffffffff1681526020016004820160009054906101000a900473ffffffffffffffffffffffffffffffffffffffff1673ffffffffffffffffffffffffffffffffffffffff1673ffffffffffffffffffffffffffffffffffffffff168152602001600582015481526020016006820160009054906101000a900460ff16151515158152505084868151811061047257610471611b53565b5b602002602001018190525060018561048a9190611afd565b945050505b808061049a90611b82565b915050610272565b508094505050505090565b6002600054036104f2576040517f08c379a00000000000000000000000000000000000000000000000000000000081526004016104e990611c27565b60405180910390fd5b60026000819055506000811161053d576040517f08c379a000000000000000000000000000000000000000000000000000000000815260040161053490611c93565b60405180910390fd5b6004543414610581576040517f08c379a000000000000000000000000000000000000000000000000000000000815260040161057890611d25565b60405180910390fd5b61058b6001611553565b60006105976001611545565b90506040518060e001604052808281526020018573ffffffffffffffffffffffffffffffffffffffff1681526020018481526020013373ffffffffffffffffffffffffffffffffffffffff168152602001600073ffffffffffffffffffffffffffffffffffffffff16815260200183815260200160001515815250600560008381526020019081526020016000206000820151816000015560208201518160010160006101000a81548173ffffffffffffffffffffffffffffffffffffffff021916908373ffffffffffffffffffffffffffffffffffffffff1602179055506040820151816002015560608201518160030160006101000a81548173ffffffffffffffffffffffffffffffffffffffff021916908373ffffffffffffffffffffffffffffffffffffffff16021790555060808201518160040160006101000a81548173ffffffffffffffffffffffffffffffffffffffff021916908373ffffffffffffffffffffffffffffffffffffffff16021790555060a0820151816005015560c08201518160060160006101000a81548160ff0219169083151502179055509050508373ffffffffffffffffffffffffffffffffffffffff166323b872dd3330866040518463ffffffff1660e01b815260040161077893929190611d54565b600060405180830381600087803b15801561079257600080fd5b505af11580156107a6573d6000803e3d6000fd5b50505050828473ffffffffffffffffffffffffffffffffffffffff16827f77c313154b797ac3eb630bba7605410c9aed6942c3f1860d362056bb90fcd74e3360008760006040516107fa9493929190611d9a565b60405180910390a4506001600081905550505050565b6000600454905090565b606060006108286001611545565b905060008060005b838110156108d0573373ffffffffffffffffffffffffffffffffffffffff16600560006001846108609190611afd565b815260200190815260200160002060040160009054906101000a900473ffffffffffffffffffffffffffffffffffffffff1673ffffffffffffffffffffffffffffffffffffffff16036108bd576001836108ba9190611afd565b92505b80806108c890611b82565b915050610830565b5060008267ffffffffffffffff8111156108ed576108ec611ace565b5b60405190808252806020026020018201604052801561092657816020015b6109136115c5565b81526020019060019003908161090b5790505b50905060005b84811015610b5b573373ffffffffffffffffffffffffffffffffffffffff166005600060018461095c9190611afd565b815260200190815260200160002060040160009054906101000a900473ffffffffffffffffffffffffffffffffffffffff1673ffffffffffffffffffffffffffffffffffffffff1603610b485760006001826109b89190611afd565b90506000600560008381526020019081526020016000209050806040518060e0016040529081600082015481526020016001820160009054906101000a900473ffffffffffffffffffffffffffffffffffffffff1673ffffffffffffffffffffffffffffffffffffffff1673ffffffffffffffffffffffffffffffffffffffff168152602001600282015481526020016003820160009054906101000a900473ffffffffffffffffffffffffffffffffffffffff1673ffffffffffffffffffffffffffffffffffffffff1673ffffffffffffffffffffffffffffffffffffffff1681526020016004820160009054906101000a900473ffffffffffffffffffffffffffffffffffffffff1673ffffffffffffffffffffffffffffffffffffffff1673ffffffffffffffffffffffffffffffffffffffff168152602001600582015481526020016006820160009054906101000a900460ff161515151581525050848681518110610b2b57610b2a611b53565b5b6020026020010181905250600185610b439190611afd565b945050505b8080610b5390611b82565b91505061092c565b508094505050505090565b610b6e6115c5565b6000600560008481526020019081526020016000206040518060e0016040529081600082015481526020016001820160009054906101000a900473ffffffffffffffffffffffffffffffffffffffff1673ffffffffffffffffffffffffffffffffffffffff1673ffffffffffffffffffffffffffffffffffffffff168152602001600282015481526020016003820160009054906101000a900473ffffffffffffffffffffffffffffffffffffffff1673ffffffffffffffffffffffffffffffffffffffff1673ffffffffffffffffffffffffffffffffffffffff1681526020016004820160009054906101000a900473ffffffffffffffffffffffffffffffffffffffff1673ffffffffffffffffffffffffffffffffffffffff1673ffffffffffffffffffffffffffffffffffffffff168152602001600582015481526020016006820160009054906101000a900460ff161515151581525050905080915050919050565b6004543414610d18576040517f08c379a0000000000000000000000000000000000000000000000000000000008152600401610d0f90611d25565b60405180910390fd5b60006005600084815260200190815260200160002060060160006101000a81548160ff021916908315150217905550806005600084815260200190815260200160002060050181905550336005600084815260200190815260200160002060030160006101000a81548173ffffffffffffffffffffffffffffffffffffffff021916908373ffffffffffffffffffffffffffffffffffffffff160217905550306005600084815260200190815260200160002060040160006101000a81548173ffffffffffffffffffffffffffffffffffffffff021916908373ffffffffffffffffffffffffffffffffffffffff160217905550610e166002611569565b8273ffffffffffffffffffffffffffffffffffffffff166323b872dd3330856040518463ffffffff1660e01b8152600401610e5393929190611d54565b600060405180830381600087803b158015610e6d57600080fd5b505af1158015610e81573d6000803e3d6000fd5b50505050505050565b600260005403610ecf576040517f08c379a0000000000000000000000000000000000000000000000000000000008152600401610ec690611c27565b60405180910390fd5b6002600081905550600060056000838152602001908152602001600020600501549050600060056000848152602001908152602001600020600201549050813414610f4f576040517f08c379a0000000000000000000000000000000000000000000000000000000008152600401610f4690611e51565b60405180910390fd5b6005600084815260200190815260200160002060030160009054906101000a900473ffffffffffffffffffffffffffffffffffffffff1673ffffffffffffffffffffffffffffffffffffffff166108fc349081150290604051600060405180830381858888f19350505050158015610fcb573d6000803e3d6000fd5b508373ffffffffffffffffffffffffffffffffffffffff166323b872dd3033846040518463ffffffff1660e01b815260040161100993929190611d54565b600060405180830381600087803b15801561102357600080fd5b505af1158015611037573d6000803e3d6000fd5b50505050336005600085815260200190815260200160002060040160006101000a81548173ffffffffffffffffffffffffffffffffffffffff021916908373ffffffffffffffffffffffffffffffffffffffff16021790555060016005600085815260200190815260200160002060060160006101000a81548160ff0219169083151502179055506110c96002611553565b600360009054906101000a900473ffffffffffffffffffffffffffffffffffffffff1673ffffffffffffffffffffffffffffffffffffffff166108fc6004549081150290604051600060405180830381858888f19350505050158015611133573d6000803e3d6000fd5b50505060016000819055505050565b606060006111506001611545565b905060008060005b838110156111f8573373ffffffffffffffffffffffffffffffffffffffff16600560006001846111889190611afd565b815260200190815260200160002060030160009054906101000a900473ffffffffffffffffffffffffffffffffffffffff1673ffffffffffffffffffffffffffffffffffffffff16036111e5576001836111e29190611afd565b92505b80806111f090611b82565b915050611158565b5060008267ffffffffffffffff81111561121557611214611ace565b5b60405190808252806020026020018201604052801561124e57816020015b61123b6115c5565b8152602001906001900390816112335790505b50905060005b84811015611483573373ffffffffffffffffffffffffffffffffffffffff16600560006001846112849190611afd565b815260200190815260200160002060030160009054906101000a900473ffffffffffffffffffffffffffffffffffffffff1673ffffffffffffffffffffffffffffffffffffffff16036114705760006001826112e09190611afd565b90506000600560008381526020019081526020016000209050806040518060e0016040529081600082015481526020016001820160009054906101000a900473ffffffffffffffffffffffffffffffffffffffff1673ffffffffffffffffffffffffffffffffffffffff1673ffffffffffffffffffffffffffffffffffffffff168152602001600282015481526020016003820160009054906101000a900473ffffffffffffffffffffffffffffffffffffffff1673ffffffffffffffffffffffffffffffffffffffff1673ffffffffffffffffffffffffffffffffffffffff1681526020016004820160009054906101000a900473ffffffffffffffffffffffffffffffffffffffff1673ffffffffffffffffffffffffffffffffffffffff1673ffffffffffffffffffffffffffffffffffffffff168152602001600582015481526020016006820160009054906101000a900460ff16151515158152505084868151811061145357611452611b53565b5b602002602001018190525060018561146b9190611afd565b945050505b808061147b90611b82565b915050611254565b508094505050505090565b6002600054036114d3576040517f08c379a00000000000000000000000000000000000000000000000000000000081526004016114ca90611c27565b60405180910390fd5b60026000819055506000811161151e576040517f08c379a000000000000000000000000000000000000000000000000000000000815260040161151590611c93565b60405180910390fd5b80600560008481526020019081526020016000206005018190555060016000819055505050565b600081600001549050919050565b6001816000016000828254019250508190555050565b600081600001549050600081116115b5576040517f08c379a00000000000000000000000000000000000000000000000000000000081526004016115ac90611ebd565b60405180910390fd5b6001810382600001819055505050565b6040518060e0016040528060008152602001600073ffffffffffffffffffffffffffffffffffffffff16815260200160008152602001600073ffffffffffffffffffffffffffffffffffffffff168152602001600073ffffffffffffffffffffffffffffffffffffffff168152602001600081526020016000151581525090565b600081519050919050565b600082825260208201905092915050565b6000819050602082019050919050565b6000819050919050565b61168581611672565b82525050565b600073ffffffffffffffffffffffffffffffffffffffff82169050919050565b60006116b68261168b565b9050919050565b6116c6816116ab565b82525050565b60006116d78261168b565b9050919050565b6116e7816116cc565b82525050565b60008115159050919050565b611702816116ed565b82525050565b60e08201600082015161171e600085018261167c565b50602082015161173160208501826116bd565b506040820151611744604085018261167c565b50606082015161175760608501826116de565b50608082015161176a60808501826116de565b5060a082015161177d60a085018261167c565b5060c082015161179060c08501826116f9565b50505050565b60006117a28383611708565b60e08301905092915050565b6000602082019050919050565b60006117c682611646565b6117d08185611651565b93506117db83611662565b8060005b8381101561180c5781516117f38882611796565b97506117fe836117ae565b9250506001810190506117df565b5085935050505092915050565b6000602082019050818103600083015261183381846117bb565b905092915050565b600080fd5b611849816116ab565b811461185457600080fd5b50565b60008135905061186681611840565b92915050565b61187581611672565b811461188057600080fd5b50565b6000813590506118928161186c565b92915050565b6000806000606084860312156118b1576118b061183b565b5b60006118bf86828701611857565b93505060206118d086828701611883565b92505060406118e186828701611883565b9150509250925092565b6118f481611672565b82525050565b600060208201905061190f60008301846118eb565b92915050565b60006020828403121561192b5761192a61183b565b5b600061193984828501611883565b91505092915050565b60e082016000820151611958600085018261167c565b50602082015161196b60208501826116bd565b50604082015161197e604085018261167c565b50606082015161199160608501826116de565b5060808201516119a460808501826116de565b5060a08201516119b760a085018261167c565b5060c08201516119ca60c08501826116f9565b50505050565b600060e0820190506119e56000830184611942565b92915050565b60008060408385031215611a0257611a0161183b565b5b6000611a1085828601611857565b9250506020611a2185828601611883565b9150509250929050565b60008060408385031215611a4257611a4161183b565b5b6000611a5085828601611883565b9250506020611a6185828601611883565b9150509250929050565b7f4e487b7100000000000000000000000000000000000000000000000000000000600052601160045260246000fd5b6000611aa582611672565b9150611ab083611672565b925082821015611ac357611ac2611a6b565b5b828203905092915050565b7f4e487b7100000000000000000000000000000000000000000000000000000000600052604160045260246000fd5b6000611b0882611672565b9150611b1383611672565b9250827fffffffffffffffffffffffffffffffffffffffffffffffffffffffffffffffff03821115611b4857611b47611a6b565b5b828201905092915050565b7f4e487b7100000000000000000000000000000000000000000000000000000000600052603260045260246000fd5b6000611b8d82611672565b91507fffffffffffffffffffffffffffffffffffffffffffffffffffffffffffffffff8203611bbf57611bbe611a6b565b5b600182019050919050565b600082825260208201905092915050565b7f5265656e7472616e637947756172643a207265656e7472616e742063616c6c00600082015250565b6000611c11601f83611bca565b9150611c1c82611bdb565b602082019050919050565b60006020820190508181036000830152611c4081611c04565b9050919050565b7f5072696365206d757374206265206174206c6561737420312077656900000000600082015250565b6000611c7d601c83611bca565b9150611c8882611c47565b602082019050919050565b60006020820190508181036000830152611cac81611c70565b9050919050565b7f5072696365206d75737420626520657175616c20746f206c697374696e67207060008201527f7269636500000000000000000000000000000000000000000000000000000000602082015250565b6000611d0f602483611bca565b9150611d1a82611cb3565b604082019050919050565b60006020820190508181036000830152611d3e81611d02565b9050919050565b611d4e816116ab565b82525050565b6000606082019050611d696000830186611d45565b611d766020830185611d45565b611d8360408301846118eb565b949350505050565b611d94816116ed565b82525050565b6000608082019050611daf6000830187611d45565b611dbc6020830186611d45565b611dc960408301856118eb565b611dd66060830184611d8b565b95945050505050565b7f506c65617365207375626d6974207468652061736b696e67207072696365206960008201527f6e206f7264657220746f20636f6d706c65746520746865207075726368617365602082015250565b6000611e3b604083611bca565b9150611e4682611ddf565b604082019050919050565b60006020820190508181036000830152611e6a81611e2e565b9050919050565b7f436f756e7465723a2064656372656d656e74206f766572666c6f770000000000600082015250565b6000611ea7601b83611bca565b9150611eb282611e71565b602082019050919050565b60006020820190508181036000830152611ed681611e9a565b905091905056fea26469706673582212206d4c4d692a4d7dd7d140b6b49fbc51e1e502f5d88f5329f6a6d7cf3e6136356464736f6c634300080f0033",
  "immutableReferences": {},
  "source": "// // SPDX-License-Identifier: MIT\r\npragma solidity ^0.8.0;\r\n\r\nimport \"@openzeppelin/contracts/utils/Counters.sol\";\r\nimport \"@openzeppelin/contracts/token/ERC721/extensions/ERC721URIStorage.sol\";\r\nimport \"@openzeppelin/contracts/security/ReentrancyGuard.sol\";\r\nimport \"@openzeppelin/contracts/token/ERC721/ERC721.sol\";\r\n\r\ncontract NFTMarketplace is ReentrancyGuard {\r\n  using Counters for Counters.Counter;\r\n  Counters.Counter private _items;\r\n  Counters.Counter private _soldItems;\r\n\r\n  address payable owner;\r\n\r\n  uint256 listingPrice = 0.025 ether; // minimum price, change for what you want\r\n\r\n  // interface to marketplace item\r\n  struct MarketplaceItem {\r\n      uint256 itemId;\r\n      address nftContract;\r\n      uint256 tokenId;\r\n      address payable seller;\r\n      address payable owner;\r\n      uint256 price;\r\n      bool sold;\r\n  }\r\n\r\n  mapping(uint256 => MarketplaceItem) private idToMarketplaceItem;\r\n\r\n  // declare a event for when a item is created on marketplace\r\n  event MarketplaceItemCreated(\r\n      uint256 indexed itemId,\r\n      address indexed nftContract,\r\n      uint256 indexed tokenId,\r\n      address seller,\r\n      address owner,\r\n      uint256 price,\r\n      bool sold\r\n  );\r\n\r\n  constructor() {\r\n      owner = payable(msg.sender);\r\n  }\r\n\r\n  // returns the listing price of the contract\r\n  function getListingPrice() public view returns (uint256) {\r\n      return listingPrice;\r\n  }\r\n\r\n  // places an item for sale on the marketplace\r\n  function createMarketplaceItem(\r\n      address nftContract,\r\n      uint256 tokenId,\r\n      uint256 price\r\n  ) public payable nonReentrant {\r\n      require(price > 0, \"Price must be at least 1 wei\");\r\n      require(\r\n          msg.value == listingPrice,\r\n          \"Price must be equal to listing price\"\r\n      );\r\n\r\n      _items.increment();\r\n      uint256 itemId = _items.current();\r\n\r\n      idToMarketplaceItem[itemId] = MarketplaceItem(\r\n          itemId,\r\n          nftContract,\r\n          tokenId,\r\n          payable(msg.sender),\r\n          payable(address(0)),\r\n          price,\r\n          false\r\n      );\r\n\r\n      IERC721(nftContract).transferFrom(msg.sender, address(this), tokenId);\r\n\r\n      emit MarketplaceItemCreated(\r\n          itemId,\r\n          nftContract,\r\n          tokenId,\r\n          msg.sender,\r\n          address(0),\r\n          price,\r\n          false\r\n      );\r\n  }\r\n\r\n  // creates the sale of a marketplace item\r\n  // transfers ownership of the item, as well as funds between parties\r\n  function createMarketplaceSale(address nftContract, uint256 itemId)\r\n      public\r\n      payable\r\n      nonReentrant\r\n  {\r\n      uint256 price = idToMarketplaceItem[itemId].price;\r\n      uint256 tokenId = idToMarketplaceItem[itemId].tokenId;\r\n\r\n      require(\r\n          msg.value == price,\r\n          \"Please submit the asking price in order to complete the purchase\"\r\n      );\r\n\r\n      idToMarketplaceItem[itemId].seller.transfer(msg.value);\r\n      IERC721(nftContract).transferFrom(address(this), msg.sender, tokenId);\r\n      idToMarketplaceItem[itemId].owner = payable(msg.sender);\r\n      idToMarketplaceItem[itemId].sold = true;\r\n\r\n      _soldItems.increment();\r\n\r\n      payable(owner).transfer(listingPrice);\r\n  }\r\n\r\n  function getMarketplaceItem(uint256 itemId) public view returns (MarketplaceItem memory) {\r\n    MarketplaceItem memory item = idToMarketplaceItem[itemId];\r\n    return item;\r\n  }\r\n\r\n  // returns all unsold marketplace items\r\n  function fetchMarketplaceItems()\r\n      public\r\n      view\r\n      returns (MarketplaceItem[] memory)\r\n  {\r\n      uint256 itemCount = _items.current();\r\n      uint256 unsoldItemCount = _items.current() - _soldItems.current();\r\n      uint256 currentIndex = 0;\r\n\r\n      MarketplaceItem[] memory items = new MarketplaceItem[](unsoldItemCount);\r\n      for (uint256 i = 0; i < itemCount; i++) {\r\n          if (idToMarketplaceItem[i + 1].owner == address(0)) {\r\n              uint256 currentId = i + 1;\r\n              MarketplaceItem storage currentItem = idToMarketplaceItem[\r\n                  currentId\r\n              ];\r\n              items[currentIndex] = currentItem;\r\n              currentIndex += 1;\r\n          }\r\n      }\r\n      return items;\r\n  }\r\n\r\n  // returns only items that a user has purchased\r\n  function fetchMyNFTs() public view returns (MarketplaceItem[] memory) {\r\n      uint256 totalItemCount = _items.current();\r\n      uint256 itemCount = 0;\r\n      uint256 currentIndex = 0;\r\n\r\n      for (uint256 i = 0; i < totalItemCount; i++) {\r\n          if (idToMarketplaceItem[i + 1].owner == msg.sender) {\r\n              itemCount += 1;\r\n          }\r\n      }\r\n\r\n      MarketplaceItem[] memory items = new MarketplaceItem[](itemCount);\r\n      for (uint256 i = 0; i < totalItemCount; i++) {\r\n          if (idToMarketplaceItem[i + 1].owner == msg.sender) {\r\n              uint256 currentId = i + 1;\r\n              MarketplaceItem storage currentItem = idToMarketplaceItem[\r\n                  currentId\r\n              ];\r\n              items[currentIndex] = currentItem;\r\n              currentIndex += 1;\r\n          }\r\n      }\r\n      return items;\r\n  }\r\n\r\n  // returns only items a user has created\r\n  function fetchItemsCreated()\r\n      public\r\n      view\r\n      returns (MarketplaceItem[] memory)\r\n  {\r\n      uint256 totalItemCount = _items.current();\r\n      uint256 itemCount = 0;\r\n      uint256 currentIndex = 0;\r\n\r\n      for (uint256 i = 0; i < totalItemCount; i++) {\r\n          if (idToMarketplaceItem[i + 1].seller == msg.sender) {\r\n              itemCount += 1;\r\n          }\r\n      }\r\n\r\n      MarketplaceItem[] memory items = new MarketplaceItem[](itemCount);\r\n\r\n      for (uint256 i = 0; i < totalItemCount; i++) {\r\n          if (idToMarketplaceItem[i + 1].seller == msg.sender) {\r\n              uint256 currentId = i + 1;\r\n              MarketplaceItem storage currentItem = idToMarketplaceItem[\r\n                  currentId\r\n              ];\r\n              items[currentIndex] = currentItem;\r\n              currentIndex += 1;\r\n          }\r\n      }\r\n\r\n      return items;\r\n  }\r\n\r\n    //update the price of a marketplace item\r\n    function updateMarketplaceItemPrice(uint256 itemId, uint256 price)\r\n        public\r\n        payable\r\n        nonReentrant\r\n    {\r\n        require(\r\n            price > 0,\r\n            \"Price must be at least 1 wei\"\r\n        );\r\n        idToMarketplaceItem[itemId].price = price;\r\n    }\r\n\r\n    function resellToken(address nftContract, uint256 tokenId, uint256 price) public payable {\r\n      require(msg.value == listingPrice, \"Price must be equal to listing price\");\r\n      idToMarketplaceItem[tokenId].sold = false;\r\n      idToMarketplaceItem[tokenId].price = price;\r\n      idToMarketplaceItem[tokenId].seller = payable(msg.sender);\r\n      idToMarketplaceItem[tokenId].owner = payable(address(this));\r\n      _soldItems.decrement();\r\n\r\n      IERC721(nftContract).transferFrom(msg.sender, address(this), tokenId);\r\n    }\r\n\r\n    \r\n}",
  "sourcePath": "C:\\Users\\Matebook X\\Desktop\\CrytoBoi\\cryptoboys-NFT-marketplace\\src\\contracts\\NFTMarketplace.sol",
  "compiler": {
    "name": "solc",
    "version": "0.8.15+commit.e14f2714.Emscripten.clang"
  },
  "schemaVersion": "3.4.4",
  "updatedAt": "2022-06-26T11:00:30.647Z",
  "networkType": "ethereum",
  "devdoc": {
    "kind": "dev",
    "methods": {},
    "version": 1
  },
  "userdoc": {
    "kind": "user",
    "methods": {},
    "version": 1
  }
}