{
  "contractName": "CryptoBoyStruct",
  "abi": [
    {
      "anonymous": false,
      "inputs": [
        {
          "indexed": false,
          "internalType": "uint256",
          "name": "tokenId",
          "type": "uint256"
        },
        {
          "indexed": false,
          "internalType": "string",
          "name": "tokenURI",
          "type": "string"
        },
        {
          "indexed": false,
          "internalType": "address payable",
          "name": "mintedBy",
          "type": "address"
        },
        {
          "indexed": false,
          "internalType": "address payable",
          "name": "currentOwner",
          "type": "address"
        },
        {
          "indexed": false,
          "internalType": "address payable",
          "name": "previousOwner",
          "type": "address"
        },
        {
          "indexed": false,
          "internalType": "uint256",
          "name": "price",
          "type": "uint256"
        },
        {
          "indexed": false,
          "internalType": "uint256",
          "name": "numberOfTransfers",
          "type": "uint256"
        },
        {
          "components": [
            {
              "internalType": "uint16",
              "name": "year",
              "type": "uint16"
            },
            {
              "internalType": "uint8",
              "name": "month",
              "type": "uint8"
            },
            {
              "internalType": "uint8",
              "name": "day",
              "type": "uint8"
            },
            {
              "internalType": "uint8",
              "name": "hour",
              "type": "uint8"
            },
            {
              "internalType": "uint8",
              "name": "minute",
              "type": "uint8"
            },
            {
              "internalType": "uint8",
              "name": "second",
              "type": "uint8"
            },
            {
              "internalType": "uint8",
              "name": "weekday",
              "type": "uint8"
            }
          ],
          "indexed": false,
          "internalType": "struct DateAndTime._DateTime",
          "name": "timeStamp",
          "type": "tuple"
        },
        {
          "indexed": false,
          "internalType": "bool",
          "name": "purchased",
          "type": "bool"
        },
        {
          "indexed": false,
          "internalType": "bool",
          "name": "forSale",
          "type": "bool"
        }
      ],
      "name": "CryptoBoyMinted",
      "type": "event"
    },
    {
      "inputs": [
        {
          "internalType": "uint256",
          "name": "timestamp",
          "type": "uint256"
        }
      ],
      "name": "getDay",
      "outputs": [
        {
          "internalType": "uint8",
          "name": "",
          "type": "uint8"
        }
      ],
      "stateMutability": "pure",
      "type": "function"
    },
    {
      "inputs": [
        {
          "internalType": "uint8",
          "name": "month",
          "type": "uint8"
        },
        {
          "internalType": "uint16",
          "name": "year",
          "type": "uint16"
        }
      ],
      "name": "getDaysInMonth",
      "outputs": [
        {
          "internalType": "uint8",
          "name": "",
          "type": "uint8"
        }
      ],
      "stateMutability": "pure",
      "type": "function"
    },
    {
      "inputs": [
        {
          "internalType": "uint256",
          "name": "timestamp",
          "type": "uint256"
        }
      ],
      "name": "getHour",
      "outputs": [
        {
          "internalType": "uint8",
          "name": "",
          "type": "uint8"
        }
      ],
      "stateMutability": "pure",
      "type": "function"
    },
    {
      "inputs": [
        {
          "internalType": "uint256",
          "name": "timestamp",
          "type": "uint256"
        }
      ],
      "name": "getMinute",
      "outputs": [
        {
          "internalType": "uint8",
          "name": "",
          "type": "uint8"
        }
      ],
      "stateMutability": "pure",
      "type": "function"
    },
    {
      "inputs": [
        {
          "internalType": "uint256",
          "name": "timestamp",
          "type": "uint256"
        }
      ],
      "name": "getMonth",
      "outputs": [
        {
          "internalType": "uint8",
          "name": "",
          "type": "uint8"
        }
      ],
      "stateMutability": "pure",
      "type": "function"
    },
    {
      "inputs": [
        {
          "internalType": "uint256",
          "name": "timestamp",
          "type": "uint256"
        }
      ],
      "name": "getSecond",
      "outputs": [
        {
          "internalType": "uint8",
          "name": "",
          "type": "uint8"
        }
      ],
      "stateMutability": "pure",
      "type": "function"
    },
    {
      "inputs": [
        {
          "internalType": "uint256",
          "name": "timestamp",
          "type": "uint256"
        }
      ],
      "name": "getWeekday",
      "outputs": [
        {
          "internalType": "uint8",
          "name": "",
          "type": "uint8"
        }
      ],
      "stateMutability": "pure",
      "type": "function"
    },
    {
      "inputs": [
        {
          "internalType": "uint256",
          "name": "timestamp",
          "type": "uint256"
        }
      ],
      "name": "getYear",
      "outputs": [
        {
          "internalType": "uint16",
          "name": "",
          "type": "uint16"
        }
      ],
      "stateMutability": "pure",
      "type": "function"
    },
    {
      "inputs": [
        {
          "internalType": "uint16",
          "name": "year",
          "type": "uint16"
        }
      ],
      "name": "isLeapYear",
      "outputs": [
        {
          "internalType": "bool",
          "name": "",
          "type": "bool"
        }
      ],
      "stateMutability": "pure",
      "type": "function"
    },
    {
      "inputs": [
        {
          "internalType": "uint256",
          "name": "year",
          "type": "uint256"
        }
      ],
      "name": "leapYearsBefore",
      "outputs": [
        {
          "internalType": "uint256",
          "name": "",
          "type": "uint256"
        }
      ],
      "stateMutability": "pure",
      "type": "function"
    },
    {
      "inputs": [
        {
          "internalType": "uint16",
          "name": "year",
          "type": "uint16"
        },
        {
          "internalType": "uint8",
          "name": "month",
          "type": "uint8"
        },
        {
          "internalType": "uint8",
          "name": "day",
          "type": "uint8"
        },
        {
          "internalType": "uint8",
          "name": "hour",
          "type": "uint8"
        },
        {
          "internalType": "uint8",
          "name": "minute",
          "type": "uint8"
        }
      ],
      "name": "toTimestamp",
      "outputs": [
        {
          "internalType": "uint256",
          "name": "timestamp",
          "type": "uint256"
        }
      ],
      "stateMutability": "pure",
      "type": "function"
    },
    {
      "inputs": [
        {
          "internalType": "uint16",
          "name": "year",
          "type": "uint16"
        },
        {
          "internalType": "uint8",
          "name": "month",
          "type": "uint8"
        },
        {
          "internalType": "uint8",
          "name": "day",
          "type": "uint8"
        },
        {
          "internalType": "uint8",
          "name": "hour",
          "type": "uint8"
        }
      ],
      "name": "toTimestamp",
      "outputs": [
        {
          "internalType": "uint256",
          "name": "timestamp",
          "type": "uint256"
        }
      ],
      "stateMutability": "pure",
      "type": "function"
    },
    {
      "inputs": [
        {
          "internalType": "uint16",
          "name": "year",
          "type": "uint16"
        },
        {
          "internalType": "uint8",
          "name": "month",
          "type": "uint8"
        },
        {
          "internalType": "uint8",
          "name": "day",
          "type": "uint8"
        }
      ],
      "name": "toTimestamp",
      "outputs": [
        {
          "internalType": "uint256",
          "name": "timestamp",
          "type": "uint256"
        }
      ],
      "stateMutability": "pure",
      "type": "function"
    },
    {
      "inputs": [
        {
          "internalType": "uint16",
          "name": "year",
          "type": "uint16"
        },
        {
          "internalType": "uint8",
          "name": "month",
          "type": "uint8"
        },
        {
          "internalType": "uint8",
          "name": "day",
          "type": "uint8"
        },
        {
          "internalType": "uint8",
          "name": "hour",
          "type": "uint8"
        },
        {
          "internalType": "uint8",
          "name": "minute",
          "type": "uint8"
        },
        {
          "internalType": "uint8",
          "name": "second",
          "type": "uint8"
        }
      ],
      "name": "toTimestamp",
      "outputs": [
        {
          "internalType": "uint256",
          "name": "timestamp",
          "type": "uint256"
        }
      ],
      "stateMutability": "pure",
      "type": "function"
    }
  ],
  "bytecode": "0x608060405234801561001057600080fd5b50610f0f806100206000396000f3fe608060405234801561001057600080fd5b50600436106100ea5760003560e01c80639054bdec1161008c578063a6f0e57711610066578063a6f0e577146102cf578063b1999937146102ff578063b238ad0e1461032f578063fa93f8831461035f576100ea565b80639054bdec1461023f57806392d663131461026f578063a324ad241461029f576100ea565b806365c72840116100c857806365c728401461017f5780637f791833146101af5780638aa001fc146101df5780638c8d98a01461020f576100ea565b80633e239e1a146100ef5780634ac1ad781461011f57806362ba96871461014f575b600080fd5b61010960048036038101906101049190610d56565b61038f565b6040516101169190610e48565b60405180910390f35b61013960048036038101906101349190610d56565b6103b6565b6040516101469190610e48565b60405180910390f35b61016960048036038101906101649190610c56565b6103d9565b6040516101769190610e2d565b60405180910390f35b61019960048036038101906101949190610d56565b6103f5565b6040516101a69190610e48565b60405180910390f35b6101c960048036038101906101c49190610bf3565b61040b565b6040516101d69190610e2d565b60405180910390f35b6101f960048036038101906101f49190610d56565b610426565b6040516102069190610e48565b60405180910390f35b61022960048036038101906102249190610ba4565b61043a565b6040516102369190610e2d565b60405180910390f35b61025960048036038101906102549190610ccd565b610455565b6040516102669190610e2d565b60405180910390f35b61028960048036038101906102849190610d56565b6106dd565b6040516102969190610e12565b60405180910390f35b6102b960048036038101906102b49190610d56565b610786565b6040516102c69190610e48565b60405180910390f35b6102e960048036038101906102e49190610b7b565b61079c565b6040516102f69190610df7565b60405180910390f35b61031960048036038101906103149190610d56565b610811565b6040516103269190610e2d565b60405180910390f35b61034960048036038101906103449190610d7f565b610844565b6040516103569190610e48565b60405180910390f35b61037960048036038101906103749190610d56565b610910565b6040516103869190610e48565b60405180910390f35b60006018603c80848161039e57fe5b04816103a657fe5b04816103ae57fe5b069050919050565b6000600760046201518084816103c857fe5b0401816103d157fe5b069050919050565b60006103ea86868686866000610455565b905095945050505050565b60006104008261092d565b604001519050919050565b600061041c85858585600080610455565b9050949350505050565b6000603c828161043257fe5b069050919050565b600061044c8484846000806000610455565b90509392505050565b6000806107b290505b8761ffff168161ffff1610156104a1576104778161079c565b1561048a576301e2850082019150610494565b6301e13380820191505b808060010191505061045e565b6104a9610ac6565b601f816000600c81106104b857fe5b602002019060ff16908160ff16815250506104d28961079c565b156104fc57601d816001600c81106104e657fe5b602002019060ff16908160ff168152505061051d565b601c816001600c811061050b57fe5b602002019060ff16908160ff16815250505b601f816002600c811061052c57fe5b602002019060ff16908160ff1681525050601e816003600c811061054c57fe5b602002019060ff16908160ff1681525050601f816004600c811061056c57fe5b602002019060ff16908160ff1681525050601e816005600c811061058c57fe5b602002019060ff16908160ff1681525050601f816006600c81106105ac57fe5b602002019060ff16908160ff1681525050601f816007600c81106105cc57fe5b602002019060ff16908160ff1681525050601e816008600c81106105ec57fe5b602002019060ff16908160ff1681525050601f816009600c811061060c57fe5b602002019060ff16908160ff1681525050601e81600a600c811061062c57fe5b602002019060ff16908160ff1681525050601f81600b600c811061064c57fe5b602002019060ff16908160ff1681525050600191505b8760ff168261ffff1610156106a257806001830361ffff16600c811061068457fe5b602002015160ff166201518002830192508180600101925050610662565b6001870360ff166201518002830192508560ff16610e1002830192508460ff16603c02830192508360ff168301925050509695505050505050565b600080600090506000806301e1338085816106f457fe5b046107b261ffff1601915061070e6107b261ffff16610811565b61071b8361ffff16610811565b039050806301e285000283019250806107b2830361ffff16036301e1338002830192505b8483111561077b576107536001830361079c565b15610766576301e2850083039250610770565b6301e13380830392505b60018203915061073f565b819350505050919050565b60006107918261092d565b602001519050919050565b60008060048361ffff16816107ad57fe5b0661ffff16146107c0576000905061080c565b600060648361ffff16816107d057fe5b0661ffff16146107e3576001905061080c565b60006101908361ffff16816107f457fe5b0661ffff1614610807576000905061080c565b600190505b919050565b6000600182039150610190828161082457fe5b046064838161082f57fe5b046004848161083a57fe5b0403019050919050565b600060018360ff16148061085b575060038360ff16145b80610869575060058360ff16145b80610877575060078360ff16145b80610885575060088360ff16145b806108935750600a8360ff16145b806108a15750600c8360ff16145b156108af57601f905061090a565b60048360ff1614806108c4575060068360ff16145b806108d2575060098360ff16145b806108e05750600b8360ff16145b156108ee57601e905061090a565b6108f78261079c565b1561090557601d905061090a565b601c90505b92915050565b6000603c80838161091d57fe5b048161092557fe5b069050919050565b610935610ae9565b60008080610942856106dd565b846000019061ffff16908161ffff16815250506109646107b261ffff16610811565b610975856000015161ffff16610811565b039150816301e285000283019250816107b285600001510361ffff16036301e1338002830192506000600191505b600c8260ff16116109f9576109bc828660000151610844565b60ff16620151800290508584820111156109e75781856020019060ff16908160ff16815250506109f9565b808401935081806001019250506109a3565b600191505b610a1085602001518660000151610844565b60ff168260ff1611610a5557858462015180011115610a405781856040019060ff16908160ff1681525050610a55565b620151808401935081806001019250506109fe565b610a5e8661038f565b856060019060ff16908160ff1681525050610a7886610910565b856080019060ff16908160ff1681525050610a9286610426565b8560a0019060ff16908160ff1681525050610aac866103b6565b8560c0019060ff16908160ff168152505050505050919050565b604051806101800160405280600c90602082028036833780820191505090505090565b6040518060e00160405280600061ffff168152602001600060ff168152602001600060ff168152602001600060ff168152602001600060ff168152602001600060ff168152602001600060ff1681525090565b600081359050610b4b81610e94565b92915050565b600081359050610b6081610eab565b92915050565b600081359050610b7581610ec2565b92915050565b600060208284031215610b8d57600080fd5b6000610b9b84828501610b3c565b91505092915050565b600080600060608486031215610bb957600080fd5b6000610bc786828701610b3c565b9350506020610bd886828701610b66565b9250506040610be986828701610b66565b9150509250925092565b60008060008060808587031215610c0957600080fd5b6000610c1787828801610b3c565b9450506020610c2887828801610b66565b9350506040610c3987828801610b66565b9250506060610c4a87828801610b66565b91505092959194509250565b600080600080600060a08688031215610c6e57600080fd5b6000610c7c88828901610b3c565b9550506020610c8d88828901610b66565b9450506040610c9e88828901610b66565b9350506060610caf88828901610b66565b9250506080610cc088828901610b66565b9150509295509295909350565b60008060008060008060c08789031215610ce657600080fd5b6000610cf489828a01610b3c565b9650506020610d0589828a01610b66565b9550506040610d1689828a01610b66565b9450506060610d2789828a01610b66565b9350506080610d3889828a01610b66565b92505060a0610d4989828a01610b66565b9150509295509295509295565b600060208284031215610d6857600080fd5b6000610d7684828501610b51565b91505092915050565b60008060408385031215610d9257600080fd5b6000610da085828601610b66565b9250506020610db185828601610b3c565b9150509250929050565b610dc481610e63565b82525050565b610dd381610e6f565b82525050565b610de281610e7d565b82525050565b610df181610e87565b82525050565b6000602082019050610e0c6000830184610dbb565b92915050565b6000602082019050610e276000830184610dca565b92915050565b6000602082019050610e426000830184610dd9565b92915050565b6000602082019050610e5d6000830184610de8565b92915050565b60008115159050919050565b600061ffff82169050919050565b6000819050919050565b600060ff82169050919050565b610e9d81610e6f565b8114610ea857600080fd5b50565b610eb481610e7d565b8114610ebf57600080fd5b50565b610ecb81610e87565b8114610ed657600080fd5b5056fea26469706673582212206ff3e857024df7f0712ec601e097104e32e96992040f4a2fa22628505b54938564736f6c63430007060033",
  "immutableReferences": {},
  "source": "// SPDX-License-Identifier: SPDX-License\npragma solidity >=0.4.21 <0.8.0;\npragma abicoder v2;\n\nimport \"./DateAndTime.sol\";\n\ncontract CryptoBoyStruct is DateAndTime {\n\n  struct CryptoBoy {\n    uint256 tokenId;\n    string tokenURI;\n    address payable mintedBy;\n    address payable currentOwner;\n    address payable previousOwner;\n    uint256 price;\n    uint256 numberOfTransfers;\n    _DateTime timeStamp;\n    bool purchased;\n    bool forSale;\n  }\n\n  event CryptoBoyMinted (\n    uint256 tokenId,\n    string tokenURI,\n    address payable mintedBy,\n    address payable currentOwner,\n    address payable previousOwner,\n    uint256 price,\n    uint256 numberOfTransfers,\n    _DateTime timeStamp,\n    bool purchased,\n    bool forSale\n  );\n\n  // emit CryptoBoyMinted(cryptoBoyCounter, _tokenURI, msg.sender, msg.sender, address(0), _price, 0, timeStamp, false, true);\n\n   // const event = result.logs[1].args;\n      // assert.equal(event.tokenId.toNumber(), 1);\n      // assert.equal(\n      //   event.tokenURI,\n      //   \"https://gateway.pinata.cloud/ipfs/QmYFmJgQGH4uPHRYN15Xdv4aLd9o4Aq63y1e4GgN6kj5aK/2\"\n      // );\n      // assert.equal(event.mintedBy, accounts[0]);\n      // assert.equal(event.currentOwner, accounts[0]);\n      // assert.equal(\n      //   event.previousOwner,\n      //   \"0x0000000000000000000000000000000000000000\"\n      // );\n      // const cryptoBoyPrice = web3.utils.fromWei(event.price, \"ether\");\n      // assert.equal(cryptoBoyPrice, 1);\n      // assert.equal(event.numberOfTransfers.toNumber(), 0);\n\n}",
  "sourcePath": "/home/pavansoratur/crypto-boys/src/contracts/CryptoBoyStruct.sol",
  "compiler": {
    "name": "solc",
    "version": "0.7.6+commit.7338295f.Emscripten.clang"
  },
  "schemaVersion": "3.3.4",
  "updatedAt": "2021-03-08T06:20:29.252Z",
  "devdoc": {
    "kind": "dev",
    "methods": {},
    "version": 1
  },
  "userdoc": {
    "kind": "user",
    "methods": {},
    "version": 1
  }
}