{
  "contractName": "CryptoBoys",
  "abi": [
    {
      "inputs": [],
      "stateMutability": "nonpayable",
      "type": "constructor"
    },
    {
      "anonymous": false,
      "inputs": [
        {
          "indexed": true,
          "internalType": "address",
          "name": "owner",
          "type": "address"
        },
        {
          "indexed": true,
          "internalType": "address",
          "name": "approved",
          "type": "address"
        },
        {
          "indexed": true,
          "internalType": "uint256",
          "name": "tokenId",
          "type": "uint256"
        }
      ],
      "name": "Approval",
      "type": "event"
    },
    {
      "anonymous": false,
      "inputs": [
        {
          "indexed": true,
          "internalType": "address",
          "name": "owner",
          "type": "address"
        },
        {
          "indexed": true,
          "internalType": "address",
          "name": "operator",
          "type": "address"
        },
        {
          "indexed": false,
          "internalType": "bool",
          "name": "approved",
          "type": "bool"
        }
      ],
      "name": "ApprovalForAll",
      "type": "event"
    },
    {
      "anonymous": false,
      "inputs": [
        {
          "indexed": true,
          "internalType": "address",
          "name": "from",
          "type": "address"
        },
        {
          "indexed": true,
          "internalType": "address",
          "name": "to",
          "type": "address"
        },
        {
          "indexed": true,
          "internalType": "uint256",
          "name": "tokenId",
          "type": "uint256"
        }
      ],
      "name": "Transfer",
      "type": "event"
    },
    {
      "inputs": [
        {
          "internalType": "address",
          "name": "",
          "type": "address"
        }
      ],
      "name": "addressMintedBalance",
      "outputs": [
        {
          "internalType": "uint256",
          "name": "",
          "type": "uint256"
        }
      ],
      "stateMutability": "view",
      "type": "function",
      "constant": true
    },
    {
      "inputs": [
        {
          "internalType": "uint256",
          "name": "",
          "type": "uint256"
        }
      ],
      "name": "allCryptoBoys",
      "outputs": [
        {
          "internalType": "uint256",
          "name": "tokenId",
          "type": "uint256"
        },
        {
          "internalType": "address payable",
          "name": "mintedBy",
          "type": "address"
        },
        {
          "internalType": "address payable",
          "name": "currentOwner",
          "type": "address"
        },
        {
          "internalType": "address payable",
          "name": "previousOwner",
          "type": "address"
        },
        {
          "internalType": "uint256",
          "name": "price",
          "type": "uint256"
        },
        {
          "internalType": "uint256",
          "name": "numberOfTransfers",
          "type": "uint256"
        },
        {
          "internalType": "bool",
          "name": "forSale",
          "type": "bool"
        }
      ],
      "stateMutability": "view",
      "type": "function",
      "constant": true
    },
    {
      "inputs": [
        {
          "internalType": "address",
          "name": "to",
          "type": "address"
        },
        {
          "internalType": "uint256",
          "name": "tokenId",
          "type": "uint256"
        }
      ],
      "name": "approve",
      "outputs": [],
      "stateMutability": "nonpayable",
      "type": "function"
    },
    {
      "inputs": [
        {
          "internalType": "address",
          "name": "owner",
          "type": "address"
        }
      ],
      "name": "balanceOf",
      "outputs": [
        {
          "internalType": "uint256",
          "name": "",
          "type": "uint256"
        }
      ],
      "stateMutability": "view",
      "type": "function",
      "constant": true
    },
    {
      "inputs": [],
      "name": "baseExtension",
      "outputs": [
        {
          "internalType": "string",
          "name": "",
          "type": "string"
        }
      ],
      "stateMutability": "view",
      "type": "function",
      "constant": true
    },
    {
      "inputs": [],
      "name": "baseURI",
      "outputs": [
        {
          "internalType": "string",
          "name": "",
          "type": "string"
        }
      ],
      "stateMutability": "view",
      "type": "function",
      "constant": true
    },
    {
      "inputs": [],
      "name": "collectionName",
      "outputs": [
        {
          "internalType": "string",
          "name": "",
          "type": "string"
        }
      ],
      "stateMutability": "view",
      "type": "function",
      "constant": true
    },
    {
      "inputs": [],
      "name": "collectionNameSymbol",
      "outputs": [
        {
          "internalType": "string",
          "name": "",
          "type": "string"
        }
      ],
      "stateMutability": "view",
      "type": "function",
      "constant": true
    },
    {
      "inputs": [],
      "name": "cost",
      "outputs": [
        {
          "internalType": "uint256",
          "name": "",
          "type": "uint256"
        }
      ],
      "stateMutability": "view",
      "type": "function",
      "constant": true
    },
    {
      "inputs": [],
      "name": "cryptoBoyCounter",
      "outputs": [
        {
          "internalType": "uint256",
          "name": "",
          "type": "uint256"
        }
      ],
      "stateMutability": "view",
      "type": "function",
      "constant": true
    },
    {
      "inputs": [
        {
          "internalType": "uint256",
          "name": "tokenId",
          "type": "uint256"
        }
      ],
      "name": "getApproved",
      "outputs": [
        {
          "internalType": "address",
          "name": "",
          "type": "address"
        }
      ],
      "stateMutability": "view",
      "type": "function",
      "constant": true
    },
    {
      "inputs": [
        {
          "internalType": "address",
          "name": "owner",
          "type": "address"
        },
        {
          "internalType": "address",
          "name": "operator",
          "type": "address"
        }
      ],
      "name": "isApprovedForAll",
      "outputs": [
        {
          "internalType": "bool",
          "name": "",
          "type": "bool"
        }
      ],
      "stateMutability": "view",
      "type": "function",
      "constant": true
    },
    {
      "inputs": [],
      "name": "maxMintAmount",
      "outputs": [
        {
          "internalType": "uint256",
          "name": "",
          "type": "uint256"
        }
      ],
      "stateMutability": "view",
      "type": "function",
      "constant": true
    },
    {
      "inputs": [],
      "name": "maxSupply",
      "outputs": [
        {
          "internalType": "uint256",
          "name": "",
          "type": "uint256"
        }
      ],
      "stateMutability": "view",
      "type": "function",
      "constant": true
    },
    {
      "inputs": [],
      "name": "name",
      "outputs": [
        {
          "internalType": "string",
          "name": "",
          "type": "string"
        }
      ],
      "stateMutability": "view",
      "type": "function",
      "constant": true
    },
    {
      "inputs": [],
      "name": "nftPerAddressLimit",
      "outputs": [
        {
          "internalType": "uint256",
          "name": "",
          "type": "uint256"
        }
      ],
      "stateMutability": "view",
      "type": "function",
      "constant": true
    },
    {
      "inputs": [],
      "name": "owner",
      "outputs": [
        {
          "internalType": "address",
          "name": "",
          "type": "address"
        }
      ],
      "stateMutability": "view",
      "type": "function",
      "constant": true
    },
    {
      "inputs": [
        {
          "internalType": "uint256",
          "name": "tokenId",
          "type": "uint256"
        }
      ],
      "name": "ownerOf",
      "outputs": [
        {
          "internalType": "address",
          "name": "",
          "type": "address"
        }
      ],
      "stateMutability": "view",
      "type": "function",
      "constant": true
    },
    {
      "inputs": [
        {
          "internalType": "address",
          "name": "from",
          "type": "address"
        },
        {
          "internalType": "address",
          "name": "to",
          "type": "address"
        },
        {
          "internalType": "uint256",
          "name": "tokenId",
          "type": "uint256"
        }
      ],
      "name": "safeTransferFrom",
      "outputs": [],
      "stateMutability": "nonpayable",
      "type": "function"
    },
    {
      "inputs": [
        {
          "internalType": "address",
          "name": "from",
          "type": "address"
        },
        {
          "internalType": "address",
          "name": "to",
          "type": "address"
        },
        {
          "internalType": "uint256",
          "name": "tokenId",
          "type": "uint256"
        },
        {
          "internalType": "bytes",
          "name": "_data",
          "type": "bytes"
        }
      ],
      "name": "safeTransferFrom",
      "outputs": [],
      "stateMutability": "nonpayable",
      "type": "function"
    },
    {
      "inputs": [
        {
          "internalType": "address",
          "name": "operator",
          "type": "address"
        },
        {
          "internalType": "bool",
          "name": "approved",
          "type": "bool"
        }
      ],
      "name": "setApprovalForAll",
      "outputs": [],
      "stateMutability": "nonpayable",
      "type": "function"
    },
    {
      "inputs": [
        {
          "internalType": "bytes4",
          "name": "interfaceId",
          "type": "bytes4"
        }
      ],
      "name": "supportsInterface",
      "outputs": [
        {
          "internalType": "bool",
          "name": "",
          "type": "bool"
        }
      ],
      "stateMutability": "view",
      "type": "function",
      "constant": true
    },
    {
      "inputs": [],
      "name": "symbol",
      "outputs": [
        {
          "internalType": "string",
          "name": "",
          "type": "string"
        }
      ],
      "stateMutability": "view",
      "type": "function",
      "constant": true
    },
    {
      "inputs": [
        {
          "internalType": "uint256",
          "name": "index",
          "type": "uint256"
        }
      ],
      "name": "tokenByIndex",
      "outputs": [
        {
          "internalType": "uint256",
          "name": "",
          "type": "uint256"
        }
      ],
      "stateMutability": "view",
      "type": "function",
      "constant": true
    },
    {
      "inputs": [
        {
          "internalType": "address",
          "name": "owner",
          "type": "address"
        },
        {
          "internalType": "uint256",
          "name": "index",
          "type": "uint256"
        }
      ],
      "name": "tokenOfOwnerByIndex",
      "outputs": [
        {
          "internalType": "uint256",
          "name": "",
          "type": "uint256"
        }
      ],
      "stateMutability": "view",
      "type": "function",
      "constant": true
    },
    {
      "inputs": [
        {
          "internalType": "uint256",
          "name": "tokenId",
          "type": "uint256"
        }
      ],
      "name": "tokenURI",
      "outputs": [
        {
          "internalType": "string",
          "name": "",
          "type": "string"
        }
      ],
      "stateMutability": "view",
      "type": "function",
      "constant": true
    },
    {
      "inputs": [
        {
          "internalType": "string",
          "name": "",
          "type": "string"
        }
      ],
      "name": "tokenURIExists",
      "outputs": [
        {
          "internalType": "bool",
          "name": "",
          "type": "bool"
        }
      ],
      "stateMutability": "view",
      "type": "function",
      "constant": true
    },
    {
      "inputs": [],
      "name": "totalSupply",
      "outputs": [
        {
          "internalType": "uint256",
          "name": "",
          "type": "uint256"
        }
      ],
      "stateMutability": "view",
      "type": "function",
      "constant": true
    },
    {
      "inputs": [
        {
          "internalType": "address",
          "name": "from",
          "type": "address"
        },
        {
          "internalType": "address",
          "name": "to",
          "type": "address"
        },
        {
          "internalType": "uint256",
          "name": "tokenId",
          "type": "uint256"
        }
      ],
      "name": "transferFrom",
      "outputs": [],
      "stateMutability": "nonpayable",
      "type": "function"
    },
    {
      "inputs": [
        {
          "internalType": "string",
          "name": "baseURI",
          "type": "string"
        }
      ],
      "name": "setBaseURI",
      "outputs": [],
      "stateMutability": "nonpayable",
      "type": "function"
    },
    {
      "inputs": [],
      "name": "getMaxSupply",
      "outputs": [
        {
          "internalType": "uint256",
          "name": "",
          "type": "uint256"
        }
      ],
      "stateMutability": "view",
      "type": "function",
      "constant": true
    },
    {
      "inputs": [],
      "name": "getCost",
      "outputs": [
        {
          "internalType": "uint256",
          "name": "",
          "type": "uint256"
        }
      ],
      "stateMutability": "view",
      "type": "function",
      "constant": true
    },
    {
      "inputs": [
        {
          "internalType": "uint256",
          "name": "_mintAmount",
          "type": "uint256"
        }
      ],
      "name": "mintCryptoBoy",
      "outputs": [],
      "stateMutability": "payable",
      "type": "function",
      "payable": true
    },
    {
      "inputs": [],
      "name": "getOwner",
      "outputs": [
        {
          "internalType": "address",
          "name": "",
          "type": "address"
        }
      ],
      "stateMutability": "view",
      "type": "function",
      "constant": true
    },
    {
      "inputs": [
        {
          "internalType": "uint256",
          "name": "_tokenId",
          "type": "uint256"
        }
      ],
      "name": "getTokenOwner",
      "outputs": [
        {
          "internalType": "address",
          "name": "",
          "type": "address"
        }
      ],
      "stateMutability": "view",
      "type": "function",
      "constant": true
    },
    {
      "inputs": [
        {
          "internalType": "uint256",
          "name": "_tokenId",
          "type": "uint256"
        }
      ],
      "name": "getTokenMetaData",
      "outputs": [
        {
          "internalType": "string",
          "name": "",
          "type": "string"
        }
      ],
      "stateMutability": "view",
      "type": "function",
      "constant": true
    },
    {
      "inputs": [],
      "name": "getNumberOfTokensMinted",
      "outputs": [
        {
          "internalType": "uint256",
          "name": "",
          "type": "uint256"
        }
      ],
      "stateMutability": "view",
      "type": "function",
      "constant": true
    },
    {
      "inputs": [
        {
          "internalType": "address",
          "name": "_owner",
          "type": "address"
        }
      ],
      "name": "getTotalNumberOfTokensOwnedByAnAddress",
      "outputs": [
        {
          "internalType": "uint256",
          "name": "",
          "type": "uint256"
        }
      ],
      "stateMutability": "view",
      "type": "function",
      "constant": true
    },
    {
      "inputs": [
        {
          "internalType": "uint256",
          "name": "_tokenId",
          "type": "uint256"
        }
      ],
      "name": "getTokenExists",
      "outputs": [
        {
          "internalType": "bool",
          "name": "",
          "type": "bool"
        }
      ],
      "stateMutability": "view",
      "type": "function",
      "constant": true
    },
    {
      "inputs": [
        {
          "internalType": "uint256",
          "name": "_tokenId",
          "type": "uint256"
        }
      ],
      "name": "buyToken",
      "outputs": [],
      "stateMutability": "payable",
      "type": "function",
      "payable": true
    },
    {
      "inputs": [
        {
          "internalType": "uint256",
          "name": "_tokenId",
          "type": "uint256"
        },
        {
          "internalType": "uint256",
          "name": "_newPrice",
          "type": "uint256"
        }
      ],
      "name": "changeTokenPrice",
      "outputs": [],
      "stateMutability": "nonpayable",
      "type": "function"
    },
    {
      "inputs": [
        {
          "internalType": "uint256",
          "name": "_tokenId",
          "type": "uint256"
        }
      ],
      "name": "toggleForSale",
      "outputs": [],
      "stateMutability": "nonpayable",
      "type": "function"
    },
    {
      "inputs": [
        {
          "internalType": "uint256",
          "name": "_limit",
          "type": "uint256"
        }
      ],
      "name": "setNftPerAddressLimit",
      "outputs": [],
      "stateMutability": "nonpayable",
      "type": "function"
    },
    {
      "inputs": [
        {
          "internalType": "uint256",
          "name": "_newCost",
          "type": "uint256"
        }
      ],
      "name": "setCost",
      "outputs": [],
      "stateMutability": "nonpayable",
      "type": "function"
    },
    {
      "inputs": [
        {
          "internalType": "uint256",
          "name": "_newmaxMintAmount",
          "type": "uint256"
        }
      ],
      "name": "setmaxMintAmount",
      "outputs": [],
      "stateMutability": "nonpayable",
      "type": "function"
    },
    {
      "inputs": [],
      "name": "withdraw",
      "outputs": [],
      "stateMutability": "payable",
      "type": "function",
      "payable": true
    }
  ],
  "bytecode": "0x60806040526040518060400160405280600581526020017f2e6a736f6e000000000000000000000000000000000000000000000000000000815250600d908051906020019062000051929190620004bd565b50670de0b6b3a7640000600e55611a0a600f556014601055601460115573747a75f7728039e8c8aa96605d81e18ccced4056601660006101000a81548173ffffffffffffffffffffffffffffffffffffffff021916908373ffffffffffffffffffffffffffffffffffffffff160217905550348015620000d057600080fd5b506040518060400160405280600781526020017f4352536b756c6c000000000000000000000000000000000000000000000000008152506040518060400160405280600381526020017f4352530000000000000000000000000000000000000000000000000000000000815250620001556301ffc9a760e01b6200026860201b60201c565b81600690805190602001906200016d929190620004bd565b50806007908051906020019062000186929190620004bd565b506200019f6380ac58cd60e01b6200026860201b60201c565b620001b7635b5e139f60e01b6200026860201b60201c565b620001cf63780e9d6360e01b6200026860201b60201c565b505033601560006101000a81548173ffffffffffffffffffffffffffffffffffffffff021916908373ffffffffffffffffffffffffffffffffffffffff160217905550620002226200037160201b60201c565b600a908051906020019062000239929190620004bd565b506200024a6200041760201b60201c565b600b908051906020019062000261929190620004bd565b5062000573565b63ffffffff60e01b817bffffffffffffffffffffffffffffffffffffffffffffffffffffffff1916141562000305576040517f08c379a000000000000000000000000000000000000000000000000000000000815260040180806020018281038252601c8152602001807f4552433136353a20696e76616c696420696e746572666163652069640000000081525060200191505060405180910390fd5b6001600080837bffffffffffffffffffffffffffffffffffffffffffffffffffffffff19167bffffffffffffffffffffffffffffffffffffffffffffffffffffffff1916815260200190815260200160002060006101000a81548160ff02191690831515021790555050565b606060068054600181600116156101000203166002900480601f0160208091040260200160405190810160405280929190818152602001828054600181600116156101000203166002900480156200040d5780601f10620003e1576101008083540402835291602001916200040d565b820191906000526020600020905b815481529060010190602001808311620003ef57829003601f168201915b5050505050905090565b606060078054600181600116156101000203166002900480601f016020809104026020016040519081016040528092919081815260200182805460018160011615610100020316600290048015620004b35780601f106200048757610100808354040283529160200191620004b3565b820191906000526020600020905b8154815290600101906020018083116200049557829003601f168201915b5050505050905090565b828054600181600116156101000203166002900490600052602060002090601f016020900481019282620004f5576000855562000541565b82601f106200051057805160ff191683800117855562000541565b8280016001018555821562000541579182015b828111156200054057825182559160200191906001019062000523565b5b50905062000550919062000554565b5090565b5b808211156200056f57600081600090555060010162000555565b5090565b614b4d80620005836000396000f3fe60806040526004361061027d5760003560e01c806367c623cf1161014f578063b88d4fde116100c1578063c87b56dd1161007a578063c87b56dd146109d7578063cc151f3a14610a14578063d0eb26b014610a3f578063d5abeb0114610a68578063e5326ab114610a93578063e985e9c514610abe5761027d565b8063b88d4fde146108e6578063b95afc801461090f578063ba7d2c761461092b578063bd3e19d414610956578063bffec20214610981578063c6682862146109ac5761027d565b8063893d20e811610113578063893d20e8146107d65780638da5cb5b1461080157806395d89b411461082c578063a22cb46514610857578063a32018b914610880578063a5cd761f146108a95761027d565b806367c623cf146106dd5780636c0360eb1461071a5780636f9507f91461074557806370a08231146107705780637f00c7a6146107ad5761027d565b80632f745c59116101f357806344c0d7eb116101ac57806344c0d7eb146105a35780634c0f38c2146105e65780634f6ccce71461061157806355f804b31461064e57806362e8e8ac146106775780636352211e146106a05761027d565b80632f745c59146104905780633ccfd60b146104cd57806342842e0e146104d7578063439028501461050057806343d32ae71461053d57806344a0d68a1461057a5761027d565b8063142687f311610245578063142687f31461037b57806318160ddd146103b857806318cae269146103e3578063239c70ae1461042057806323b872dd1461044b5780632d296bf1146104745761027d565b806301ffc9a71461028257806306fdde03146102bf578063081812fc146102ea578063095ea7b31461032757806313faede614610350575b600080fd5b34801561028e57600080fd5b506102a960048036038101906102a491906142e0565b610afb565b6040516102b69190614594565b60405180910390f35b3480156102cb57600080fd5b506102d4610b62565b6040516102e191906145af565b60405180910390f35b3480156102f657600080fd5b50610311600480360381019061030c919061434a565b610c04565b60405161031e9190614579565b60405180910390f35b34801561033357600080fd5b5061034e600480360381019061034991906142a4565b610c9f565b005b34801561035c57600080fd5b50610365610de3565b6040516103729190614651565b60405180910390f35b34801561038757600080fd5b506103a2600480360381019061039d919061434a565b610de9565b6040516103af9190614594565b60405180910390f35b3480156103c457600080fd5b506103cd610e00565b6040516103da9190614651565b60405180910390f35b3480156103ef57600080fd5b5061040a60048036038101906104059190614139565b610e11565b6040516104179190614651565b60405180910390f35b34801561042c57600080fd5b50610435610e29565b6040516104429190614651565b60405180910390f35b34801561045757600080fd5b50610472600480360381019061046d919061419e565b610e2f565b005b61048e6004803603810190610489919061434a565b610ea5565b005b34801561049c57600080fd5b506104b760048036038101906104b291906142a4565b6113b0565b6040516104c49190614651565b60405180910390f35b6104d561140b565b005b3480156104e357600080fd5b506104fe60048036038101906104f9919061419e565b611500565b005b34801561050c57600080fd5b5061052760048036038101906105229190614139565b611520565b6040516105349190614651565b60405180910390f35b34801561054957600080fd5b50610564600480360381019061055f9190614309565b611537565b6040516105719190614594565b60405180910390f35b34801561058657600080fd5b506105a1600480360381019061059c919061434a565b61156d565b005b3480156105af57600080fd5b506105ca60048036038101906105c5919061434a565b6115d1565b6040516105dd979695949392919061466c565b60405180910390f35b3480156105f257600080fd5b506105fb611680565b6040516106089190614651565b60405180910390f35b34801561061d57600080fd5b506106386004803603810190610633919061434a565b61168a565b6040516106459190614651565b60405180910390f35b34801561065a57600080fd5b5061067560048036038101906106709190614309565b6116ad565b005b34801561068357600080fd5b5061069e60048036038101906106999190614373565b611713565b005b3480156106ac57600080fd5b506106c760048036038101906106c2919061434a565b611a3b565b6040516106d49190614579565b60405180910390f35b3480156106e957600080fd5b5061070460048036038101906106ff919061434a565b611a72565b60405161071191906145af565b60405180910390f35b34801561072657600080fd5b5061072f611a8a565b60405161073c91906145af565b60405180910390f35b34801561075157600080fd5b5061075a611b2c565b60405161076791906145af565b60405180910390f35b34801561077c57600080fd5b5061079760048036038101906107929190614139565b611bca565b6040516107a49190614651565b60405180910390f35b3480156107b957600080fd5b506107d460048036038101906107cf919061434a565b611c9f565b005b3480156107e257600080fd5b506107eb611d03565b6040516107f89190614579565b60405180910390f35b34801561080d57600080fd5b50610816611d2d565b6040516108239190614579565b60405180910390f35b34801561083857600080fd5b50610841611d53565b60405161084e91906145af565b60405180910390f35b34801561086357600080fd5b5061087e60048036038101906108799190614268565b611df5565b005b34801561088c57600080fd5b506108a760048036038101906108a2919061434a565b611fab565b005b3480156108b557600080fd5b506108d060048036038101906108cb919061434a565b6122fa565b6040516108dd9190614579565b60405180910390f35b3480156108f257600080fd5b5061090d600480360381019061090891906141ed565b612311565b005b6109296004803603810190610924919061434a565b612389565b005b34801561093757600080fd5b506109406127dc565b60405161094d9190614651565b60405180910390f35b34801561096257600080fd5b5061096b6127e2565b6040516109789190614651565b60405180910390f35b34801561098d57600080fd5b506109966127ec565b6040516109a39190614651565b60405180910390f35b3480156109b857600080fd5b506109c16127f2565b6040516109ce91906145af565b60405180910390f35b3480156109e357600080fd5b506109fe60048036038101906109f9919061434a565b612890565b604051610a0b91906145af565b60405180910390f35b348015610a2057600080fd5b50610a29612b61565b604051610a369190614651565b60405180910390f35b348015610a4b57600080fd5b50610a666004803603810190610a61919061434a565b612b75565b005b348015610a7457600080fd5b50610a7d612bd9565b604051610a8a9190614651565b60405180910390f35b348015610a9f57600080fd5b50610aa8612bdf565b604051610ab591906145af565b60405180910390f35b348015610aca57600080fd5b50610ae56004803603810190610ae09190614162565b612c7d565b604051610af29190614594565b60405180910390f35b6000806000837bffffffffffffffffffffffffffffffffffffffffffffffffffffffff19167bffffffffffffffffffffffffffffffffffffffffffffffffffffffff1916815260200190815260200160002060009054906101000a900460ff169050919050565b606060068054600181600116156101000203166002900480601f016020809104026020016040519081016040528092919081815260200182805460018160011615610100020316600290048015610bfa5780601f10610bcf57610100808354040283529160200191610bfa565b820191906000526020600020905b815481529060010190602001808311610bdd57829003601f168201915b5050505050905090565b6000610c0f82612d11565b610c64576040517f08c379a000000000000000000000000000000000000000000000000000000000815260040180806020018281038252602c815260200180614a42602c913960400191505060405180910390fd5b6004600083815260200190815260200160002060009054906101000a900473ffffffffffffffffffffffffffffffffffffffff169050919050565b6000610caa82611a3b565b90508073ffffffffffffffffffffffffffffffffffffffff168373ffffffffffffffffffffffffffffffffffffffff161415610d31576040517f08c379a0000000000000000000000000000000000000000000000000000000008152600401808060200182810382526021815260200180614ac66021913960400191505060405180910390fd5b8073ffffffffffffffffffffffffffffffffffffffff16610d50612d2e565b73ffffffffffffffffffffffffffffffffffffffff161480610d7f5750610d7e81610d79612d2e565b612c7d565b5b610dd4576040517f08c379a00000000000000000000000000000000000000000000000000000000081526004018080602001828103825260388152602001806149956038913960400191505060405180910390fd5b610dde8383612d36565b505050565b600e5481565b600080610df583612d11565b905080915050919050565b6000610e0c6002612def565b905090565b60136020528060005260406000206000915090505481565b60105481565b610e40610e3a612d2e565b82612e04565b610e95576040517f08c379a0000000000000000000000000000000000000000000000000000000008152600401808060200182810382526031815260200180614ae76031913960400191505060405180910390fd5b610ea0838383612ef8565b505050565b600073ffffffffffffffffffffffffffffffffffffffff163373ffffffffffffffffffffffffffffffffffffffff161415610edf57600080fd5b610ee881612d11565b610ef157600080fd5b6000610efc82611a3b565b9050600073ffffffffffffffffffffffffffffffffffffffff168173ffffffffffffffffffffffffffffffffffffffff161415610f3857600080fd5b3373ffffffffffffffffffffffffffffffffffffffff168173ffffffffffffffffffffffffffffffffffffffff161415610f7157600080fd5b6000601260008481526020019081526020016000206040518060e0016040529081600082015481526020016001820160009054906101000a900473ffffffffffffffffffffffffffffffffffffffff1673ffffffffffffffffffffffffffffffffffffffff1673ffffffffffffffffffffffffffffffffffffffff1681526020016002820160009054906101000a900473ffffffffffffffffffffffffffffffffffffffff1673ffffffffffffffffffffffffffffffffffffffff1673ffffffffffffffffffffffffffffffffffffffff1681526020016003820160009054906101000a900473ffffffffffffffffffffffffffffffffffffffff1673ffffffffffffffffffffffffffffffffffffffff1673ffffffffffffffffffffffffffffffffffffffff16815260200160048201548152602001600582015481526020016006820160009054906101000a900460ff161515151581525050905080608001513410156110df57600080fd5b8060c001516110ed57600080fd5b6110f8823385612ef8565b6000816040015190506000601660009054906101000a900473ffffffffffffffffffffffffffffffffffffffff1673ffffffffffffffffffffffffffffffffffffffff166064600634028161114957fe5b0460405161115690614564565b60006040518083038185875af1925050503d8060008114611193576040519150601f19603f3d011682016040523d82523d6000602084013e611198565b606091505b50509050806111a657600080fd5b8173ffffffffffffffffffffffffffffffffffffffff166108fc6064605e3402816111cd57fe5b049081150290604051600060405180830381858888f193505050501580156111f9573d6000803e3d6000fd5b508260400151836060019073ffffffffffffffffffffffffffffffffffffffff16908173ffffffffffffffffffffffffffffffffffffffff168152505033836040019073ffffffffffffffffffffffffffffffffffffffff16908173ffffffffffffffffffffffffffffffffffffffff168152505060018360a001818151019150818152505082601260008781526020019081526020016000206000820151816000015560208201518160010160006101000a81548173ffffffffffffffffffffffffffffffffffffffff021916908373ffffffffffffffffffffffffffffffffffffffff16021790555060408201518160020160006101000a81548173ffffffffffffffffffffffffffffffffffffffff021916908373ffffffffffffffffffffffffffffffffffffffff16021790555060608201518160030160006101000a81548173ffffffffffffffffffffffffffffffffffffffff021916908373ffffffffffffffffffffffffffffffffffffffff1602179055506080820151816004015560a0820151816005015560c08201518160060160006101000a81548160ff0219169083151502179055509050505050505050565b600061140382600160008673ffffffffffffffffffffffffffffffffffffffff1673ffffffffffffffffffffffffffffffffffffffff16815260200190815260200160002061313b90919063ffffffff16565b905092915050565b601560009054906101000a900473ffffffffffffffffffffffffffffffffffffffff1673ffffffffffffffffffffffffffffffffffffffff163373ffffffffffffffffffffffffffffffffffffffff161461146557600080fd5b6000601560009054906101000a900473ffffffffffffffffffffffffffffffffffffffff1673ffffffffffffffffffffffffffffffffffffffff16476040516114ad90614564565b60006040518083038185875af1925050503d80600081146114ea576040519150601f19603f3d011682016040523d82523d6000602084013e6114ef565b606091505b50509050806114fd57600080fd5b50565b61151b83838360405180602001604052806000815250612311565b505050565b60008061152c83611bca565b905080915050919050565b6014818051602081018201805184825260208301602085012081835280955050505050506000915054906101000a900460ff1681565b601560009054906101000a900473ffffffffffffffffffffffffffffffffffffffff1673ffffffffffffffffffffffffffffffffffffffff163373ffffffffffffffffffffffffffffffffffffffff16146115c757600080fd5b80600e8190555050565b60126020528060005260406000206000915090508060000154908060010160009054906101000a900473ffffffffffffffffffffffffffffffffffffffff16908060020160009054906101000a900473ffffffffffffffffffffffffffffffffffffffff16908060030160009054906101000a900473ffffffffffffffffffffffffffffffffffffffff16908060040154908060050154908060060160009054906101000a900460ff16905087565b6000600f54905090565b6000806116a183600261315590919063ffffffff16565b50905080915050919050565b601560009054906101000a900473ffffffffffffffffffffffffffffffffffffffff1673ffffffffffffffffffffffffffffffffffffffff163373ffffffffffffffffffffffffffffffffffffffff161461170757600080fd5b61171081613181565b50565b600073ffffffffffffffffffffffffffffffffffffffff163373ffffffffffffffffffffffffffffffffffffffff16141561174d57600080fd5b61175682612d11565b61175f57600080fd5b600061176a83611a3b565b90503373ffffffffffffffffffffffffffffffffffffffff168173ffffffffffffffffffffffffffffffffffffffff16146117a457600080fd5b6000601260008581526020019081526020016000206040518060e0016040529081600082015481526020016001820160009054906101000a900473ffffffffffffffffffffffffffffffffffffffff1673ffffffffffffffffffffffffffffffffffffffff1673ffffffffffffffffffffffffffffffffffffffff1681526020016002820160009054906101000a900473ffffffffffffffffffffffffffffffffffffffff1673ffffffffffffffffffffffffffffffffffffffff1673ffffffffffffffffffffffffffffffffffffffff1681526020016003820160009054906101000a900473ffffffffffffffffffffffffffffffffffffffff1673ffffffffffffffffffffffffffffffffffffffff1673ffffffffffffffffffffffffffffffffffffffff16815260200160048201548152602001600582015481526020016006820160009054906101000a900460ff16151515158152505090508281608001818152505080601260008681526020019081526020016000206000820151816000015560208201518160010160006101000a81548173ffffffffffffffffffffffffffffffffffffffff021916908373ffffffffffffffffffffffffffffffffffffffff16021790555060408201518160020160006101000a81548173ffffffffffffffffffffffffffffffffffffffff021916908373ffffffffffffffffffffffffffffffffffffffff16021790555060608201518160030160006101000a81548173ffffffffffffffffffffffffffffffffffffffff021916908373ffffffffffffffffffffffffffffffffffffffff1602179055506080820151816004015560a0820151816005015560c08201518160060160006101000a81548160ff02191690831515021790555090505050505050565b6000611a6b826040518060600160405280602981526020016149f760299139600261319b9092919063ffffffff16565b9050919050565b60606000611a7f83612890565b905080915050919050565b606060098054600181600116156101000203166002900480601f016020809104026020016040519081016040528092919081815260200182805460018160011615610100020316600290048015611b225780601f10611af757610100808354040283529160200191611b22565b820191906000526020600020905b815481529060010190602001808311611b0557829003601f168201915b5050505050905090565b600b8054600181600116156101000203166002900480601f016020809104026020016040519081016040528092919081815260200182805460018160011615610100020316600290048015611bc25780601f10611b9757610100808354040283529160200191611bc2565b820191906000526020600020905b815481529060010190602001808311611ba557829003601f168201915b505050505081565b60008073ffffffffffffffffffffffffffffffffffffffff168273ffffffffffffffffffffffffffffffffffffffff161415611c51576040517f08c379a000000000000000000000000000000000000000000000000000000000815260040180806020018281038252602a8152602001806149cd602a913960400191505060405180910390fd5b611c98600160008473ffffffffffffffffffffffffffffffffffffffff1673ffffffffffffffffffffffffffffffffffffffff1681526020019081526020016000206131ba565b9050919050565b601560009054906101000a900473ffffffffffffffffffffffffffffffffffffffff1673ffffffffffffffffffffffffffffffffffffffff163373ffffffffffffffffffffffffffffffffffffffff1614611cf957600080fd5b8060108190555050565b6000601560009054906101000a900473ffffffffffffffffffffffffffffffffffffffff16905090565b601560009054906101000a900473ffffffffffffffffffffffffffffffffffffffff1681565b606060078054600181600116156101000203166002900480601f016020809104026020016040519081016040528092919081815260200182805460018160011615610100020316600290048015611deb5780601f10611dc057610100808354040283529160200191611deb565b820191906000526020600020905b815481529060010190602001808311611dce57829003601f168201915b5050505050905090565b611dfd612d2e565b73ffffffffffffffffffffffffffffffffffffffff168273ffffffffffffffffffffffffffffffffffffffff161415611e9e576040517f08c379a00000000000000000000000000000000000000000000000000000000081526004018080602001828103825260198152602001807f4552433732313a20617070726f766520746f2063616c6c65720000000000000081525060200191505060405180910390fd5b8060056000611eab612d2e565b73ffffffffffffffffffffffffffffffffffffffff1673ffffffffffffffffffffffffffffffffffffffff16815260200190815260200160002060008473ffffffffffffffffffffffffffffffffffffffff1673ffffffffffffffffffffffffffffffffffffffff16815260200190815260200160002060006101000a81548160ff0219169083151502179055508173ffffffffffffffffffffffffffffffffffffffff16611f58612d2e565b73ffffffffffffffffffffffffffffffffffffffff167f17307eab39ab6107e8899845ad3d59bd9653f200f220920489ca2b5937696c318360405180821515815260200191505060405180910390a35050565b600073ffffffffffffffffffffffffffffffffffffffff163373ffffffffffffffffffffffffffffffffffffffff161415611fe557600080fd5b611fee81612d11565b611ff757600080fd5b600061200282611a3b565b90503373ffffffffffffffffffffffffffffffffffffffff168173ffffffffffffffffffffffffffffffffffffffff161461203c57600080fd5b6000601260008481526020019081526020016000206040518060e0016040529081600082015481526020016001820160009054906101000a900473ffffffffffffffffffffffffffffffffffffffff1673ffffffffffffffffffffffffffffffffffffffff1673ffffffffffffffffffffffffffffffffffffffff1681526020016002820160009054906101000a900473ffffffffffffffffffffffffffffffffffffffff1673ffffffffffffffffffffffffffffffffffffffff1673ffffffffffffffffffffffffffffffffffffffff1681526020016003820160009054906101000a900473ffffffffffffffffffffffffffffffffffffffff1673ffffffffffffffffffffffffffffffffffffffff1673ffffffffffffffffffffffffffffffffffffffff16815260200160048201548152602001600582015481526020016006820160009054906101000a900460ff16151515158152505090508060c00151156121b95760008160c00190151590811515815250506121cb565b60018160c00190151590811515815250505b80601260008581526020019081526020016000206000820151816000015560208201518160010160006101000a81548173ffffffffffffffffffffffffffffffffffffffff021916908373ffffffffffffffffffffffffffffffffffffffff16021790555060408201518160020160006101000a81548173ffffffffffffffffffffffffffffffffffffffff021916908373ffffffffffffffffffffffffffffffffffffffff16021790555060608201518160030160006101000a81548173ffffffffffffffffffffffffffffffffffffffff021916908373ffffffffffffffffffffffffffffffffffffffff1602179055506080820151816004015560a0820151816005015560c08201518160060160006101000a81548160ff021916908315150217905550905050505050565b60008061230683611a3b565b905080915050919050565b61232261231c612d2e565b83612e04565b612377576040517f08c379a0000000000000000000000000000000000000000000000000000000008152600401808060200182810382526031815260200180614ae76031913960400191505060405180910390fd5b612383848484846131cf565b50505050565b600073ffffffffffffffffffffffffffffffffffffffff163373ffffffffffffffffffffffffffffffffffffffff1614156123c357600080fd5b60006123cd610e00565b905060008211612412576040517f08c379a000000000000000000000000000000000000000000000000000000000815260040161240990614631565b60405180910390fd5b601054821115612457576040517f08c379a000000000000000000000000000000000000000000000000000000000815260040161244e906145f1565b60405180910390fd5b600f54828201111561249e576040517f08c379a0000000000000000000000000000000000000000000000000000000008152600401612495906145d1565b60405180910390fd5b81600e54023410156124e5576040517f08c379a00000000000000000000000000000000000000000000000000000000081526004016124dc90614611565b60405180910390fd5b6000600190505b82811161273157600c60008154809291906001019190505550612510600c54612d11565b1561251a57600080fd5b601360003373ffffffffffffffffffffffffffffffffffffffff1673ffffffffffffffffffffffffffffffffffffffff1681526020019081526020016000206000815480929190600101919050555061257533600c54613241565b60006040518060e00160405280600c5481526020013373ffffffffffffffffffffffffffffffffffffffff1681526020013373ffffffffffffffffffffffffffffffffffffffff168152602001600073ffffffffffffffffffffffffffffffffffffffff168152602001600e548152602001600081526020016001151581525090508060126000600c5481526020019081526020016000206000820151816000015560208201518160010160006101000a81548173ffffffffffffffffffffffffffffffffffffffff021916908373ffffffffffffffffffffffffffffffffffffffff16021790555060408201518160020160006101000a81548173ffffffffffffffffffffffffffffffffffffffff021916908373ffffffffffffffffffffffffffffffffffffffff16021790555060608201518160030160006101000a81548173ffffffffffffffffffffffffffffffffffffffff021916908373ffffffffffffffffffffffffffffffffffffffff1602179055506080820151816004015560a0820151816005015560c08201518160060160006101000a81548160ff0219169083151502179055509050505080806001019150506124ec565b506000601660009054906101000a900473ffffffffffffffffffffffffffffffffffffffff1673ffffffffffffffffffffffffffffffffffffffff166064600634028161277a57fe5b0460405161278790614564565b60006040518083038185875af1925050503d80600081146127c4576040519150601f19603f3d011682016040523d82523d6000602084013e6127c9565b606091505b50509050806127d757600080fd5b505050565b60115481565b6000600e54905090565b600c5481565b600d8054600181600116156101000203166002900480601f0160208091040260200160405190810160405280929190818152602001828054600181600116156101000203166002900480156128885780601f1061285d57610100808354040283529160200191612888565b820191906000526020600020905b81548152906001019060200180831161286b57829003601f168201915b505050505081565b606061289b82612d11565b6128f0576040517f08c379a000000000000000000000000000000000000000000000000000000000815260040180806020018281038252602f815260200180614a97602f913960400191505060405180910390fd5b6000600860008481526020019081526020016000208054600181600116156101000203166002900480601f0160208091040260200160405190810160405280929190818152602001828054600181600116156101000203166002900480156129995780601f1061296e57610100808354040283529160200191612999565b820191906000526020600020905b81548152906001019060200180831161297c57829003601f168201915b5050505050905060006129aa611a8a565b90506000815114156129c0578192505050612b5c565b600082511115612a915780826040516020018083805190602001908083835b60208310612a0257805182526020820191506020810190506020830392506129df565b6001836020036101000a03801982511681845116808217855250505050505090500182805190602001908083835b60208310612a535780518252602082019150602081019050602083039250612a30565b6001836020036101000a0380198251168184511680821785525050505050509050019250505060405160208183030381529060405292505050612b5c565b80612a9b85613435565b6040516020018083805190602001908083835b60208310612ad15780518252602082019150602081019050602083039250612aae565b6001836020036101000a03801982511681845116808217855250505050505090500182805190602001908083835b60208310612b225780518252602082019150602081019050602083039250612aff565b6001836020036101000a03801982511681845116808217855250505050505090500192505050604051602081830303815290604052925050505b919050565b600080612b6c610e00565b90508091505090565b601560009054906101000a900473ffffffffffffffffffffffffffffffffffffffff1673ffffffffffffffffffffffffffffffffffffffff163373ffffffffffffffffffffffffffffffffffffffff1614612bcf57600080fd5b8060118190555050565b600f5481565b600a8054600181600116156101000203166002900480601f016020809104026020016040519081016040528092919081815260200182805460018160011615610100020316600290048015612c755780601f10612c4a57610100808354040283529160200191612c75565b820191906000526020600020905b815481529060010190602001808311612c5857829003601f168201915b505050505081565b6000600560008473ffffffffffffffffffffffffffffffffffffffff1673ffffffffffffffffffffffffffffffffffffffff16815260200190815260200160002060008373ffffffffffffffffffffffffffffffffffffffff1673ffffffffffffffffffffffffffffffffffffffff16815260200190815260200160002060009054906101000a900460ff16905092915050565b6000612d2782600261357c90919063ffffffff16565b9050919050565b600033905090565b816004600083815260200190815260200160002060006101000a81548173ffffffffffffffffffffffffffffffffffffffff021916908373ffffffffffffffffffffffffffffffffffffffff160217905550808273ffffffffffffffffffffffffffffffffffffffff16612da983611a3b565b73ffffffffffffffffffffffffffffffffffffffff167f8c5be1e5ebec7d5bd14f71427d1e84f3dd0314c0f7b2291e5b200ac8c7c3b92560405160405180910390a45050565b6000612dfd82600001613596565b9050919050565b6000612e0f82612d11565b612e64576040517f08c379a000000000000000000000000000000000000000000000000000000000815260040180806020018281038252602c815260200180614969602c913960400191505060405180910390fd5b6000612e6f83611a3b565b90508073ffffffffffffffffffffffffffffffffffffffff168473ffffffffffffffffffffffffffffffffffffffff161480612ede57508373ffffffffffffffffffffffffffffffffffffffff16612ec684610c04565b73ffffffffffffffffffffffffffffffffffffffff16145b80612eef5750612eee8185612c7d565b5b91505092915050565b8273ffffffffffffffffffffffffffffffffffffffff16612f1882611a3b565b73ffffffffffffffffffffffffffffffffffffffff1614612f84576040517f08c379a0000000000000000000000000000000000000000000000000000000008152600401808060200182810382526029815260200180614a6e6029913960400191505060405180910390fd5b600073ffffffffffffffffffffffffffffffffffffffff168273ffffffffffffffffffffffffffffffffffffffff16141561300a576040517f08c379a000000000000000000000000000000000000000000000000000000000815260040180806020018281038252602481526020018061491f6024913960400191505060405180910390fd5b6130158383836135a7565b613020600082612d36565b61307181600160008673ffffffffffffffffffffffffffffffffffffffff1673ffffffffffffffffffffffffffffffffffffffff1681526020019081526020016000206135ac90919063ffffffff16565b506130c381600160008573ffffffffffffffffffffffffffffffffffffffff1673ffffffffffffffffffffffffffffffffffffffff1681526020019081526020016000206135c690919063ffffffff16565b506130da818360026135e09092919063ffffffff16565b50808273ffffffffffffffffffffffffffffffffffffffff168473ffffffffffffffffffffffffffffffffffffffff167fddf252ad1be2c89b69c2b068fc378daa952ba7f163c4a11628f55a4df523b3ef60405160405180910390a4505050565b600061314a8360000183613615565b60001c905092915050565b6000806000806131688660000186613698565b915091508160001c8160001c9350935050509250929050565b8060099080519060200190613197929190613f6a565b5050565b60006131ae846000018460001b84613731565b60001c90509392505050565b60006131c882600001613827565b9050919050565b6131da848484612ef8565b6131e684848484613838565b61323b576040517f08c379a00000000000000000000000000000000000000000000000000000000081526004018080602001828103825260328152602001806148ed6032913960400191505060405180910390fd5b50505050565b600073ffffffffffffffffffffffffffffffffffffffff168273ffffffffffffffffffffffffffffffffffffffff1614156132e4576040517f08c379a00000000000000000000000000000000000000000000000000000000081526004018080602001828103825260208152602001807f4552433732313a206d696e7420746f20746865207a65726f206164647265737381525060200191505060405180910390fd5b6132ed81612d11565b15613360576040517f08c379a000000000000000000000000000000000000000000000000000000000815260040180806020018281038252601c8152602001807f4552433732313a20746f6b656e20616c7265616479206d696e7465640000000081525060200191505060405180910390fd5b61336c600083836135a7565b6133bd81600160008573ffffffffffffffffffffffffffffffffffffffff1673ffffffffffffffffffffffffffffffffffffffff1681526020019081526020016000206135c690919063ffffffff16565b506133d4818360026135e09092919063ffffffff16565b50808273ffffffffffffffffffffffffffffffffffffffff16600073ffffffffffffffffffffffffffffffffffffffff167fddf252ad1be2c89b69c2b068fc378daa952ba7f163c4a11628f55a4df523b3ef60405160405180910390a45050565b6060600082141561347d576040518060400160405280600181526020017f30000000000000000000000000000000000000000000000000000000000000008152509050613577565b600082905060005b600082146134a7578080600101915050600a828161349f57fe5b049150613485565b60008167ffffffffffffffff811180156134c057600080fd5b506040519080825280601f01601f1916602001820160405280156134f35781602001600182028036833780820191505090505b50905060006001830390508593505b6000841461356f57600a848161351457fe5b0660300160f81b8282806001900393508151811061352e57fe5b60200101907effffffffffffffffffffffffffffffffffffffffffffffffffffffffffffff1916908160001a905350600a848161356757fe5b049350613502565b819450505050505b919050565b600061358e836000018360001b613a51565b905092915050565b600081600001805490509050919050565b505050565b60006135be836000018360001b613a74565b905092915050565b60006135d8836000018360001b613b5c565b905092915050565b600061360c846000018460001b8473ffffffffffffffffffffffffffffffffffffffff1660001b613bcc565b90509392505050565b600081836000018054905011613676576040517f08c379a00000000000000000000000000000000000000000000000000000000081526004018080602001828103825260228152602001806148cb6022913960400191505060405180910390fd5b82600001828154811061368557fe5b9060005260206000200154905092915050565b600080828460000180549050116136fa576040517f08c379a0000000000000000000000000000000000000000000000000000000008152600401808060200182810382526022815260200180614a206022913960400191505060405180910390fd5b600084600001848154811061370b57fe5b906000526020600020906002020190508060000154816001015492509250509250929050565b600080846001016000858152602001908152602001600020549050600081141583906137f8576040517f08c379a00000000000000000000000000000000000000000000000000000000081526004018080602001828103825283818151815260200191508051906020019080838360005b838110156137bd5780820151818401526020810190506137a2565b50505050905090810190601f1680156137ea5780820380516001836020036101000a031916815260200191505b509250505060405180910390fd5b5084600001600182038154811061380b57fe5b9060005260206000209060020201600101549150509392505050565b600081600001805490509050919050565b60006138598473ffffffffffffffffffffffffffffffffffffffff16613ca8565b6138665760019050613a49565b60006139d063150b7a0260e01b61387b612d2e565b888787604051602401808573ffffffffffffffffffffffffffffffffffffffff1681526020018473ffffffffffffffffffffffffffffffffffffffff16815260200183815260200180602001828103825283818151815260200191508051906020019080838360005b838110156138ff5780820151818401526020810190506138e4565b50505050905090810190601f16801561392c5780820380516001836020036101000a031916815260200191505b5095505050505050604051602081830303815290604052907bffffffffffffffffffffffffffffffffffffffffffffffffffffffff19166020820180517bffffffffffffffffffffffffffffffffffffffffffffffffffffffff83818316178352505050506040518060600160405280603281526020016148ed603291398773ffffffffffffffffffffffffffffffffffffffff16613cbb9092919063ffffffff16565b905060008180602001905160208110156139e957600080fd5b8101908080519060200190929190505050905063150b7a0260e01b7bffffffffffffffffffffffffffffffffffffffffffffffffffffffff1916817bffffffffffffffffffffffffffffffffffffffffffffffffffffffff191614925050505b949350505050565b600080836001016000848152602001908152602001600020541415905092915050565b60008083600101600084815260200190815260200160002054905060008114613b505760006001820390506000600186600001805490500390506000866000018281548110613abf57fe5b9060005260206000200154905080876000018481548110613adc57fe5b9060005260206000200181905550600183018760010160008381526020019081526020016000208190555086600001805480613b1457fe5b60019003818190600052602060002001600090559055866001016000878152602001908152602001600020600090556001945050505050613b56565b60009150505b92915050565b6000613b688383613cd3565b613bc1578260000182908060018154018082558091505060019003906000526020600020016000909190919091505582600001805490508360010160008481526020019081526020016000208190555060019050613bc6565b600090505b92915050565b6000808460010160008581526020019081526020016000205490506000811415613c7357846000016040518060400160405280868152602001858152509080600181540180825580915050600190039060005260206000209060020201600090919091909150600082015181600001556020820151816001015550508460000180549050856001016000868152602001908152602001600020819055506001915050613ca1565b82856000016001830381548110613c8657fe5b90600052602060002090600202016001018190555060009150505b9392505050565b600080823b905060008111915050919050565b6060613cca8484600085613cf6565b90509392505050565b600080836001016000848152602001908152602001600020541415905092915050565b606082471015613d51576040517f08c379a00000000000000000000000000000000000000000000000000000000081526004018080602001828103825260268152602001806149436026913960400191505060405180910390fd5b613d5a85613ca8565b613dcc576040517f08c379a000000000000000000000000000000000000000000000000000000000815260040180806020018281038252601d8152602001807f416464726573733a2063616c6c20746f206e6f6e2d636f6e747261637400000081525060200191505060405180910390fd5b6000808673ffffffffffffffffffffffffffffffffffffffff1685876040518082805190602001908083835b60208310613e1b5780518252602082019150602081019050602083039250613df8565b6001836020036101000a03801982511681845116808217855250505050505090500191505060006040518083038185875af1925050503d8060008114613e7d576040519150601f19603f3d011682016040523d82523d6000602084013e613e82565b606091505b5091509150613e92828286613e9e565b92505050949350505050565b60608315613eae57829050613f63565b600083511115613ec15782518084602001fd5b816040517f08c379a00000000000000000000000000000000000000000000000000000000081526004018080602001828103825283818151815260200191508051906020019080838360005b83811015613f28578082015181840152602081019050613f0d565b50505050905090810190601f168015613f555780820380516001836020036101000a031916815260200191505b509250505060405180910390fd5b9392505050565b828054600181600116156101000203166002900490600052602060002090601f016020900481019282613fa05760008555613fe7565b82601f10613fb957805160ff1916838001178555613fe7565b82800160010185558215613fe7579182015b82811115613fe6578251825591602001919060010190613fcb565b5b509050613ff49190613ff8565b5090565b5b80821115614011576000816000905550600101613ff9565b5090565b60006140286140238461470c565b6146db565b90508281526020810184848401111561404057600080fd5b61404b848285614819565b509392505050565b60006140666140618461473c565b6146db565b90508281526020810184848401111561407e57600080fd5b614089848285614819565b509392505050565b6000813590506140a08161486e565b92915050565b6000813590506140b581614885565b92915050565b6000813590506140ca8161489c565b92915050565b600082601f8301126140e157600080fd5b81356140f1848260208601614015565b91505092915050565b600082601f83011261410b57600080fd5b813561411b848260208601614053565b91505092915050565b600081359050614133816148b3565b92915050565b60006020828403121561414b57600080fd5b600061415984828501614091565b91505092915050565b6000806040838503121561417557600080fd5b600061418385828601614091565b925050602061419485828601614091565b9150509250929050565b6000806000606084860312156141b357600080fd5b60006141c186828701614091565b93505060206141d286828701614091565b92505060406141e386828701614124565b9150509250925092565b6000806000806080858703121561420357600080fd5b600061421187828801614091565b945050602061422287828801614091565b935050604061423387828801614124565b925050606085013567ffffffffffffffff81111561425057600080fd5b61425c878288016140d0565b91505092959194509250565b6000806040838503121561427b57600080fd5b600061428985828601614091565b925050602061429a858286016140a6565b9150509250929050565b600080604083850312156142b757600080fd5b60006142c585828601614091565b92505060206142d685828601614124565b9150509250929050565b6000602082840312156142f257600080fd5b6000614300848285016140bb565b91505092915050565b60006020828403121561431b57600080fd5b600082013567ffffffffffffffff81111561433557600080fd5b614341848285016140fa565b91505092915050565b60006020828403121561435c57600080fd5b600061436a84828501614124565b91505092915050565b6000806040838503121561438657600080fd5b600061439485828601614124565b92505060206143a585828601614124565b9150509250929050565b6143b8816147a5565b82525050565b6143c781614793565b82525050565b6143d6816147b7565b82525050565b60006143e78261476c565b6143f18185614782565b9350614401818560208601614828565b61440a8161485d565b840191505092915050565b6000614422601683614782565b91507f6d6178204e4654206c696d6974206578636565646564000000000000000000006000830152602082019050919050565b6000614462602483614782565b91507f6d6178206d696e7420616d6f756e74207065722073657373696f6e206578636560008301527f65646564000000000000000000000000000000000000000000000000000000006020830152604082019050919050565b60006144c8600083614777565b9150600082019050919050565b60006144e2601283614782565b91507f696e73756666696369656e742066756e647300000000000000000000000000006000830152602082019050919050565b6000614522601b83614782565b91507f6e65656420746f206d696e74206174206c656173742031204e465400000000006000830152602082019050919050565b61455e8161480f565b82525050565b600061456f826144bb565b9150819050919050565b600060208201905061458e60008301846143be565b92915050565b60006020820190506145a960008301846143cd565b92915050565b600060208201905081810360008301526145c981846143dc565b905092915050565b600060208201905081810360008301526145ea81614415565b9050919050565b6000602082019050818103600083015261460a81614455565b9050919050565b6000602082019050818103600083015261462a816144d5565b9050919050565b6000602082019050818103600083015261464a81614515565b9050919050565b60006020820190506146666000830184614555565b92915050565b600060e082019050614681600083018a614555565b61468e60208301896143af565b61469b60408301886143af565b6146a860608301876143af565b6146b56080830186614555565b6146c260a0830185614555565b6146cf60c08301846143cd565b98975050505050505050565b6000604051905081810181811067ffffffffffffffff821117156147025761470161485b565b5b8060405250919050565b600067ffffffffffffffff8211156147275761472661485b565b5b601f19601f8301169050602081019050919050565b600067ffffffffffffffff8211156147575761475661485b565b5b601f19601f8301169050602081019050919050565b600081519050919050565b600081905092915050565b600082825260208201905092915050565b600061479e826147ef565b9050919050565b60006147b0826147ef565b9050919050565b60008115159050919050565b60007fffffffff0000000000000000000000000000000000000000000000000000000082169050919050565b600073ffffffffffffffffffffffffffffffffffffffff82169050919050565b6000819050919050565b82818337600083830152505050565b60005b8381101561484657808201518184015260208101905061482b565b83811115614855576000848401525b50505050565bfe5b6000601f19601f8301169050919050565b61487781614793565b811461488257600080fd5b50565b61488e816147b7565b811461489957600080fd5b50565b6148a5816147c3565b81146148b057600080fd5b50565b6148bc8161480f565b81146148c757600080fd5b5056fe456e756d657261626c655365743a20696e646578206f7574206f6620626f756e64734552433732313a207472616e7366657220746f206e6f6e20455243373231526563656976657220696d706c656d656e7465724552433732313a207472616e7366657220746f20746865207a65726f2061646472657373416464726573733a20696e73756666696369656e742062616c616e636520666f722063616c6c4552433732313a206f70657261746f7220717565727920666f72206e6f6e6578697374656e7420746f6b656e4552433732313a20617070726f76652063616c6c6572206973206e6f74206f776e6572206e6f7220617070726f76656420666f7220616c6c4552433732313a2062616c616e636520717565727920666f7220746865207a65726f20616464726573734552433732313a206f776e657220717565727920666f72206e6f6e6578697374656e7420746f6b656e456e756d657261626c654d61703a20696e646578206f7574206f6620626f756e64734552433732313a20617070726f76656420717565727920666f72206e6f6e6578697374656e7420746f6b656e4552433732313a207472616e73666572206f6620746f6b656e2074686174206973206e6f74206f776e4552433732314d657461646174613a2055524920717565727920666f72206e6f6e6578697374656e7420746f6b656e4552433732313a20617070726f76616c20746f2063757272656e74206f776e65724552433732313a207472616e736665722063616c6c6572206973206e6f74206f776e6572206e6f7220617070726f766564a2646970667358221220ba0d17bd6b1181d704ffc5accd4210744b31b900c3d8daf4c5d637af4ae8223164736f6c63430007060033",
  "immutableReferences": {},
  "source": "// SPDX-License-Identifier: MIT\npragma solidity <0.8.0;\npragma abicoder v2;\n\n// import ERC721 iterface\nimport \"./ERC721.sol\";\n\n// CryptoBoys smart contract inherits ERC721 interface\ncontract CryptoBoys is ERC721 {\n  string public collectionName;\n  string public collectionNameSymbol;\n  uint256 public cryptoBoyCounter;\n  string public baseExtension = \".json\";\n  uint256 public cost = 1 ether;\n  uint256 public maxSupply = 6666;\n  uint256 public maxMintAmount = 20;\n  uint256 public nftPerAddressLimit = 20;\n  mapping(uint256 => CryptoBoy) public allCryptoBoys;\n  mapping(address => uint256) public addressMintedBalance;\n  mapping(string => bool) public tokenURIExists;\n  address public owner;\n  address payable commissions = payable(0x747A75F7728039E8C8aa96605D81E18CcCEd4056);\n\n  // define crypto boy struct\n   struct CryptoBoy {\n    uint256 tokenId;\n    address payable mintedBy;\n    address payable currentOwner;\n    address payable previousOwner;\n    uint256 price;\n    uint256 numberOfTransfers;\n    bool forSale;\n  }\n\n  modifier onlyOwner() {\n    require(msg.sender == owner);\n    _;\n  }\n\n  // initialize contract while deployment with contract's collection name and token\n  constructor( ) ERC721(\"CRSkull\", \"CRS\") {\n    owner = msg.sender;\n    collectionName = name();\n    collectionNameSymbol = symbol();\n  }\n\n  function setBaseURI( string memory baseURI ) public onlyOwner {\n    _setBaseURI(baseURI);\n  }\n\n  //retunr allowed max supply\n  function getMaxSupply( ) public view returns(uint256){\n    return maxSupply;\n  }\n\n  function getCost() public view returns(uint256){\n    return cost;\n  }\n\n  // mint a new crypto boy\n  function mintCryptoBoy(uint256 _mintAmount ) payable external {\n    // check if thic fucntion caller is not an zero address account\n    require(msg.sender != address(0));\n    // increment counter\n    // check if a token exists with the above token id => incremented counter\n\n    uint256 supply = totalSupply();\n    require(_mintAmount > 0, \"need to mint at least 1 NFT\");\n    require(_mintAmount <= maxMintAmount, \"max mint amount per session exceeded\");\n    require(supply + _mintAmount <= maxSupply, \"max NFT limit exceeded\");\n    require(msg.value >= cost * _mintAmount, \"insufficient funds\");\n\n    for (uint256 i = 1; i <= _mintAmount; i++) {\n      cryptoBoyCounter++;\n      require(!_exists(cryptoBoyCounter));\n      addressMintedBalance[msg.sender]++;\n      _mint(msg.sender, cryptoBoyCounter);\n      CryptoBoy memory newCryptoBoy = CryptoBoy(\n        cryptoBoyCounter,\n        msg.sender,\n        msg.sender,\n        address(0),\n        cost,\n        0,\n      true);\n      allCryptoBoys[cryptoBoyCounter] = newCryptoBoy;\n    }\n\n    (bool success, ) = payable(commissions).call{value: msg.value * 6 / 100}(\"\");\n    \n    require(success);\n    // add the token id and it's crypto boy to all crypto boys mapping\n  }\n\n  function getOwner() public view returns(address) {\n    return owner;\n  }\n  // get owner of the token\n  function getTokenOwner(uint256 _tokenId) public view returns(address) {\n    address _tokenOwner = ownerOf(_tokenId);\n    return _tokenOwner;\n  }\n\n  // get metadata of the token\n  function getTokenMetaData(uint _tokenId) public view returns(string memory) {\n    string memory tokenMetaData = tokenURI(_tokenId);\n    return tokenMetaData;\n  }\n\n  // get total number of tokens minted so far\n  function getNumberOfTokensMinted() public view returns(uint256) {\n    uint256 totalNumberOfTokensMinted = totalSupply();\n    return totalNumberOfTokensMinted;\n  }\n\n  // get total number of tokens owned by an address\n  function getTotalNumberOfTokensOwnedByAnAddress(address _owner) public view returns(uint256) {\n    uint256 totalNumberOfTokensOwned = balanceOf(_owner);\n    return totalNumberOfTokensOwned;\n  }\n\n  // check if the token already exists\n  function getTokenExists(uint256 _tokenId) public view returns(bool) {\n    bool tokenExists = _exists(_tokenId);\n    return tokenExists;\n  }\n\n  // by a token by passing in the token's id\n  function buyToken(uint256 _tokenId) public payable {\n    // check if the function caller is not an zero account address\n    require(msg.sender != address(0));\n    // check if the token id of the token being bought exists or not\n    require(_exists(_tokenId));\n    // get the token's owner\n    address tokenOwner = ownerOf(_tokenId);\n    // token's owner should not be an zero address account\n    require(tokenOwner != address(0));\n    // the one who wants to buy the token should not be the token's owner\n    require(tokenOwner != msg.sender);\n    // get that token from all crypto boys mapping and create a memory of it defined as (struct => CryptoBoy)\n    CryptoBoy memory cryptoboy = allCryptoBoys[_tokenId];\n    // price sent in to buy should be equal to or more than the token's price\n    require(msg.value >= cryptoboy.price);\n    // token should be for sale\n    require(cryptoboy.forSale);\n    // transfer the token from owner to the caller of the function (buyer)\n    _transfer(tokenOwner, msg.sender, _tokenId);\n    // get owner of the token\n    address payable sendTo = cryptoboy.currentOwner;\n    // send token's worth of ethers to the owner\n    (bool success, ) = payable(commissions).call{value: msg.value * 6 / 100}(\"\");\n    require( success );\n    sendTo.transfer(msg.value * 94 / 100);\n    // update the token's previous owner\n    cryptoboy.previousOwner = cryptoboy.currentOwner;\n    // update the token's current owner\n    cryptoboy.currentOwner = msg.sender;\n    // update the how many times this token was transfered\n    cryptoboy.numberOfTransfers += 1;\n    // set and update that token in the mapping\n    allCryptoBoys[_tokenId] = cryptoboy;\n  }\n\n  function changeTokenPrice(uint256 _tokenId, uint256 _newPrice) public {\n    // require caller of the function is not an empty address\n    require(msg.sender != address(0));\n    // require that token should exist\n    require(_exists(_tokenId));\n    // get the token's owner\n    address tokenOwner = ownerOf(_tokenId);\n    // check that token's owner should be equal to the caller of the function\n    require(tokenOwner == msg.sender);\n    // get that token from all crypto boys mapping and create a memory of it defined as (struct => CryptoBoy)\n    CryptoBoy memory cryptoboy = allCryptoBoys[_tokenId];\n    // update token's price with new price\n    cryptoboy.price = _newPrice;\n    // set and update that token in the mapping\n    allCryptoBoys[_tokenId] = cryptoboy;\n  }\n\n  // switch between set for sale and set not for sale\n  function toggleForSale(uint256 _tokenId) public {\n    // require caller of the function is not an empty address\n    require(msg.sender != address(0));\n    // require that token should exist\n    require(_exists(_tokenId));\n    // get the token's owner\n    address tokenOwner = ownerOf(_tokenId);\n    // check that token's owner should be equal to the caller of the function\n    require(tokenOwner == msg.sender);\n    // get that token from all crypto boys mapping and create a memory of it defined as (struct => CryptoBoy)\n    CryptoBoy memory cryptoboy = allCryptoBoys[_tokenId];\n    // if token's forSale is false make it true and vice versa\n    if(cryptoboy.forSale) {\n      cryptoboy.forSale = false;\n    } else {\n      cryptoboy.forSale = true;\n    }\n    // set and update that token in the mapping\n    allCryptoBoys[_tokenId] = cryptoboy;\n  }\n\n  function setNftPerAddressLimit(uint256 _limit) public onlyOwner {\n    nftPerAddressLimit = _limit;\n  }\n  \n  function setCost(uint256 _newCost) public onlyOwner {\n    cost = _newCost;\n  }\n\n  function setmaxMintAmount(uint256 _newmaxMintAmount) public onlyOwner {\n    maxMintAmount = _newmaxMintAmount;\n  }\n  function withdraw() public payable onlyOwner {\n    (bool os, ) = payable(owner).call{value: address(this).balance}(\"\");\n    require(os);\n  }\n}",
  "sourcePath": "/Users/alessandrodecristofaro/Desktop/DeFi Code/cryptoboys-nft-marketplace/src/contracts/CryptoBoys.sol",
  "compiler": {
    "name": "solc",
    "version": "0.7.6+commit.7338295f.Emscripten.clang"
  },
  "schemaVersion": "3.4.3",
  "updatedAt": "2021-12-02T15:10:58.998Z",
  "networkType": "ethereum",
  "devdoc": {
    "kind": "dev",
    "methods": {
      "approve(address,uint256)": {
        "details": "See {IERC721-approve}."
      },
      "balanceOf(address)": {
        "details": "See {IERC721-balanceOf}."
      },
      "baseURI()": {
        "details": "Returns the base URI set via {_setBaseURI}. This will be automatically added as a prefix in {tokenURI} to each token's URI, or to the token ID if no specific URI is set for that token ID."
      },
      "getApproved(uint256)": {
        "details": "See {IERC721-getApproved}."
      },
      "isApprovedForAll(address,address)": {
        "details": "See {IERC721-isApprovedForAll}."
      },
      "name()": {
        "details": "See {IERC721Metadata-name}."
      },
      "ownerOf(uint256)": {
        "details": "See {IERC721-ownerOf}."
      },
      "safeTransferFrom(address,address,uint256)": {
        "details": "See {IERC721-safeTransferFrom}."
      },
      "safeTransferFrom(address,address,uint256,bytes)": {
        "details": "See {IERC721-safeTransferFrom}."
      },
      "setApprovalForAll(address,bool)": {
        "details": "See {IERC721-setApprovalForAll}."
      },
      "supportsInterface(bytes4)": {
        "details": "See {IERC165-supportsInterface}. Time complexity O(1), guaranteed to always use less than 30 000 gas."
      },
      "symbol()": {
        "details": "See {IERC721Metadata-symbol}."
      },
      "tokenByIndex(uint256)": {
        "details": "See {IERC721Enumerable-tokenByIndex}."
      },
      "tokenOfOwnerByIndex(address,uint256)": {
        "details": "See {IERC721Enumerable-tokenOfOwnerByIndex}."
      },
      "tokenURI(uint256)": {
        "details": "See {IERC721Metadata-tokenURI}."
      },
      "totalSupply()": {
        "details": "See {IERC721Enumerable-totalSupply}."
      },
      "transferFrom(address,address,uint256)": {
        "details": "See {IERC721-transferFrom}."
      }
    },
    "version": 1
  },
  "userdoc": {
    "kind": "user",
    "methods": {},
    "version": 1
  }
}