{
  "contractName": "CryptoBoys",
  "abi": [
    {
      "inputs": [],
      "stateMutability": "nonpayable",
      "type": "constructor"
    },
    {
      "anonymous": false,
      "inputs": [
        {
          "indexed": true,
          "internalType": "address",
          "name": "owner",
          "type": "address"
        },
        {
          "indexed": true,
          "internalType": "address",
          "name": "approved",
          "type": "address"
        },
        {
          "indexed": true,
          "internalType": "uint256",
          "name": "tokenId",
          "type": "uint256"
        }
      ],
      "name": "Approval",
      "type": "event"
    },
    {
      "anonymous": false,
      "inputs": [
        {
          "indexed": true,
          "internalType": "address",
          "name": "owner",
          "type": "address"
        },
        {
          "indexed": true,
          "internalType": "address",
          "name": "operator",
          "type": "address"
        },
        {
          "indexed": false,
          "internalType": "bool",
          "name": "approved",
          "type": "bool"
        }
      ],
      "name": "ApprovalForAll",
      "type": "event"
    },
    {
      "anonymous": false,
      "inputs": [
        {
          "indexed": true,
          "internalType": "address",
          "name": "from",
          "type": "address"
        },
        {
          "indexed": true,
          "internalType": "address",
          "name": "to",
          "type": "address"
        },
        {
          "indexed": true,
          "internalType": "uint256",
          "name": "tokenId",
          "type": "uint256"
        }
      ],
      "name": "Transfer",
      "type": "event"
    },
    {
      "inputs": [
        {
          "internalType": "uint256",
          "name": "",
          "type": "uint256"
        }
      ],
      "name": "allCryptoBoys",
      "outputs": [
        {
          "internalType": "uint256",
          "name": "tokenId",
          "type": "uint256"
        },
        {
          "internalType": "string",
          "name": "tokenName",
          "type": "string"
        },
        {
          "internalType": "string",
          "name": "tokenURI",
          "type": "string"
        },
        {
          "internalType": "address payable",
          "name": "mintedBy",
          "type": "address"
        },
        {
          "internalType": "address payable",
          "name": "currentOwner",
          "type": "address"
        },
        {
          "internalType": "address payable",
          "name": "previousOwner",
          "type": "address"
        },
        {
          "internalType": "uint256",
          "name": "price",
          "type": "uint256"
        },
        {
          "internalType": "uint256",
          "name": "numberOfTransfers",
          "type": "uint256"
        },
        {
          "internalType": "bool",
          "name": "forSale",
          "type": "bool"
        }
      ],
      "stateMutability": "view",
      "type": "function",
      "constant": true
    },
    {
      "inputs": [
        {
          "internalType": "address",
          "name": "to",
          "type": "address"
        },
        {
          "internalType": "uint256",
          "name": "tokenId",
          "type": "uint256"
        }
      ],
      "name": "approve",
      "outputs": [],
      "stateMutability": "nonpayable",
      "type": "function"
    },
    {
      "inputs": [
        {
          "internalType": "address",
          "name": "owner",
          "type": "address"
        }
      ],
      "name": "balanceOf",
      "outputs": [
        {
          "internalType": "uint256",
          "name": "",
          "type": "uint256"
        }
      ],
      "stateMutability": "view",
      "type": "function",
      "constant": true
    },
    {
      "inputs": [],
      "name": "baseURI",
      "outputs": [
        {
          "internalType": "string",
          "name": "",
          "type": "string"
        }
      ],
      "stateMutability": "view",
      "type": "function",
      "constant": true
    },
    {
      "inputs": [],
      "name": "collectionName",
      "outputs": [
        {
          "internalType": "string",
          "name": "",
          "type": "string"
        }
      ],
      "stateMutability": "view",
      "type": "function",
      "constant": true
    },
    {
      "inputs": [],
      "name": "collectionNameSymbol",
      "outputs": [
        {
          "internalType": "string",
          "name": "",
          "type": "string"
        }
      ],
      "stateMutability": "view",
      "type": "function",
      "constant": true
    },
    {
      "inputs": [
        {
          "internalType": "string",
          "name": "",
          "type": "string"
        }
      ],
      "name": "colorExists",
      "outputs": [
        {
          "internalType": "bool",
          "name": "",
          "type": "bool"
        }
      ],
      "stateMutability": "view",
      "type": "function",
      "constant": true
    },
    {
      "inputs": [],
      "name": "cryptoBoyCounter",
      "outputs": [
        {
          "internalType": "uint256",
          "name": "",
          "type": "uint256"
        }
      ],
      "stateMutability": "view",
      "type": "function",
      "constant": true
    },
    {
      "inputs": [
        {
          "internalType": "uint256",
          "name": "tokenId",
          "type": "uint256"
        }
      ],
      "name": "getApproved",
      "outputs": [
        {
          "internalType": "address",
          "name": "",
          "type": "address"
        }
      ],
      "stateMutability": "view",
      "type": "function",
      "constant": true
    },
    {
      "inputs": [
        {
          "internalType": "address",
          "name": "owner",
          "type": "address"
        },
        {
          "internalType": "address",
          "name": "operator",
          "type": "address"
        }
      ],
      "name": "isApprovedForAll",
      "outputs": [
        {
          "internalType": "bool",
          "name": "",
          "type": "bool"
        }
      ],
      "stateMutability": "view",
      "type": "function",
      "constant": true
    },
    {
      "inputs": [],
      "name": "name",
      "outputs": [
        {
          "internalType": "string",
          "name": "",
          "type": "string"
        }
      ],
      "stateMutability": "view",
      "type": "function",
      "constant": true
    },
    {
      "inputs": [
        {
          "internalType": "uint256",
          "name": "tokenId",
          "type": "uint256"
        }
      ],
      "name": "ownerOf",
      "outputs": [
        {
          "internalType": "address",
          "name": "",
          "type": "address"
        }
      ],
      "stateMutability": "view",
      "type": "function",
      "constant": true
    },
    {
      "inputs": [
        {
          "internalType": "address",
          "name": "from",
          "type": "address"
        },
        {
          "internalType": "address",
          "name": "to",
          "type": "address"
        },
        {
          "internalType": "uint256",
          "name": "tokenId",
          "type": "uint256"
        }
      ],
      "name": "safeTransferFrom",
      "outputs": [],
      "stateMutability": "nonpayable",
      "type": "function"
    },
    {
      "inputs": [
        {
          "internalType": "address",
          "name": "from",
          "type": "address"
        },
        {
          "internalType": "address",
          "name": "to",
          "type": "address"
        },
        {
          "internalType": "uint256",
          "name": "tokenId",
          "type": "uint256"
        },
        {
          "internalType": "bytes",
          "name": "_data",
          "type": "bytes"
        }
      ],
      "name": "safeTransferFrom",
      "outputs": [],
      "stateMutability": "nonpayable",
      "type": "function"
    },
    {
      "inputs": [
        {
          "internalType": "address",
          "name": "operator",
          "type": "address"
        },
        {
          "internalType": "bool",
          "name": "approved",
          "type": "bool"
        }
      ],
      "name": "setApprovalForAll",
      "outputs": [],
      "stateMutability": "nonpayable",
      "type": "function"
    },
    {
      "inputs": [
        {
          "internalType": "bytes4",
          "name": "interfaceId",
          "type": "bytes4"
        }
      ],
      "name": "supportsInterface",
      "outputs": [
        {
          "internalType": "bool",
          "name": "",
          "type": "bool"
        }
      ],
      "stateMutability": "view",
      "type": "function",
      "constant": true
    },
    {
      "inputs": [],
      "name": "symbol",
      "outputs": [
        {
          "internalType": "string",
          "name": "",
          "type": "string"
        }
      ],
      "stateMutability": "view",
      "type": "function",
      "constant": true
    },
    {
      "inputs": [
        {
          "internalType": "uint256",
          "name": "index",
          "type": "uint256"
        }
      ],
      "name": "tokenByIndex",
      "outputs": [
        {
          "internalType": "uint256",
          "name": "",
          "type": "uint256"
        }
      ],
      "stateMutability": "view",
      "type": "function",
      "constant": true
    },
    {
      "inputs": [
        {
          "internalType": "string",
          "name": "",
          "type": "string"
        }
      ],
      "name": "tokenNameExists",
      "outputs": [
        {
          "internalType": "bool",
          "name": "",
          "type": "bool"
        }
      ],
      "stateMutability": "view",
      "type": "function",
      "constant": true
    },
    {
      "inputs": [
        {
          "internalType": "address",
          "name": "owner",
          "type": "address"
        },
        {
          "internalType": "uint256",
          "name": "index",
          "type": "uint256"
        }
      ],
      "name": "tokenOfOwnerByIndex",
      "outputs": [
        {
          "internalType": "uint256",
          "name": "",
          "type": "uint256"
        }
      ],
      "stateMutability": "view",
      "type": "function",
      "constant": true
    },
    {
      "inputs": [
        {
          "internalType": "uint256",
          "name": "tokenId",
          "type": "uint256"
        }
      ],
      "name": "tokenURI",
      "outputs": [
        {
          "internalType": "string",
          "name": "",
          "type": "string"
        }
      ],
      "stateMutability": "view",
      "type": "function",
      "constant": true
    },
    {
      "inputs": [
        {
          "internalType": "string",
          "name": "",
          "type": "string"
        }
      ],
      "name": "tokenURIExists",
      "outputs": [
        {
          "internalType": "bool",
          "name": "",
          "type": "bool"
        }
      ],
      "stateMutability": "view",
      "type": "function",
      "constant": true
    },
    {
      "inputs": [],
      "name": "totalSupply",
      "outputs": [
        {
          "internalType": "uint256",
          "name": "",
          "type": "uint256"
        }
      ],
      "stateMutability": "view",
      "type": "function",
      "constant": true
    },
    {
      "inputs": [
        {
          "internalType": "address",
          "name": "from",
          "type": "address"
        },
        {
          "internalType": "address",
          "name": "to",
          "type": "address"
        },
        {
          "internalType": "uint256",
          "name": "tokenId",
          "type": "uint256"
        }
      ],
      "name": "transferFrom",
      "outputs": [],
      "stateMutability": "nonpayable",
      "type": "function"
    },
    {
      "inputs": [
        {
          "internalType": "string",
          "name": "_name",
          "type": "string"
        },
        {
          "internalType": "string",
          "name": "_tokenURI",
          "type": "string"
        },
        {
          "internalType": "uint256",
          "name": "_price",
          "type": "uint256"
        },
        {
          "internalType": "string[]",
          "name": "_colors",
          "type": "string[]"
        }
      ],
      "name": "mintCryptoBoy",
      "outputs": [],
      "stateMutability": "nonpayable",
      "type": "function"
    },
    {
      "inputs": [
        {
          "internalType": "uint256",
          "name": "_tokenId",
          "type": "uint256"
        }
      ],
      "name": "getTokenOwner",
      "outputs": [
        {
          "internalType": "address",
          "name": "",
          "type": "address"
        }
      ],
      "stateMutability": "view",
      "type": "function",
      "constant": true
    },
    {
      "inputs": [
        {
          "internalType": "uint256",
          "name": "_tokenId",
          "type": "uint256"
        }
      ],
      "name": "getTokenMetaData",
      "outputs": [
        {
          "internalType": "string",
          "name": "",
          "type": "string"
        }
      ],
      "stateMutability": "view",
      "type": "function",
      "constant": true
    },
    {
      "inputs": [],
      "name": "getNumberOfTokensMinted",
      "outputs": [
        {
          "internalType": "uint256",
          "name": "",
          "type": "uint256"
        }
      ],
      "stateMutability": "view",
      "type": "function",
      "constant": true
    },
    {
      "inputs": [
        {
          "internalType": "address",
          "name": "_owner",
          "type": "address"
        }
      ],
      "name": "getTotalNumberOfTokensOwnedByAnAddress",
      "outputs": [
        {
          "internalType": "uint256",
          "name": "",
          "type": "uint256"
        }
      ],
      "stateMutability": "view",
      "type": "function",
      "constant": true
    },
    {
      "inputs": [
        {
          "internalType": "uint256",
          "name": "_tokenId",
          "type": "uint256"
        }
      ],
      "name": "getTokenExists",
      "outputs": [
        {
          "internalType": "bool",
          "name": "",
          "type": "bool"
        }
      ],
      "stateMutability": "view",
      "type": "function",
      "constant": true
    },
    {
      "inputs": [
        {
          "internalType": "uint256",
          "name": "_tokenId",
          "type": "uint256"
        }
      ],
      "name": "buyToken",
      "outputs": [],
      "stateMutability": "payable",
      "type": "function",
      "payable": true
    },
    {
      "inputs": [
        {
          "internalType": "uint256",
          "name": "_tokenId",
          "type": "uint256"
        },
        {
          "internalType": "uint256",
          "name": "_newPrice",
          "type": "uint256"
        }
      ],
      "name": "changeTokenPrice",
      "outputs": [],
      "stateMutability": "nonpayable",
      "type": "function"
    },
    {
      "inputs": [
        {
          "internalType": "uint256",
          "name": "_tokenId",
          "type": "uint256"
        }
      ],
      "name": "toggleForSale",
      "outputs": [],
      "stateMutability": "nonpayable",
      "type": "function"
    }
  ],
  "bytecode": "0x60806040523480156200001157600080fd5b506040518060400160405280601681526020017f43727970746f20426f797320436f6c6c656374696f6e000000000000000000008152506040518060400160405280600281526020017f4342000000000000000000000000000000000000000000000000000000000000815250620000966301ffc9a760e01b6200016860201b60201c565b8160069080519060200190620000ae9291906200038c565b508060079080519060200190620000c79291906200038c565b50620000e06380ac58cd60e01b6200016860201b60201c565b620000f8635b5e139f60e01b6200016860201b60201c565b6200011063780e9d6360e01b6200016860201b60201c565b5050620001226200024060201b60201c565b600a9080519060200190620001399291906200038c565b506200014a620002e660201b60201c565b600b9080519060200190620001619291906200038c565b50620004a7565b63ffffffff60e01b817bffffffffffffffffffffffffffffffffffffffffffffffffffffffff19161415620001d4576040517f08c379a0000000000000000000000000000000000000000000000000000000008152600401620001cb9062000474565b60405180910390fd5b6001600080837bffffffffffffffffffffffffffffffffffffffffffffffffffffffff19167bffffffffffffffffffffffffffffffffffffffffffffffffffffffff1916815260200190815260200160002060006101000a81548160ff02191690831515021790555050565b606060068054600181600116156101000203166002900480601f016020809104026020016040519081016040528092919081815260200182805460018160011615610100020316600290048015620002dc5780601f10620002b057610100808354040283529160200191620002dc565b820191906000526020600020905b815481529060010190602001808311620002be57829003601f168201915b5050505050905090565b606060078054600181600116156101000203166002900480601f016020809104026020016040519081016040528092919081815260200182805460018160011615610100020316600290048015620003825780601f10620003565761010080835404028352916020019162000382565b820191906000526020600020905b8154815290600101906020018083116200036457829003601f168201915b5050505050905090565b828054600181600116156101000203166002900490600052602060002090601f016020900481019282601f10620003cf57805160ff191683800117855562000400565b8280016001018555821562000400579182015b82811115620003ff578251825591602001919060010190620003e2565b5b5090506200040f919062000413565b5090565b5b808211156200042e57600081600090555060010162000414565b5090565b600062000441601c8362000496565b91507f4552433136353a20696e76616c696420696e74657266616365206964000000006000830152602082019050919050565b600060208201905081810360008301526200048f8162000432565b9050919050565b600082825260208201905092915050565b614e9680620004b76000396000f3fe6080604052600436106101ee5760003560e01c806367c623cf1161010d578063a32018b9116100a0578063bffec2021161006f578063bffec2021461078c578063c87b56dd146107b7578063cc151f3a146107f4578063e5326ab11461081f578063e985e9c51461084a576101ee565b8063a32018b9146106c0578063a46b1fac146106e9578063a5cd761f14610726578063b88d4fde14610763576101ee565b80638d44807c116100dc5780638d44807c1461060657806395d89b41146106435780639bfc5a591461066e578063a22cb46514610697576101ee565b806367c623cf146105365780636c0360eb146105735780636f9507f91461059e57806370a08231146105c9576101ee565b80632f745c591161018557806344c0d7eb1161015457806344c0d7eb1461044e5780634f6ccce71461049357806362e8e8ac146104d05780636352211e146104f9576101ee565b80632f745c591461036e57806342842e0e146103ab57806343902850146103d457806343d32ae714610411576101ee565b8063142687f3116101c1578063142687f3146102c157806318160ddd146102fe57806323b872dd146103295780632d296bf114610352576101ee565b806301ffc9a7146101f357806306fdde0314610230578063081812fc1461025b578063095ea7b314610298575b600080fd5b3480156101ff57600080fd5b5061021a60048036038101906102159190613e30565b610887565b6040516102279190614873565b60405180910390f35b34801561023c57600080fd5b506102456108ee565b604051610252919061488e565b60405180910390f35b34801561026757600080fd5b50610282600480360381019061027d9190613f73565b610990565b60405161028f919061480c565b60405180910390f35b3480156102a457600080fd5b506102bf60048036038101906102ba9190613df4565b610a15565b005b3480156102cd57600080fd5b506102e860048036038101906102e39190613f73565b610b2d565b6040516102f59190614873565b60405180910390f35b34801561030a57600080fd5b50610313610b44565b6040516103209190614af0565b60405180910390f35b34801561033557600080fd5b50610350600480360381019061034b9190613cee565b610b55565b005b61036c60048036038101906103679190613f73565b610bb5565b005b34801561037a57600080fd5b5061039560048036038101906103909190613df4565b611194565b6040516103a29190614af0565b60405180910390f35b3480156103b757600080fd5b506103d260048036038101906103cd9190613cee565b6111ef565b005b3480156103e057600080fd5b506103fb60048036038101906103f69190613c89565b61120f565b6040516104089190614af0565b60405180910390f35b34801561041d57600080fd5b5061043860048036038101906104339190613e82565b611226565b6040516104459190614873565b60405180910390f35b34801561045a57600080fd5b5061047560048036038101906104709190613f73565b61125c565b60405161048a99989796959493929190614b0b565b60405180910390f35b34801561049f57600080fd5b506104ba60048036038101906104b59190613f73565b611447565b6040516104c79190614af0565b60405180910390f35b3480156104dc57600080fd5b506104f760048036038101906104f29190613f9c565b61146a565b005b34801561050557600080fd5b50610520600480360381019061051b9190613f73565b611918565b60405161052d919061480c565b60405180910390f35b34801561054257600080fd5b5061055d60048036038101906105589190613f73565b61194f565b60405161056a919061488e565b60405180910390f35b34801561057f57600080fd5b50610588611966565b604051610595919061488e565b60405180910390f35b3480156105aa57600080fd5b506105b3611a08565b6040516105c0919061488e565b60405180910390f35b3480156105d557600080fd5b506105f060048036038101906105eb9190613c89565b611aa6565b6040516105fd9190614af0565b60405180910390f35b34801561061257600080fd5b5061062d60048036038101906106289190613e82565b611b65565b60405161063a9190614873565b60405180910390f35b34801561064f57600080fd5b50610658611b9b565b604051610665919061488e565b60405180910390f35b34801561067a57600080fd5b5061069560048036038101906106909190613ec3565b611c3d565b005b3480156106a357600080fd5b506106be60048036038101906106b99190613db8565b612073565b005b3480156106cc57600080fd5b506106e760048036038101906106e29190613f73565b6121f4565b005b3480156106f557600080fd5b50610710600480360381019061070b9190613e82565b6126cc565b60405161071d9190614873565b60405180910390f35b34801561073257600080fd5b5061074d60048036038101906107489190613f73565b612702565b60405161075a919061480c565b60405180910390f35b34801561076f57600080fd5b5061078a60048036038101906107859190613d3d565b612719565b005b34801561079857600080fd5b506107a161277b565b6040516107ae9190614af0565b60405180910390f35b3480156107c357600080fd5b506107de60048036038101906107d99190613f73565b612781565b6040516107eb919061488e565b60405180910390f35b34801561080057600080fd5b50610809612904565b6040516108169190614af0565b60405180910390f35b34801561082b57600080fd5b50610834612918565b604051610841919061488e565b60405180910390f35b34801561085657600080fd5b50610871600480360381019061086c9190613cb2565b6129b6565b60405161087e9190614873565b60405180910390f35b6000806000837bffffffffffffffffffffffffffffffffffffffffffffffffffffffff19167bffffffffffffffffffffffffffffffffffffffffffffffffffffffff1916815260200190815260200160002060009054906101000a900460ff169050919050565b606060068054600181600116156101000203166002900480601f0160208091040260200160405190810160405280929190818152602001828054600181600116156101000203166002900480156109865780601f1061095b57610100808354040283529160200191610986565b820191906000526020600020905b81548152906001019060200180831161096957829003601f168201915b5050505050905090565b600061099b82612a4a565b6109da576040517f08c379a00000000000000000000000000000000000000000000000000000000081526004016109d190614a10565b60405180910390fd5b6004600083815260200190815260200160002060009054906101000a900473ffffffffffffffffffffffffffffffffffffffff169050919050565b6000610a2082611918565b90508073ffffffffffffffffffffffffffffffffffffffff168373ffffffffffffffffffffffffffffffffffffffff161415610a91576040517f08c379a0000000000000000000000000000000000000000000000000000000008152600401610a8890614a90565b60405180910390fd5b8073ffffffffffffffffffffffffffffffffffffffff16610ab0612a67565b73ffffffffffffffffffffffffffffffffffffffff161480610adf5750610ade81610ad9612a67565b6129b6565b5b610b1e576040517f08c379a0000000000000000000000000000000000000000000000000000000008152600401610b1590614990565b60405180910390fd5b610b288383612a6f565b505050565b600080610b3983612a4a565b905080915050919050565b6000610b506002612b28565b905090565b610b66610b60612a67565b82612b3d565b610ba5576040517f08c379a0000000000000000000000000000000000000000000000000000000008152600401610b9c90614ab0565b60405180910390fd5b610bb0838383612c1b565b505050565b600073ffffffffffffffffffffffffffffffffffffffff163373ffffffffffffffffffffffffffffffffffffffff161415610bef57600080fd5b610bf881612a4a565b610c0157600080fd5b6000610c0c82611918565b9050600073ffffffffffffffffffffffffffffffffffffffff168173ffffffffffffffffffffffffffffffffffffffff161415610c4857600080fd5b3373ffffffffffffffffffffffffffffffffffffffff168173ffffffffffffffffffffffffffffffffffffffff161415610c8157600080fd5b610c89613a01565b600d60008481526020019081526020016000206040518061012001604052908160008201548152602001600182018054600181600116156101000203166002900480601f016020809104026020016040519081016040528092919081815260200182805460018160011615610100020316600290048015610d4b5780601f10610d2057610100808354040283529160200191610d4b565b820191906000526020600020905b815481529060010190602001808311610d2e57829003601f168201915b50505050508152602001600282018054600181600116156101000203166002900480601f016020809104026020016040519081016040528092919081815260200182805460018160011615610100020316600290048015610ded5780601f10610dc257610100808354040283529160200191610ded565b820191906000526020600020905b815481529060010190602001808311610dd057829003601f168201915b505050505081526020016003820160009054906101000a900473ffffffffffffffffffffffffffffffffffffffff1673ffffffffffffffffffffffffffffffffffffffff1673ffffffffffffffffffffffffffffffffffffffff1681526020016004820160009054906101000a900473ffffffffffffffffffffffffffffffffffffffff1673ffffffffffffffffffffffffffffffffffffffff1673ffffffffffffffffffffffffffffffffffffffff1681526020016005820160009054906101000a900473ffffffffffffffffffffffffffffffffffffffff1673ffffffffffffffffffffffffffffffffffffffff1673ffffffffffffffffffffffffffffffffffffffff16815260200160068201548152602001600782015481526020016008820160009054906101000a900460ff16151515158152505090508060c00151341015610f3a57600080fd5b806101000151610f4957600080fd5b610f54823385612c1b565b6000816080015190508073ffffffffffffffffffffffffffffffffffffffff166108fc349081150290604051600060405180830381858888f19350505050158015610fa3573d6000803e3d6000fd5b5081608001518260a0019073ffffffffffffffffffffffffffffffffffffffff16908173ffffffffffffffffffffffffffffffffffffffff168152505033826080019073ffffffffffffffffffffffffffffffffffffffff16908173ffffffffffffffffffffffffffffffffffffffff168152505060018260e001818151019150818152505081600d6000868152602001908152602001600020600082015181600001556020820151816001019080519060200190611063929190613a91565b506040820151816002019080519060200190611080929190613a91565b5060608201518160030160006101000a81548173ffffffffffffffffffffffffffffffffffffffff021916908373ffffffffffffffffffffffffffffffffffffffff16021790555060808201518160040160006101000a81548173ffffffffffffffffffffffffffffffffffffffff021916908373ffffffffffffffffffffffffffffffffffffffff16021790555060a08201518160050160006101000a81548173ffffffffffffffffffffffffffffffffffffffff021916908373ffffffffffffffffffffffffffffffffffffffff16021790555060c0820151816006015560e082015181600701556101008201518160080160006101000a81548160ff02191690831515021790555090505050505050565b60006111e782600160008673ffffffffffffffffffffffffffffffffffffffff1673ffffffffffffffffffffffffffffffffffffffff168152602001908152602001600020612e3290919063ffffffff16565b905092915050565b61120a83838360405180602001604052806000815250612719565b505050565b60008061121b83611aa6565b905080915050919050565b6010818051602081018201805184825260208301602085012081835280955050505050506000915054906101000a900460ff1681565b600d602052806000526040600020600091509050806000015490806001018054600181600116156101000203166002900480601f01602080910402602001604051908101604052809291908181526020018280546001816001161561010002031660029004801561130e5780601f106112e35761010080835404028352916020019161130e565b820191906000526020600020905b8154815290600101906020018083116112f157829003601f168201915b505050505090806002018054600181600116156101000203166002900480601f0160208091040260200160405190810160405280929190818152602001828054600181600116156101000203166002900480156113ac5780601f10611381576101008083540402835291602001916113ac565b820191906000526020600020905b81548152906001019060200180831161138f57829003601f168201915b5050505050908060030160009054906101000a900473ffffffffffffffffffffffffffffffffffffffff16908060040160009054906101000a900473ffffffffffffffffffffffffffffffffffffffff16908060050160009054906101000a900473ffffffffffffffffffffffffffffffffffffffff16908060060154908060070154908060080160009054906101000a900460ff16905089565b60008061145e836002612e4c90919063ffffffff16565b50905080915050919050565b600073ffffffffffffffffffffffffffffffffffffffff163373ffffffffffffffffffffffffffffffffffffffff1614156114a457600080fd5b6114ad82612a4a565b6114b657600080fd5b60006114c183611918565b90503373ffffffffffffffffffffffffffffffffffffffff168173ffffffffffffffffffffffffffffffffffffffff16146114fb57600080fd5b611503613a01565b600d60008581526020019081526020016000206040518061012001604052908160008201548152602001600182018054600181600116156101000203166002900480601f0160208091040260200160405190810160405280929190818152602001828054600181600116156101000203166002900480156115c55780601f1061159a576101008083540402835291602001916115c5565b820191906000526020600020905b8154815290600101906020018083116115a857829003601f168201915b50505050508152602001600282018054600181600116156101000203166002900480601f0160208091040260200160405190810160405280929190818152602001828054600181600116156101000203166002900480156116675780601f1061163c57610100808354040283529160200191611667565b820191906000526020600020905b81548152906001019060200180831161164a57829003601f168201915b505050505081526020016003820160009054906101000a900473ffffffffffffffffffffffffffffffffffffffff1673ffffffffffffffffffffffffffffffffffffffff1673ffffffffffffffffffffffffffffffffffffffff1681526020016004820160009054906101000a900473ffffffffffffffffffffffffffffffffffffffff1673ffffffffffffffffffffffffffffffffffffffff1673ffffffffffffffffffffffffffffffffffffffff1681526020016005820160009054906101000a900473ffffffffffffffffffffffffffffffffffffffff1673ffffffffffffffffffffffffffffffffffffffff1673ffffffffffffffffffffffffffffffffffffffff16815260200160068201548152602001600782015481526020016008820160009054906101000a900460ff1615151515815250509050828160c001818152505080600d60008681526020019081526020016000206000820151816000015560208201518160010190805190602001906117e7929190613a91565b506040820151816002019080519060200190611804929190613a91565b5060608201518160030160006101000a81548173ffffffffffffffffffffffffffffffffffffffff021916908373ffffffffffffffffffffffffffffffffffffffff16021790555060808201518160040160006101000a81548173ffffffffffffffffffffffffffffffffffffffff021916908373ffffffffffffffffffffffffffffffffffffffff16021790555060a08201518160050160006101000a81548173ffffffffffffffffffffffffffffffffffffffff021916908373ffffffffffffffffffffffffffffffffffffffff16021790555060c0820151816006015560e082015181600701556101008201518160080160006101000a81548160ff02191690831515021790555090505050505050565b600061194882604051806060016040528060298152602001614e38602991396002612e789092919063ffffffff16565b9050919050565b60608061195b83612781565b905080915050919050565b606060098054600181600116156101000203166002900480601f0160208091040260200160405190810160405280929190818152602001828054600181600116156101000203166002900480156119fe5780601f106119d3576101008083540402835291602001916119fe565b820191906000526020600020905b8154815290600101906020018083116119e157829003601f168201915b5050505050905090565b600b8054600181600116156101000203166002900480601f016020809104026020016040519081016040528092919081815260200182805460018160011615610100020316600290048015611a9e5780601f10611a7357610100808354040283529160200191611a9e565b820191906000526020600020905b815481529060010190602001808311611a8157829003601f168201915b505050505081565b60008073ffffffffffffffffffffffffffffffffffffffff168273ffffffffffffffffffffffffffffffffffffffff161415611b17576040517f08c379a0000000000000000000000000000000000000000000000000000000008152600401611b0e906149b0565b60405180910390fd5b611b5e600160008473ffffffffffffffffffffffffffffffffffffffff1673ffffffffffffffffffffffffffffffffffffffff168152602001908152602001600020612e97565b9050919050565b600f818051602081018201805184825260208301602085012081835280955050505050506000915054906101000a900460ff1681565b606060078054600181600116156101000203166002900480601f016020809104026020016040519081016040528092919081815260200182805460018160011615610100020316600290048015611c335780601f10611c0857610100808354040283529160200191611c33565b820191906000526020600020905b815481529060010190602001808311611c1657829003601f168201915b5050505050905090565b600073ffffffffffffffffffffffffffffffffffffffff163373ffffffffffffffffffffffffffffffffffffffff161415611c7757600080fd5b600c60008154809291906001019190505550611c94600c54612a4a565b15611c9e57600080fd5b60005b82829050811015611d0d57600f838383818110611cba57fe5b9050602002810190611ccc9190614ba6565b604051611cda9291906147b8565b908152602001604051809103902060009054906101000a900460ff1615611d0057600080fd5b8080600101915050611ca1565b50601084604051611d1e91906147d1565b908152602001604051809103902060009054906101000a900460ff1615611d4457600080fd5b600e85604051611d5491906147d1565b908152602001604051809103902060009054906101000a900460ff1615611d7a57600080fd5b611d8633600c54612eac565b611d92600c548561303a565b60005b82829050811015611e02576001600f848484818110611db057fe5b9050602002810190611dc29190614ba6565b604051611dd09291906147b8565b908152602001604051809103902060006101000a81548160ff0219169083151502179055508080600101915050611d95565b506001601085604051611e1591906147d1565b908152602001604051809103902060006101000a81548160ff0219169083151502179055506001600e86604051611e4c91906147d1565b908152602001604051809103902060006101000a81548160ff021916908315150217905550611e79613a01565b604051806101200160405280600c5481526020018781526020018681526020013373ffffffffffffffffffffffffffffffffffffffff1681526020013373ffffffffffffffffffffffffffffffffffffffff168152602001600073ffffffffffffffffffffffffffffffffffffffff1681526020018581526020016000815260200160011515815250905080600d6000600c548152602001908152602001600020600082015181600001556020820151816001019080519060200190611f40929190613a91565b506040820151816002019080519060200190611f5d929190613a91565b5060608201518160030160006101000a81548173ffffffffffffffffffffffffffffffffffffffff021916908373ffffffffffffffffffffffffffffffffffffffff16021790555060808201518160040160006101000a81548173ffffffffffffffffffffffffffffffffffffffff021916908373ffffffffffffffffffffffffffffffffffffffff16021790555060a08201518160050160006101000a81548173ffffffffffffffffffffffffffffffffffffffff021916908373ffffffffffffffffffffffffffffffffffffffff16021790555060c0820151816006015560e082015181600701556101008201518160080160006101000a81548160ff021916908315150217905550905050505050505050565b61207b612a67565b73ffffffffffffffffffffffffffffffffffffffff168273ffffffffffffffffffffffffffffffffffffffff1614156120e9576040517f08c379a00000000000000000000000000000000000000000000000000000000081526004016120e090614930565b60405180910390fd5b80600560006120f6612a67565b73ffffffffffffffffffffffffffffffffffffffff1673ffffffffffffffffffffffffffffffffffffffff16815260200190815260200160002060008473ffffffffffffffffffffffffffffffffffffffff1673ffffffffffffffffffffffffffffffffffffffff16815260200190815260200160002060006101000a81548160ff0219169083151502179055508173ffffffffffffffffffffffffffffffffffffffff166121a3612a67565b73ffffffffffffffffffffffffffffffffffffffff167f17307eab39ab6107e8899845ad3d59bd9653f200f220920489ca2b5937696c31836040516121e89190614873565b60405180910390a35050565b600073ffffffffffffffffffffffffffffffffffffffff163373ffffffffffffffffffffffffffffffffffffffff16141561222e57600080fd5b61223781612a4a565b61224057600080fd5b600061224b82611918565b90503373ffffffffffffffffffffffffffffffffffffffff168173ffffffffffffffffffffffffffffffffffffffff161461228557600080fd5b61228d613a01565b600d60008481526020019081526020016000206040518061012001604052908160008201548152602001600182018054600181600116156101000203166002900480601f01602080910402602001604051908101604052809291908181526020018280546001816001161561010002031660029004801561234f5780601f106123245761010080835404028352916020019161234f565b820191906000526020600020905b81548152906001019060200180831161233257829003601f168201915b50505050508152602001600282018054600181600116156101000203166002900480601f0160208091040260200160405190810160405280929190818152602001828054600181600116156101000203166002900480156123f15780601f106123c6576101008083540402835291602001916123f1565b820191906000526020600020905b8154815290600101906020018083116123d457829003601f168201915b505050505081526020016003820160009054906101000a900473ffffffffffffffffffffffffffffffffffffffff1673ffffffffffffffffffffffffffffffffffffffff1673ffffffffffffffffffffffffffffffffffffffff1681526020016004820160009054906101000a900473ffffffffffffffffffffffffffffffffffffffff1673ffffffffffffffffffffffffffffffffffffffff1673ffffffffffffffffffffffffffffffffffffffff1681526020016005820160009054906101000a900473ffffffffffffffffffffffffffffffffffffffff1673ffffffffffffffffffffffffffffffffffffffff1673ffffffffffffffffffffffffffffffffffffffff16815260200160068201548152602001600782015481526020016008820160009054906101000a900460ff16151515158152505090508061010001511561254f57600081610100019015159081151581525050612562565b6001816101000190151590811515815250505b80600d600085815260200190815260200160002060008201518160000155602082015181600101908051906020019061259c929190613a91565b5060408201518160020190805190602001906125b9929190613a91565b5060608201518160030160006101000a81548173ffffffffffffffffffffffffffffffffffffffff021916908373ffffffffffffffffffffffffffffffffffffffff16021790555060808201518160040160006101000a81548173ffffffffffffffffffffffffffffffffffffffff021916908373ffffffffffffffffffffffffffffffffffffffff16021790555060a08201518160050160006101000a81548173ffffffffffffffffffffffffffffffffffffffff021916908373ffffffffffffffffffffffffffffffffffffffff16021790555060c0820151816006015560e082015181600701556101008201518160080160006101000a81548160ff021916908315150217905550905050505050565b600e818051602081018201805184825260208301602085012081835280955050505050506000915054906101000a900460ff1681565b60008061270e83611918565b905080915050919050565b61272a612724612a67565b83612b3d565b612769576040517f08c379a000000000000000000000000000000000000000000000000000000000815260040161276090614ab0565b60405180910390fd5b612775848484846130ae565b50505050565b600c5481565b606061278c82612a4a565b6127cb576040517f08c379a00000000000000000000000000000000000000000000000000000000081526004016127c290614a70565b60405180910390fd5b6060600860008481526020019081526020016000208054600181600116156101000203166002900480601f0160208091040260200160405190810160405280929190818152602001828054600181600116156101000203166002900480156128745780601f1061284957610100808354040283529160200191612874565b820191906000526020600020905b81548152906001019060200180831161285757829003601f168201915b505050505090506060612885611966565b905060008151141561289b5781925050506128ff565b6000825111156128d05780826040516020016128b89291906147e8565b604051602081830303815290604052925050506128ff565b806128da8561310a565b6040516020016128eb9291906147e8565b604051602081830303815290604052925050505b919050565b60008061290f610b44565b90508091505090565b600a8054600181600116156101000203166002900480601f0160208091040260200160405190810160405280929190818152602001828054600181600116156101000203166002900480156129ae5780601f10612983576101008083540402835291602001916129ae565b820191906000526020600020905b81548152906001019060200180831161299157829003601f168201915b505050505081565b6000600560008473ffffffffffffffffffffffffffffffffffffffff1673ffffffffffffffffffffffffffffffffffffffff16815260200190815260200160002060008373ffffffffffffffffffffffffffffffffffffffff1673ffffffffffffffffffffffffffffffffffffffff16815260200190815260200160002060009054906101000a900460ff16905092915050565b6000612a6082600261325190919063ffffffff16565b9050919050565b600033905090565b816004600083815260200190815260200160002060006101000a81548173ffffffffffffffffffffffffffffffffffffffff021916908373ffffffffffffffffffffffffffffffffffffffff160217905550808273ffffffffffffffffffffffffffffffffffffffff16612ae283611918565b73ffffffffffffffffffffffffffffffffffffffff167f8c5be1e5ebec7d5bd14f71427d1e84f3dd0314c0f7b2291e5b200ac8c7c3b92560405160405180910390a45050565b6000612b368260000161326b565b9050919050565b6000612b4882612a4a565b612b87576040517f08c379a0000000000000000000000000000000000000000000000000000000008152600401612b7e90614970565b60405180910390fd5b6000612b9283611918565b90508073ffffffffffffffffffffffffffffffffffffffff168473ffffffffffffffffffffffffffffffffffffffff161480612c0157508373ffffffffffffffffffffffffffffffffffffffff16612be984610990565b73ffffffffffffffffffffffffffffffffffffffff16145b80612c125750612c1181856129b6565b5b91505092915050565b8273ffffffffffffffffffffffffffffffffffffffff16612c3b82611918565b73ffffffffffffffffffffffffffffffffffffffff1614612c91576040517f08c379a0000000000000000000000000000000000000000000000000000000008152600401612c8890614a50565b60405180910390fd5b600073ffffffffffffffffffffffffffffffffffffffff168273ffffffffffffffffffffffffffffffffffffffff161415612d01576040517f08c379a0000000000000000000000000000000000000000000000000000000008152600401612cf890614910565b60405180910390fd5b612d0c83838361327c565b612d17600082612a6f565b612d6881600160008673ffffffffffffffffffffffffffffffffffffffff1673ffffffffffffffffffffffffffffffffffffffff16815260200190815260200160002061328190919063ffffffff16565b50612dba81600160008573ffffffffffffffffffffffffffffffffffffffff1673ffffffffffffffffffffffffffffffffffffffff16815260200190815260200160002061329b90919063ffffffff16565b50612dd1818360026132b59092919063ffffffff16565b50808273ffffffffffffffffffffffffffffffffffffffff168473ffffffffffffffffffffffffffffffffffffffff167fddf252ad1be2c89b69c2b068fc378daa952ba7f163c4a11628f55a4df523b3ef60405160405180910390a4505050565b6000612e4183600001836132ea565b60001c905092915050565b600080600080612e5f8660000186613357565b915091508160001c8160001c9350935050509250929050565b6000612e8b846000018460001b846133da565b60001c90509392505050565b6000612ea58260000161346b565b9050919050565b600073ffffffffffffffffffffffffffffffffffffffff168273ffffffffffffffffffffffffffffffffffffffff161415612f1c576040517f08c379a0000000000000000000000000000000000000000000000000000000008152600401612f13906149f0565b60405180910390fd5b612f2581612a4a565b15612f65576040517f08c379a0000000000000000000000000000000000000000000000000000000008152600401612f5c906148f0565b60405180910390fd5b612f716000838361327c565b612fc281600160008573ffffffffffffffffffffffffffffffffffffffff1673ffffffffffffffffffffffffffffffffffffffff16815260200190815260200160002061329b90919063ffffffff16565b50612fd9818360026132b59092919063ffffffff16565b50808273ffffffffffffffffffffffffffffffffffffffff16600073ffffffffffffffffffffffffffffffffffffffff167fddf252ad1be2c89b69c2b068fc378daa952ba7f163c4a11628f55a4df523b3ef60405160405180910390a45050565b61304382612a4a565b613082576040517f08c379a000000000000000000000000000000000000000000000000000000000815260040161307990614a30565b60405180910390fd5b806008600084815260200190815260200160002090805190602001906130a9929190613a91565b505050565b6130b9848484612c1b565b6130c58484848461347c565b613104576040517f08c379a00000000000000000000000000000000000000000000000000000000081526004016130fb906148d0565b60405180910390fd5b50505050565b60606000821415613152576040518060400160405280600181526020017f3000000000000000000000000000000000000000000000000000000000000000815250905061324c565b600082905060005b6000821461317c578080600101915050600a828161317457fe5b04915061315a565b60608167ffffffffffffffff8111801561319557600080fd5b506040519080825280601f01601f1916602001820160405280156131c85781602001600182028036833780820191505090505b50905060006001830390508593505b6000841461324457600a84816131e957fe5b0660300160f81b8282806001900393508151811061320357fe5b60200101907effffffffffffffffffffffffffffffffffffffffffffffffffffffffffffff1916908160001a905350600a848161323c57fe5b0493506131d7565b819450505050505b919050565b6000613263836000018360001b6135e0565b905092915050565b600081600001805490509050919050565b505050565b6000613293836000018360001b613603565b905092915050565b60006132ad836000018360001b6136eb565b905092915050565b60006132e1846000018460001b8473ffffffffffffffffffffffffffffffffffffffff1660001b61375b565b90509392505050565b600081836000018054905011613335576040517f08c379a000000000000000000000000000000000000000000000000000000000815260040161332c906148b0565b60405180910390fd5b82600001828154811061334457fe5b9060005260206000200154905092915050565b600080828460000180549050116133a3576040517f08c379a000000000000000000000000000000000000000000000000000000000815260040161339a906149d0565b60405180910390fd5b60008460000184815481106133b457fe5b906000526020600020906002020190508060000154816001015492509250509250929050565b6000808460010160008581526020019081526020016000205490506000811415839061343c576040517f08c379a0000000000000000000000000000000000000000000000000000000008152600401613433919061488e565b60405180910390fd5b5084600001600182038154811061344f57fe5b9060005260206000209060020201600101549150509392505050565b600081600001805490509050919050565b600061349d8473ffffffffffffffffffffffffffffffffffffffff16613837565b6134aa57600190506135d8565b606061357163150b7a0260e01b6134bf612a67565b8887876040516024016134d59493929190614827565b604051602081830303815290604052907bffffffffffffffffffffffffffffffffffffffffffffffffffffffff19166020820180517bffffffffffffffffffffffffffffffffffffffffffffffffffffffff8381831617835250505050604051806060016040528060328152602001614e06603291398773ffffffffffffffffffffffffffffffffffffffff1661384a9092919063ffffffff16565b90506000818060200190518101906135899190613e59565b905063150b7a0260e01b7bffffffffffffffffffffffffffffffffffffffffffffffffffffffff1916817bffffffffffffffffffffffffffffffffffffffffffffffffffffffff191614925050505b949350505050565b600080836001016000848152602001908152602001600020541415905092915050565b600080836001016000848152602001908152602001600020549050600081146136df576000600182039050600060018660000180549050039050600086600001828154811061364e57fe5b906000526020600020015490508087600001848154811061366b57fe5b90600052602060002001819055506001830187600101600083815260200190815260200160002081905550866000018054806136a357fe5b600190038181906000526020600020016000905590558660010160008781526020019081526020016000206000905560019450505050506136e5565b60009150505b92915050565b60006136f78383613862565b613750578260000182908060018154018082558091505060019003906000526020600020016000909190919091505582600001805490508360010160008481526020019081526020016000208190555060019050613755565b600090505b92915050565b600080846001016000858152602001908152602001600020549050600081141561380257846000016040518060400160405280868152602001858152509080600181540180825580915050600190039060005260206000209060020201600090919091909150600082015181600001556020820151816001015550508460000180549050856001016000868152602001908152602001600020819055506001915050613830565b8285600001600183038154811061381557fe5b90600052602060002090600202016001018190555060009150505b9392505050565b600080823b905060008111915050919050565b60606138598484600085613885565b90509392505050565b600080836001016000848152602001908152602001600020541415905092915050565b6060824710156138ca576040517f08c379a00000000000000000000000000000000000000000000000000000000081526004016138c190614950565b60405180910390fd5b6138d385613837565b613912576040517f08c379a000000000000000000000000000000000000000000000000000000000815260040161390990614ad0565b60405180910390fd5b600060608673ffffffffffffffffffffffffffffffffffffffff16858760405161393c91906147a1565b60006040518083038185875af1925050503d8060008114613979576040519150601f19603f3d011682016040523d82523d6000602084013e61397e565b606091505b509150915061398e82828661399a565b92505050949350505050565b606083156139aa578290506139fa565b6000835111156139bd5782518084602001fd5b816040517f08c379a00000000000000000000000000000000000000000000000000000000081526004016139f1919061488e565b60405180910390fd5b9392505050565b604051806101200160405280600081526020016060815260200160608152602001600073ffffffffffffffffffffffffffffffffffffffff168152602001600073ffffffffffffffffffffffffffffffffffffffff168152602001600073ffffffffffffffffffffffffffffffffffffffff16815260200160008152602001600081526020016000151581525090565b828054600181600116156101000203166002900490600052602060002090601f016020900481019282601f10613ad257805160ff1916838001178555613b00565b82800160010185558215613b00579182015b82811115613aff578251825591602001919060010190613ae4565b5b509050613b0d9190613b11565b5090565b5b80821115613b2a576000816000905550600101613b12565b5090565b600081359050613b3d81614da9565b92915050565b60008083601f840112613b5557600080fd5b8235905067ffffffffffffffff811115613b6e57600080fd5b602083019150836020820283011115613b8657600080fd5b9250929050565b600081359050613b9c81614dc0565b92915050565b600081359050613bb181614dd7565b92915050565b600081519050613bc681614dd7565b92915050565b600082601f830112613bdd57600080fd5b8135613bf0613beb82614c2a565b614bfd565b91508082526020830160208301858383011115613c0c57600080fd5b613c17838284614d56565b50505092915050565b600082601f830112613c3157600080fd5b8135613c44613c3f82614c56565b614bfd565b91508082526020830160208301858383011115613c6057600080fd5b613c6b838284614d56565b50505092915050565b600081359050613c8381614dee565b92915050565b600060208284031215613c9b57600080fd5b6000613ca984828501613b2e565b91505092915050565b60008060408385031215613cc557600080fd5b6000613cd385828601613b2e565b9250506020613ce485828601613b2e565b9150509250929050565b600080600060608486031215613d0357600080fd5b6000613d1186828701613b2e565b9350506020613d2286828701613b2e565b9250506040613d3386828701613c74565b9150509250925092565b60008060008060808587031215613d5357600080fd5b6000613d6187828801613b2e565b9450506020613d7287828801613b2e565b9350506040613d8387828801613c74565b925050606085013567ffffffffffffffff811115613da057600080fd5b613dac87828801613bcc565b91505092959194509250565b60008060408385031215613dcb57600080fd5b6000613dd985828601613b2e565b9250506020613dea85828601613b8d565b9150509250929050565b60008060408385031215613e0757600080fd5b6000613e1585828601613b2e565b9250506020613e2685828601613c74565b9150509250929050565b600060208284031215613e4257600080fd5b6000613e5084828501613ba2565b91505092915050565b600060208284031215613e6b57600080fd5b6000613e7984828501613bb7565b91505092915050565b600060208284031215613e9457600080fd5b600082013567ffffffffffffffff811115613eae57600080fd5b613eba84828501613c20565b91505092915050565b600080600080600060808688031215613edb57600080fd5b600086013567ffffffffffffffff811115613ef557600080fd5b613f0188828901613c20565b955050602086013567ffffffffffffffff811115613f1e57600080fd5b613f2a88828901613c20565b9450506040613f3b88828901613c74565b935050606086013567ffffffffffffffff811115613f5857600080fd5b613f6488828901613b43565b92509250509295509295909350565b600060208284031215613f8557600080fd5b6000613f9384828501613c74565b91505092915050565b60008060408385031215613faf57600080fd5b6000613fbd85828601613c74565b9250506020613fce85828601613c74565b9150509250929050565b613fe181614ce2565b82525050565b613ff081614cd0565b82525050565b613fff81614cf4565b82525050565b600061401082614c82565b61401a8185614c98565b935061402a818560208601614d65565b61403381614d98565b840191505092915050565b600061404982614c82565b6140538185614ca9565b9350614063818560208601614d65565b80840191505092915050565b600061407b8385614cc5565b9350614088838584614d56565b82840190509392505050565b600061409f82614c8d565b6140a98185614cb4565b93506140b9818560208601614d65565b6140c281614d98565b840191505092915050565b60006140d882614c8d565b6140e28185614cc5565b93506140f2818560208601614d65565b80840191505092915050565b600061410b602283614cb4565b91507f456e756d657261626c655365743a20696e646578206f7574206f6620626f756e60008301527f64730000000000000000000000000000000000000000000000000000000000006020830152604082019050919050565b6000614171603283614cb4565b91507f4552433732313a207472616e7366657220746f206e6f6e20455243373231526560008301527f63656976657220696d706c656d656e74657200000000000000000000000000006020830152604082019050919050565b60006141d7601c83614cb4565b91507f4552433732313a20746f6b656e20616c7265616479206d696e746564000000006000830152602082019050919050565b6000614217602483614cb4565b91507f4552433732313a207472616e7366657220746f20746865207a65726f2061646460008301527f72657373000000000000000000000000000000000000000000000000000000006020830152604082019050919050565b600061427d601983614cb4565b91507f4552433732313a20617070726f766520746f2063616c6c6572000000000000006000830152602082019050919050565b60006142bd602683614cb4565b91507f416464726573733a20696e73756666696369656e742062616c616e636520666f60008301527f722063616c6c00000000000000000000000000000000000000000000000000006020830152604082019050919050565b6000614323602c83614cb4565b91507f4552433732313a206f70657261746f7220717565727920666f72206e6f6e657860008301527f697374656e7420746f6b656e00000000000000000000000000000000000000006020830152604082019050919050565b6000614389603883614cb4565b91507f4552433732313a20617070726f76652063616c6c6572206973206e6f74206f7760008301527f6e6572206e6f7220617070726f76656420666f7220616c6c00000000000000006020830152604082019050919050565b60006143ef602a83614cb4565b91507f4552433732313a2062616c616e636520717565727920666f7220746865207a6560008301527f726f2061646472657373000000000000000000000000000000000000000000006020830152604082019050919050565b6000614455602283614cb4565b91507f456e756d657261626c654d61703a20696e646578206f7574206f6620626f756e60008301527f64730000000000000000000000000000000000000000000000000000000000006020830152604082019050919050565b60006144bb602083614cb4565b91507f4552433732313a206d696e7420746f20746865207a65726f20616464726573736000830152602082019050919050565b60006144fb602c83614cb4565b91507f4552433732313a20617070726f76656420717565727920666f72206e6f6e657860008301527f697374656e7420746f6b656e00000000000000000000000000000000000000006020830152604082019050919050565b6000614561602c83614cb4565b91507f4552433732314d657461646174613a2055524920736574206f66206e6f6e657860008301527f697374656e7420746f6b656e00000000000000000000000000000000000000006020830152604082019050919050565b60006145c7602983614cb4565b91507f4552433732313a207472616e73666572206f6620746f6b656e2074686174206960008301527f73206e6f74206f776e00000000000000000000000000000000000000000000006020830152604082019050919050565b600061462d602f83614cb4565b91507f4552433732314d657461646174613a2055524920717565727920666f72206e6f60008301527f6e6578697374656e7420746f6b656e00000000000000000000000000000000006020830152604082019050919050565b6000614693602183614cb4565b91507f4552433732313a20617070726f76616c20746f2063757272656e74206f776e6560008301527f72000000000000000000000000000000000000000000000000000000000000006020830152604082019050919050565b60006146f9603183614cb4565b91507f4552433732313a207472616e736665722063616c6c6572206973206e6f74206f60008301527f776e6572206e6f7220617070726f7665640000000000000000000000000000006020830152604082019050919050565b600061475f601d83614cb4565b91507f416464726573733a2063616c6c20746f206e6f6e2d636f6e74726163740000006000830152602082019050919050565b61479b81614d4c565b82525050565b60006147ad828461403e565b915081905092915050565b60006147c582848661406f565b91508190509392505050565b60006147dd82846140cd565b915081905092915050565b60006147f482856140cd565b915061480082846140cd565b91508190509392505050565b60006020820190506148216000830184613fe7565b92915050565b600060808201905061483c6000830187613fd8565b6148496020830186613fe7565b6148566040830185614792565b81810360608301526148688184614005565b905095945050505050565b60006020820190506148886000830184613ff6565b92915050565b600060208201905081810360008301526148a88184614094565b905092915050565b600060208201905081810360008301526148c9816140fe565b9050919050565b600060208201905081810360008301526148e981614164565b9050919050565b60006020820190508181036000830152614909816141ca565b9050919050565b600060208201905081810360008301526149298161420a565b9050919050565b6000602082019050818103600083015261494981614270565b9050919050565b60006020820190508181036000830152614969816142b0565b9050919050565b6000602082019050818103600083015261498981614316565b9050919050565b600060208201905081810360008301526149a98161437c565b9050919050565b600060208201905081810360008301526149c9816143e2565b9050919050565b600060208201905081810360008301526149e981614448565b9050919050565b60006020820190508181036000830152614a09816144ae565b9050919050565b60006020820190508181036000830152614a29816144ee565b9050919050565b60006020820190508181036000830152614a4981614554565b9050919050565b60006020820190508181036000830152614a69816145ba565b9050919050565b60006020820190508181036000830152614a8981614620565b9050919050565b60006020820190508181036000830152614aa981614686565b9050919050565b60006020820190508181036000830152614ac9816146ec565b9050919050565b60006020820190508181036000830152614ae981614752565b9050919050565b6000602082019050614b056000830184614792565b92915050565b600061012082019050614b21600083018c614792565b8181036020830152614b33818b614094565b90508181036040830152614b47818a614094565b9050614b566060830189613fd8565b614b636080830188613fd8565b614b7060a0830187613fd8565b614b7d60c0830186614792565b614b8a60e0830185614792565b614b98610100830184613ff6565b9a9950505050505050505050565b60008083356001602003843603038112614bbf57600080fd5b80840192508235915067ffffffffffffffff821115614bdd57600080fd5b602083019250600182023603831315614bf557600080fd5b509250929050565b6000604051905081810181811067ffffffffffffffff82111715614c2057600080fd5b8060405250919050565b600067ffffffffffffffff821115614c4157600080fd5b601f19601f8301169050602081019050919050565b600067ffffffffffffffff821115614c6d57600080fd5b601f19601f8301169050602081019050919050565b600081519050919050565b600081519050919050565b600082825260208201905092915050565b600081905092915050565b600082825260208201905092915050565b600081905092915050565b6000614cdb82614d2c565b9050919050565b6000614ced82614d2c565b9050919050565b60008115159050919050565b60007fffffffff0000000000000000000000000000000000000000000000000000000082169050919050565b600073ffffffffffffffffffffffffffffffffffffffff82169050919050565b6000819050919050565b82818337600083830152505050565b60005b83811015614d83578082015181840152602081019050614d68565b83811115614d92576000848401525b50505050565b6000601f19601f8301169050919050565b614db281614cd0565b8114614dbd57600080fd5b50565b614dc981614cf4565b8114614dd457600080fd5b50565b614de081614d00565b8114614deb57600080fd5b50565b614df781614d4c565b8114614e0257600080fd5b5056fe4552433732313a207472616e7366657220746f206e6f6e20455243373231526563656976657220696d706c656d656e7465724552433732313a206f776e657220717565727920666f72206e6f6e6578697374656e7420746f6b656ea264697066735822122055aea10137af73b06f95b25702f9bf71b7246b115abc060bd0b19114927c95f164736f6c63430007000033",
  "immutableReferences": {},
  "source": "// SPDX-License-Identifier: MIT\r\npragma solidity >=0.4.21 <0.8.0;\r\n// pragma abicoder v2;\r\npragma experimental ABIEncoderV2;\r\n\r\n// import ERC721 iterface\r\nimport \"./ERC721.sol\";\r\n\r\n// CryptoBoys smart contract inherits ERC721 interface\r\ncontract CryptoBoys is ERC721 {\r\n\r\n  // this contract's token collection name\r\n  string public collectionName;\r\n  // this contract's token symbol\r\n  string public collectionNameSymbol;\r\n  // total number of crypto boys minted\r\n  uint256 public cryptoBoyCounter;\r\n\r\n  // define crypto boy struct\r\n   struct CryptoBoy {\r\n    uint256 tokenId;\r\n    string tokenName;\r\n    string tokenURI;\r\n    address payable mintedBy;\r\n    address payable currentOwner;\r\n    address payable previousOwner;\r\n    uint256 price;\r\n    uint256 numberOfTransfers;\r\n    bool forSale;\r\n  }\r\n\r\n  // map cryptoboy's token id to crypto boy\r\n  mapping(uint256 => CryptoBoy) public allCryptoBoys;\r\n  // check if token name exists\r\n  mapping(string => bool) public tokenNameExists;\r\n  // check if color exists\r\n  mapping(string => bool) public colorExists;\r\n  // check if token URI exists\r\n  mapping(string => bool) public tokenURIExists;\r\n\r\n  // initialize contract while deployment with contract's collection name and token\r\n  constructor() ERC721(\"Crypto Boys Collection\", \"CB\") {\r\n    collectionName = name();\r\n    collectionNameSymbol = symbol();\r\n  }\r\n\r\n  // mint a new crypto boy\r\n  function mintCryptoBoy(string memory _name, string memory _tokenURI, uint256 _price, string[] calldata _colors) external {\r\n    // check if thic fucntion caller is not an zero address account\r\n    require(msg.sender != address(0));\r\n    // increment counter\r\n    cryptoBoyCounter ++;\r\n    // check if a token exists with the above token id => incremented counter\r\n    require(!_exists(cryptoBoyCounter));\r\n\r\n    // loop through the colors passed and check if each colors already exists or not\r\n    for(uint i=0; i<_colors.length; i++) {\r\n      require(!colorExists[_colors[i]]);\r\n    }\r\n    // check if the token URI already exists or not\r\n    require(!tokenURIExists[_tokenURI]);\r\n    // check if the token name already exists or not\r\n    require(!tokenNameExists[_name]);\r\n\r\n    // mint the token\r\n    _mint(msg.sender, cryptoBoyCounter);\r\n    // set token URI (bind token id with the passed in token URI)\r\n    _setTokenURI(cryptoBoyCounter, _tokenURI);\r\n\r\n    // loop through the colors passed and make each of the colors as exists since the token is already minted\r\n    for (uint i=0; i<_colors.length; i++) {\r\n      colorExists[_colors[i]] = true;\r\n    }\r\n    // make passed token URI as exists\r\n    tokenURIExists[_tokenURI] = true;\r\n    // make token name passed as exists\r\n    tokenNameExists[_name] = true;\r\n\r\n    // creat a new crypto boy (struct) and pass in new values\r\n    CryptoBoy memory newCryptoBoy = CryptoBoy(\r\n    cryptoBoyCounter,\r\n    _name,\r\n    _tokenURI,\r\n    msg.sender,\r\n    msg.sender,\r\n    address(0),\r\n    _price,\r\n    0,\r\n    true);\r\n    // add the token id and it's crypto boy to all crypto boys mapping\r\n    allCryptoBoys[cryptoBoyCounter] = newCryptoBoy;\r\n  }\r\n\r\n  // get owner of the token\r\n  function getTokenOwner(uint256 _tokenId) public view returns(address) {\r\n    address _tokenOwner = ownerOf(_tokenId);\r\n    return _tokenOwner;\r\n  }\r\n\r\n  // get metadata of the token\r\n  function getTokenMetaData(uint _tokenId) public view returns(string memory) {\r\n    string memory tokenMetaData = tokenURI(_tokenId);\r\n    return tokenMetaData;\r\n  }\r\n\r\n  // get total number of tokens minted so far\r\n  function getNumberOfTokensMinted() public view returns(uint256) {\r\n    uint256 totalNumberOfTokensMinted = totalSupply();\r\n    return totalNumberOfTokensMinted;\r\n  }\r\n\r\n  // get total number of tokens owned by an address\r\n  function getTotalNumberOfTokensOwnedByAnAddress(address _owner) public view returns(uint256) {\r\n    uint256 totalNumberOfTokensOwned = balanceOf(_owner);\r\n    return totalNumberOfTokensOwned;\r\n  }\r\n\r\n  // check if the token already exists\r\n  function getTokenExists(uint256 _tokenId) public view returns(bool) {\r\n    bool tokenExists = _exists(_tokenId);\r\n    return tokenExists;\r\n  }\r\n\r\n  // by a token by passing in the token's id\r\n  function buyToken(uint256 _tokenId) public payable {\r\n    // check if the function caller is not an zero account address\r\n    require(msg.sender != address(0));\r\n    // check if the token id of the token being bought exists or not\r\n    require(_exists(_tokenId));\r\n    // get the token's owner\r\n    address tokenOwner = ownerOf(_tokenId);\r\n    // token's owner should not be an zero address account\r\n    require(tokenOwner != address(0));\r\n    // the one who wants to buy the token should not be the token's owner\r\n    require(tokenOwner != msg.sender);\r\n    // get that token from all crypto boys mapping and create a memory of it defined as (struct => CryptoBoy)\r\n    CryptoBoy memory cryptoboy = allCryptoBoys[_tokenId];\r\n    // price sent in to buy should be equal to or more than the token's price\r\n    require(msg.value >= cryptoboy.price);\r\n    // token should be for sale\r\n    require(cryptoboy.forSale);\r\n    // transfer the token from owner to the caller of the function (buyer)\r\n    _transfer(tokenOwner, msg.sender, _tokenId);\r\n    // get owner of the token\r\n    address payable sendTo = cryptoboy.currentOwner;\r\n    // send token's worth of ethers to the owner\r\n    sendTo.transfer(msg.value);\r\n    // update the token's previous owner\r\n    cryptoboy.previousOwner = cryptoboy.currentOwner;\r\n    // update the token's current owner\r\n    cryptoboy.currentOwner = msg.sender;\r\n    // update the how many times this token was transfered\r\n    cryptoboy.numberOfTransfers += 1;\r\n    // set and update that token in the mapping\r\n    allCryptoBoys[_tokenId] = cryptoboy;\r\n  }\r\n\r\n  function changeTokenPrice(uint256 _tokenId, uint256 _newPrice) public {\r\n    // require caller of the function is not an empty address\r\n    require(msg.sender != address(0));\r\n    // require that token should exist\r\n    require(_exists(_tokenId));\r\n    // get the token's owner\r\n    address tokenOwner = ownerOf(_tokenId);\r\n    // check that token's owner should be equal to the caller of the function\r\n    require(tokenOwner == msg.sender);\r\n    // get that token from all crypto boys mapping and create a memory of it defined as (struct => CryptoBoy)\r\n    CryptoBoy memory cryptoboy = allCryptoBoys[_tokenId];\r\n    // update token's price with new price\r\n    cryptoboy.price = _newPrice;\r\n    // set and update that token in the mapping\r\n    allCryptoBoys[_tokenId] = cryptoboy;\r\n  }\r\n\r\n  // switch between set for sale and set not for sale\r\n  function toggleForSale(uint256 _tokenId) public {\r\n    // require caller of the function is not an empty address\r\n    require(msg.sender != address(0));\r\n    // require that token should exist\r\n    require(_exists(_tokenId));\r\n    // get the token's owner\r\n    address tokenOwner = ownerOf(_tokenId);\r\n    // check that token's owner should be equal to the caller of the function\r\n    require(tokenOwner == msg.sender);\r\n    // get that token from all crypto boys mapping and create a memory of it defined as (struct => CryptoBoy)\r\n    CryptoBoy memory cryptoboy = allCryptoBoys[_tokenId];\r\n    // if token's forSale is false make it true and vice versa\r\n    if(cryptoboy.forSale) {\r\n      cryptoboy.forSale = false;\r\n    } else {\r\n      cryptoboy.forSale = true;\r\n    }\r\n    // set and update that token in the mapping\r\n    allCryptoBoys[_tokenId] = cryptoboy;\r\n  }\r\n}",
  "sourcePath": "D:\\Project\\cryptoboys-nft-marketplace\\src\\contracts\\CryptoBoys.sol",
  "compiler": {
    "name": "solc",
    "version": "0.7.0+commit.9e61f92b.Emscripten.clang"
  },
  "schemaVersion": "3.4.5",
  "updatedAt": "2022-03-05T17:00:17.502Z",
  "networkType": "ethereum",
  "devdoc": {
    "kind": "dev",
    "methods": {
      "approve(address,uint256)": {
        "details": "See {IERC721-approve}."
      },
      "balanceOf(address)": {
        "details": "See {IERC721-balanceOf}."
      },
      "baseURI()": {
        "details": "Returns the base URI set via {_setBaseURI}. This will be automatically added as a prefix in {tokenURI} to each token's URI, or to the token ID if no specific URI is set for that token ID."
      },
      "getApproved(uint256)": {
        "details": "See {IERC721-getApproved}."
      },
      "isApprovedForAll(address,address)": {
        "details": "See {IERC721-isApprovedForAll}."
      },
      "name()": {
        "details": "See {IERC721Metadata-name}."
      },
      "ownerOf(uint256)": {
        "details": "See {IERC721-ownerOf}."
      },
      "safeTransferFrom(address,address,uint256)": {
        "details": "See {IERC721-safeTransferFrom}."
      },
      "safeTransferFrom(address,address,uint256,bytes)": {
        "details": "See {IERC721-safeTransferFrom}."
      },
      "setApprovalForAll(address,bool)": {
        "details": "See {IERC721-setApprovalForAll}."
      },
      "supportsInterface(bytes4)": {
        "details": "See {IERC165-supportsInterface}. Time complexity O(1), guaranteed to always use less than 30 000 gas."
      },
      "symbol()": {
        "details": "See {IERC721Metadata-symbol}."
      },
      "tokenByIndex(uint256)": {
        "details": "See {IERC721Enumerable-tokenByIndex}."
      },
      "tokenOfOwnerByIndex(address,uint256)": {
        "details": "See {IERC721Enumerable-tokenOfOwnerByIndex}."
      },
      "tokenURI(uint256)": {
        "details": "See {IERC721Metadata-tokenURI}."
      },
      "totalSupply()": {
        "details": "See {IERC721Enumerable-totalSupply}."
      },
      "transferFrom(address,address,uint256)": {
        "details": "See {IERC721-transferFrom}."
      }
    },
    "version": 1
  },
  "userdoc": {
    "kind": "user",
    "methods": {},
    "version": 1
  }
}