{
  "contractName": "DateTime",
  "abi": [
    {
      "inputs": [
        {
          "internalType": "uint16",
          "name": "year",
          "type": "uint16"
        }
      ],
      "name": "isLeapYear",
      "outputs": [
        {
          "internalType": "bool",
          "name": "",
          "type": "bool"
        }
      ],
      "stateMutability": "pure",
      "type": "function"
    },
    {
      "inputs": [
        {
          "internalType": "uint256",
          "name": "year",
          "type": "uint256"
        }
      ],
      "name": "leapYearsBefore",
      "outputs": [
        {
          "internalType": "uint256",
          "name": "",
          "type": "uint256"
        }
      ],
      "stateMutability": "pure",
      "type": "function"
    },
    {
      "inputs": [
        {
          "internalType": "uint8",
          "name": "month",
          "type": "uint8"
        },
        {
          "internalType": "uint16",
          "name": "year",
          "type": "uint16"
        }
      ],
      "name": "getDaysInMonth",
      "outputs": [
        {
          "internalType": "uint8",
          "name": "",
          "type": "uint8"
        }
      ],
      "stateMutability": "pure",
      "type": "function"
    },
    {
      "inputs": [
        {
          "internalType": "uint256",
          "name": "timestamp",
          "type": "uint256"
        }
      ],
      "name": "getYear",
      "outputs": [
        {
          "internalType": "uint16",
          "name": "",
          "type": "uint16"
        }
      ],
      "stateMutability": "pure",
      "type": "function"
    },
    {
      "inputs": [
        {
          "internalType": "uint256",
          "name": "timestamp",
          "type": "uint256"
        }
      ],
      "name": "getMonth",
      "outputs": [
        {
          "internalType": "uint8",
          "name": "",
          "type": "uint8"
        }
      ],
      "stateMutability": "pure",
      "type": "function"
    },
    {
      "inputs": [
        {
          "internalType": "uint256",
          "name": "timestamp",
          "type": "uint256"
        }
      ],
      "name": "getDay",
      "outputs": [
        {
          "internalType": "uint8",
          "name": "",
          "type": "uint8"
        }
      ],
      "stateMutability": "pure",
      "type": "function"
    },
    {
      "inputs": [
        {
          "internalType": "uint256",
          "name": "timestamp",
          "type": "uint256"
        }
      ],
      "name": "getHour",
      "outputs": [
        {
          "internalType": "uint8",
          "name": "",
          "type": "uint8"
        }
      ],
      "stateMutability": "pure",
      "type": "function"
    },
    {
      "inputs": [
        {
          "internalType": "uint256",
          "name": "timestamp",
          "type": "uint256"
        }
      ],
      "name": "getMinute",
      "outputs": [
        {
          "internalType": "uint8",
          "name": "",
          "type": "uint8"
        }
      ],
      "stateMutability": "pure",
      "type": "function"
    },
    {
      "inputs": [
        {
          "internalType": "uint256",
          "name": "timestamp",
          "type": "uint256"
        }
      ],
      "name": "getSecond",
      "outputs": [
        {
          "internalType": "uint8",
          "name": "",
          "type": "uint8"
        }
      ],
      "stateMutability": "pure",
      "type": "function"
    },
    {
      "inputs": [
        {
          "internalType": "uint256",
          "name": "timestamp",
          "type": "uint256"
        }
      ],
      "name": "getWeekday",
      "outputs": [
        {
          "internalType": "uint8",
          "name": "",
          "type": "uint8"
        }
      ],
      "stateMutability": "pure",
      "type": "function"
    },
    {
      "inputs": [
        {
          "internalType": "uint16",
          "name": "year",
          "type": "uint16"
        },
        {
          "internalType": "uint8",
          "name": "month",
          "type": "uint8"
        },
        {
          "internalType": "uint8",
          "name": "day",
          "type": "uint8"
        },
        {
          "internalType": "uint8",
          "name": "hour",
          "type": "uint8"
        },
        {
          "internalType": "uint8",
          "name": "minute",
          "type": "uint8"
        }
      ],
      "name": "toTimestamp",
      "outputs": [
        {
          "internalType": "uint256",
          "name": "timestamp",
          "type": "uint256"
        }
      ],
      "stateMutability": "pure",
      "type": "function"
    },
    {
      "inputs": [
        {
          "internalType": "uint16",
          "name": "year",
          "type": "uint16"
        },
        {
          "internalType": "uint8",
          "name": "month",
          "type": "uint8"
        },
        {
          "internalType": "uint8",
          "name": "day",
          "type": "uint8"
        },
        {
          "internalType": "uint8",
          "name": "hour",
          "type": "uint8"
        }
      ],
      "name": "toTimestamp",
      "outputs": [
        {
          "internalType": "uint256",
          "name": "timestamp",
          "type": "uint256"
        }
      ],
      "stateMutability": "pure",
      "type": "function"
    },
    {
      "inputs": [
        {
          "internalType": "uint16",
          "name": "year",
          "type": "uint16"
        },
        {
          "internalType": "uint8",
          "name": "month",
          "type": "uint8"
        },
        {
          "internalType": "uint8",
          "name": "day",
          "type": "uint8"
        }
      ],
      "name": "toTimestamp",
      "outputs": [
        {
          "internalType": "uint256",
          "name": "timestamp",
          "type": "uint256"
        }
      ],
      "stateMutability": "pure",
      "type": "function"
    },
    {
      "inputs": [
        {
          "internalType": "uint16",
          "name": "year",
          "type": "uint16"
        },
        {
          "internalType": "uint8",
          "name": "month",
          "type": "uint8"
        },
        {
          "internalType": "uint8",
          "name": "day",
          "type": "uint8"
        },
        {
          "internalType": "uint8",
          "name": "hour",
          "type": "uint8"
        },
        {
          "internalType": "uint8",
          "name": "minute",
          "type": "uint8"
        },
        {
          "internalType": "uint8",
          "name": "second",
          "type": "uint8"
        }
      ],
      "name": "toTimestamp",
      "outputs": [
        {
          "internalType": "uint256",
          "name": "timestamp",
          "type": "uint256"
        }
      ],
      "stateMutability": "pure",
      "type": "function"
    }
  ],
  "bytecode": "0x608060405234801561001057600080fd5b50610d64806100206000396000f3fe608060405234801561001057600080fd5b50600436106100ea5760003560e01c80639054bdec1161008c578063a6f0e57711610066578063a6f0e5771461045c578063b1999937146104a4578063b238ad0e146104e6578063fa93f8831461053c576100ea565b80639054bdec1461034a57806392d66313146103d1578063a324ad2414610417576100ea565b806365c72840116100c857806365c72840146101f35780637f791833146102385780638aa001fc146102a55780638c8d98a0146102ea576100ea565b80633e239e1a146100ef5780634ac1ad781461013457806362ba968714610179575b600080fd5b61011b6004803603602081101561010557600080fd5b8101908080359060200190929190505050610581565b604051808260ff16815260200191505060405180910390f35b6101606004803603602081101561014a57600080fd5b81019080803590602001909291905050506105a8565b604051808260ff16815260200191505060405180910390f35b6101dd600480360360a081101561018f57600080fd5b81019080803561ffff169060200190929190803560ff169060200190929190803560ff169060200190929190803560ff169060200190929190803560ff1690602001909291905050506105cb565b6040518082815260200191505060405180910390f35b61021f6004803603602081101561020957600080fd5b81019080803590602001909291905050506105e7565b604051808260ff16815260200191505060405180910390f35b61028f6004803603608081101561024e57600080fd5b81019080803561ffff169060200190929190803560ff169060200190929190803560ff169060200190929190803560ff1690602001909291905050506105fd565b6040518082815260200191505060405180910390f35b6102d1600480360360208110156102bb57600080fd5b8101908080359060200190929190505050610618565b604051808260ff16815260200191505060405180910390f35b6103346004803603606081101561030057600080fd5b81019080803561ffff169060200190929190803560ff169060200190929190803560ff16906020019092919050505061062c565b6040518082815260200191505060405180910390f35b6103bb600480360360c081101561036057600080fd5b81019080803561ffff169060200190929190803560ff169060200190929190803560ff169060200190929190803560ff169060200190929190803560ff169060200190929190803560ff169060200190929190505050610647565b6040518082815260200191505060405180910390f35b6103fd600480360360208110156103e757600080fd5b81019080803590602001909291905050506108cf565b604051808261ffff16815260200191505060405180910390f35b6104436004803603602081101561042d57600080fd5b8101908080359060200190929190505050610978565b604051808260ff16815260200191505060405180910390f35b61048c6004803603602081101561047257600080fd5b81019080803561ffff16906020019092919050505061098e565b60405180821515815260200191505060405180910390f35b6104d0600480360360208110156104ba57600080fd5b8101908080359060200190929190505050610a03565b6040518082815260200191505060405180910390f35b610523600480360360408110156104fc57600080fd5b81019080803560ff169060200190929190803561ffff169060200190929190505050610a36565b604051808260ff16815260200191505060405180910390f35b6105686004803603602081101561055257600080fd5b8101908080359060200190929190505050610b02565b604051808260ff16815260200191505060405180910390f35b60006018603c80848161059057fe5b048161059857fe5b04816105a057fe5b069050919050565b6000600760046201518084816105ba57fe5b0401816105c357fe5b069050919050565b60006105dc86868686866000610647565b905095945050505050565b60006105f282610b1f565b604001519050919050565b600061060e85858585600080610647565b9050949350505050565b6000603c828161062457fe5b069050919050565b600061063e8484846000806000610647565b90509392505050565b6000806107b290505b8761ffff168161ffff161015610693576106698161098e565b1561067c576301e2850082019150610686565b6301e13380820191505b8080600101915050610650565b61069b610cb8565b601f816000600c81106106aa57fe5b602002019060ff16908160ff16815250506106c48961098e565b156106ee57601d816001600c81106106d857fe5b602002019060ff16908160ff168152505061070f565b601c816001600c81106106fd57fe5b602002019060ff16908160ff16815250505b601f816002600c811061071e57fe5b602002019060ff16908160ff1681525050601e816003600c811061073e57fe5b602002019060ff16908160ff1681525050601f816004600c811061075e57fe5b602002019060ff16908160ff1681525050601e816005600c811061077e57fe5b602002019060ff16908160ff1681525050601f816006600c811061079e57fe5b602002019060ff16908160ff1681525050601f816007600c81106107be57fe5b602002019060ff16908160ff1681525050601e816008600c81106107de57fe5b602002019060ff16908160ff1681525050601f816009600c81106107fe57fe5b602002019060ff16908160ff1681525050601e81600a600c811061081e57fe5b602002019060ff16908160ff1681525050601f81600b600c811061083e57fe5b602002019060ff16908160ff1681525050600191505b8760ff168261ffff16101561089457806001830361ffff16600c811061087657fe5b602002015160ff166201518002830192508180600101925050610854565b6001870360ff166201518002830192508560ff16610e1002830192508460ff16603c02830192508360ff168301925050509695505050505050565b600080600090506000806301e1338085816108e657fe5b046107b261ffff160191506109006107b261ffff16610a03565b61090d8361ffff16610a03565b039050806301e285000283019250806107b2830361ffff16036301e1338002830192505b8483111561096d576109456001830361098e565b15610958576301e2850083039250610962565b6301e13380830392505b600182039150610931565b819350505050919050565b600061098382610b1f565b602001519050919050565b60008060048361ffff168161099f57fe5b0661ffff16146109b257600090506109fe565b600060648361ffff16816109c257fe5b0661ffff16146109d557600190506109fe565b60006101908361ffff16816109e657fe5b0661ffff16146109f957600090506109fe565b600190505b919050565b60006001820391506101908281610a1657fe5b0460648381610a2157fe5b0460048481610a2c57fe5b0403019050919050565b600060018360ff161480610a4d575060038360ff16145b80610a5b575060058360ff16145b80610a69575060078360ff16145b80610a77575060088360ff16145b80610a855750600a8360ff16145b80610a935750600c8360ff16145b15610aa157601f9050610afc565b60048360ff161480610ab6575060068360ff16145b80610ac4575060098360ff16145b80610ad25750600b8360ff16145b15610ae057601e9050610afc565b610ae98261098e565b15610af757601d9050610afc565b601c90505b92915050565b6000603c808381610b0f57fe5b0481610b1757fe5b069050919050565b610b27610cdb565b60008080610b34856108cf565b846000019061ffff16908161ffff1681525050610b566107b261ffff16610a03565b610b67856000015161ffff16610a03565b039150816301e285000283019250816107b285600001510361ffff16036301e1338002830192506000600191505b600c8260ff1611610beb57610bae828660000151610a36565b60ff1662015180029050858482011115610bd95781856020019060ff16908160ff1681525050610beb565b80840193508180600101925050610b95565b600191505b610c0285602001518660000151610a36565b60ff168260ff1611610c4757858462015180011115610c325781856040019060ff16908160ff1681525050610c47565b62015180840193508180600101925050610bf0565b610c5086610581565b856060019060ff16908160ff1681525050610c6a86610b02565b856080019060ff16908160ff1681525050610c8486610618565b8560a0019060ff16908160ff1681525050610c9e866105a8565b8560c0019060ff16908160ff168152505050505050919050565b604051806101800160405280600c90602082028036833780820191505090505090565b6040518060e00160405280600061ffff168152602001600060ff168152602001600060ff168152602001600060ff168152602001600060ff168152602001600060ff168152602001600060ff168152509056fea26469706673582212208062d053e8a42f8fcce9f085b2f85491c40070b9b920a45bb6e18acd7068ad5d64736f6c63430007060033",
  "immutableReferences": {},
  "source": "// SPDX-License-Identifier: SPDX-License\npragma solidity >=0.4.21 <0.8.0;\n\ncontract DateTime {\n        /*\n         *  Date and Time utilities for ethereum contracts\n         *\n         */\n        struct _DateTime {\n                uint16 year;\n                uint8 month;\n                uint8 day;\n                uint8 hour;\n                uint8 minute;\n                uint8 second;\n                uint8 weekday;\n        }\n\n        uint constant DAY_IN_SECONDS = 86400;\n        uint constant YEAR_IN_SECONDS = 31536000;\n        uint constant LEAP_YEAR_IN_SECONDS = 31622400;\n\n        uint constant HOUR_IN_SECONDS = 3600;\n        uint constant MINUTE_IN_SECONDS = 60;\n\n        uint16 constant ORIGIN_YEAR = 1970;\n\n        function isLeapYear(uint16 year) public pure returns (bool) {\n                if (year % 4 != 0) {\n                        return false;\n                }\n                if (year % 100 != 0) {\n                        return true;\n                }\n                if (year % 400 != 0) {\n                        return false;\n                }\n                return true;\n        }\n\n        function leapYearsBefore(uint year) public pure returns (uint) {\n                year -= 1;\n                return year / 4 - year / 100 + year / 400;\n        }\n\n        function getDaysInMonth(uint8 month, uint16 year) public pure returns (uint8) {\n                if (month == 1 || month == 3 || month == 5 || month == 7 || month == 8 || month == 10 || month == 12) {\n                        return 31;\n                }\n                else if (month == 4 || month == 6 || month == 9 || month == 11) {\n                        return 30;\n                }\n                else if (isLeapYear(year)) {\n                        return 29;\n                }\n                else {\n                        return 28;\n                }\n        }\n\n        function parseTimestamp(uint timestamp) internal pure returns (_DateTime memory dt) {\n                uint secondsAccountedFor = 0;\n                uint buf;\n                uint8 i;\n\n                // Year\n                dt.year = getYear(timestamp);\n                buf = leapYearsBefore(dt.year) - leapYearsBefore(ORIGIN_YEAR);\n\n                secondsAccountedFor += LEAP_YEAR_IN_SECONDS * buf;\n                secondsAccountedFor += YEAR_IN_SECONDS * (dt.year - ORIGIN_YEAR - buf);\n\n                // Month\n                uint secondsInMonth;\n                for (i = 1; i <= 12; i++) {\n                        secondsInMonth = DAY_IN_SECONDS * getDaysInMonth(i, dt.year);\n                        if (secondsInMonth + secondsAccountedFor > timestamp) {\n                                dt.month = i;\n                                break;\n                        }\n                        secondsAccountedFor += secondsInMonth;\n                }\n\n                // Day\n                for (i = 1; i <= getDaysInMonth(dt.month, dt.year); i++) {\n                        if (DAY_IN_SECONDS + secondsAccountedFor > timestamp) {\n                                dt.day = i;\n                                break;\n                        }\n                        secondsAccountedFor += DAY_IN_SECONDS;\n                }\n\n                // Hour\n                dt.hour = getHour(timestamp);\n\n                // Minute\n                dt.minute = getMinute(timestamp);\n\n                // Second\n                dt.second = getSecond(timestamp);\n\n                // Day of week.\n                dt.weekday = getWeekday(timestamp);\n        }\n\n        function getYear(uint timestamp) public pure returns (uint16) {\n                uint secondsAccountedFor = 0;\n                uint16 year;\n                uint numLeapYears;\n\n                // Year\n                year = uint16(ORIGIN_YEAR + timestamp / YEAR_IN_SECONDS);\n                numLeapYears = leapYearsBefore(year) - leapYearsBefore(ORIGIN_YEAR);\n\n                secondsAccountedFor += LEAP_YEAR_IN_SECONDS * numLeapYears;\n                secondsAccountedFor += YEAR_IN_SECONDS * (year - ORIGIN_YEAR - numLeapYears);\n\n                while (secondsAccountedFor > timestamp) {\n                        if (isLeapYear(uint16(year - 1))) {\n                                secondsAccountedFor -= LEAP_YEAR_IN_SECONDS;\n                        }\n                        else {\n                                secondsAccountedFor -= YEAR_IN_SECONDS;\n                        }\n                        year -= 1;\n                }\n                return year;\n        }\n\n        function getMonth(uint timestamp) public pure returns (uint8) {\n                return parseTimestamp(timestamp).month;\n        }\n\n        function getDay(uint timestamp) public pure returns (uint8) {\n                return parseTimestamp(timestamp).day;\n        }\n\n        function getHour(uint timestamp) public pure returns (uint8) {\n                return uint8((timestamp / 60 / 60) % 24);\n        }\n\n        function getMinute(uint timestamp) public pure returns (uint8) {\n                return uint8((timestamp / 60) % 60);\n        }\n\n        function getSecond(uint timestamp) public pure returns (uint8) {\n                return uint8(timestamp % 60);\n        }\n\n        function getWeekday(uint timestamp) public pure returns (uint8) {\n                return uint8((timestamp / DAY_IN_SECONDS + 4) % 7);\n        }\n\n        function toTimestamp(uint16 year, uint8 month, uint8 day) public pure returns (uint timestamp) {\n                return toTimestamp(year, month, day, 0, 0, 0);\n        }\n\n        function toTimestamp(uint16 year, uint8 month, uint8 day, uint8 hour) public pure returns (uint timestamp) {\n                return toTimestamp(year, month, day, hour, 0, 0);\n        }\n\n        function toTimestamp(uint16 year, uint8 month, uint8 day, uint8 hour, uint8 minute) public pure returns (uint timestamp) {\n                return toTimestamp(year, month, day, hour, minute, 0);\n        }\n\n        function toTimestamp(uint16 year, uint8 month, uint8 day, uint8 hour, uint8 minute, uint8 second) public pure returns (uint timestamp) {\n                uint16 i;\n\n                // Year\n                for (i = ORIGIN_YEAR; i < year; i++) {\n                        if (isLeapYear(i)) {\n                                timestamp += LEAP_YEAR_IN_SECONDS;\n                        }\n                        else {\n                                timestamp += YEAR_IN_SECONDS;\n                        }\n                }\n\n                // Month\n                uint8[12] memory monthDayCounts;\n                monthDayCounts[0] = 31;\n                if (isLeapYear(year)) {\n                        monthDayCounts[1] = 29;\n                }\n                else {\n                        monthDayCounts[1] = 28;\n                }\n                monthDayCounts[2] = 31;\n                monthDayCounts[3] = 30;\n                monthDayCounts[4] = 31;\n                monthDayCounts[5] = 30;\n                monthDayCounts[6] = 31;\n                monthDayCounts[7] = 31;\n                monthDayCounts[8] = 30;\n                monthDayCounts[9] = 31;\n                monthDayCounts[10] = 30;\n                monthDayCounts[11] = 31;\n\n                for (i = 1; i < month; i++) {\n                        timestamp += DAY_IN_SECONDS * monthDayCounts[i - 1];\n                }\n\n                // Day\n                timestamp += DAY_IN_SECONDS * (day - 1);\n\n                // Hour\n                timestamp += HOUR_IN_SECONDS * (hour);\n\n                // Minute\n                timestamp += MINUTE_IN_SECONDS * (minute);\n\n                // Second\n                timestamp += second;\n\n                return timestamp;\n        }\n}\n",
  "sourcePath": "/home/pavansoratur/crypto-boys/src/contracts/DateTime.sol",
  "compiler": {
    "name": "solc",
    "version": "0.7.6+commit.7338295f.Emscripten.clang"
  },
  "schemaVersion": "3.3.4",
  "updatedAt": "2021-03-07T16:52:11.476Z",
  "devdoc": {
    "kind": "dev",
    "methods": {},
    "version": 1
  },
  "userdoc": {
    "kind": "user",
    "methods": {},
    "version": 1
  }
}